{
  "_format": "hh-sol-artifact-1",
  "contractName": "FareSpinGame",
  "sourceName": "contracts/FareSpinGame.sol",
  "abi": [
    {
      "inputs": [
        {
          "internalType": "address",
          "name": "_fareTokenAddress",
          "type": "address"
        },
        {
          "internalType": "address",
          "name": "_vrfCoordinator",
          "type": "address"
        },
        {
          "internalType": "address",
          "name": "linkTokenAddress",
          "type": "address"
        },
        {
          "internalType": "bytes32",
          "name": "_keyHash",
          "type": "bytes32"
        },
        {
          "internalType": "uint256",
          "name": "_vrfLinkFee",
          "type": "uint256"
        },
        {
          "internalType": "address",
          "name": "_treasuryAddress",
          "type": "address"
        }
      ],
      "stateMutability": "nonpayable",
      "type": "constructor"
    },
    {
      "anonymous": false,
      "inputs": [
        {
          "indexed": true,
          "internalType": "uint256",
          "name": "roundId",
          "type": "uint256"
        },
        {
          "indexed": true,
          "internalType": "uint256",
          "name": "batchId",
          "type": "uint256"
        },
        {
          "indexed": true,
          "internalType": "address",
          "name": "player",
          "type": "address"
        },
        {
          "indexed": false,
          "internalType": "uint256",
          "name": "entryId",
          "type": "uint256"
        },
        {
          "indexed": false,
          "internalType": "bool",
          "name": "hasWon",
          "type": "bool"
        }
      ],
      "name": "EntrySettled",
      "type": "event"
    },
    {
      "anonymous": false,
      "inputs": [
        {
          "indexed": true,
          "internalType": "uint256",
          "name": "roundId",
          "type": "uint256"
        },
        {
          "indexed": true,
          "internalType": "uint256",
          "name": "batchId",
          "type": "uint256"
        },
        {
          "indexed": true,
          "internalType": "address",
          "name": "player",
          "type": "address"
        },
        {
          "indexed": false,
          "internalType": "uint256",
          "name": "entryId",
          "type": "uint256"
        }
      ],
      "name": "EntrySubmitted",
      "type": "event"
    },
    {
      "anonymous": false,
      "inputs": [
        {
          "indexed": true,
          "internalType": "uint256",
          "name": "gameModeId",
          "type": "uint256"
        }
      ],
      "name": "GameModeUpdated",
      "type": "event"
    },
    {
      "anonymous": false,
      "inputs": [
        {
          "indexed": true,
          "internalType": "uint256",
          "name": "roundId",
          "type": "uint256"
        },
        {
          "indexed": true,
          "internalType": "uint256",
          "name": "batchId",
          "type": "uint256"
        },
        {
          "indexed": true,
          "internalType": "address",
          "name": "player",
          "type": "address"
        }
      ],
      "name": "NFTWon",
      "type": "event"
    },
    {
      "anonymous": false,
      "inputs": [
        {
          "indexed": true,
          "internalType": "address",
          "name": "previousOwner",
          "type": "address"
        },
        {
          "indexed": true,
          "internalType": "address",
          "name": "newOwner",
          "type": "address"
        }
      ],
      "name": "OwnershipTransferred",
      "type": "event"
    },
    {
      "anonymous": false,
      "inputs": [
        {
          "indexed": false,
          "internalType": "address",
          "name": "account",
          "type": "address"
        }
      ],
      "name": "Paused",
      "type": "event"
    },
    {
      "anonymous": false,
      "inputs": [
        {
          "indexed": true,
          "internalType": "bytes32",
          "name": "vrfRequestId",
          "type": "bytes32"
        }
      ],
      "name": "RandomNumberRequested",
      "type": "event"
    },
    {
      "anonymous": false,
      "inputs": [
        {
          "indexed": true,
          "internalType": "uint256",
          "name": "roundId",
          "type": "uint256"
        },
        {
          "indexed": true,
          "internalType": "bytes32",
          "name": "vrfRequestId",
          "type": "bytes32"
        },
        {
          "indexed": false,
          "internalType": "uint256",
          "name": "randomNum",
          "type": "uint256"
        },
        {
          "indexed": false,
          "internalType": "uint256",
          "name": "randomEliminator",
          "type": "uint256"
        }
      ],
      "name": "RoundConcluded",
      "type": "event"
    },
    {
      "anonymous": false,
      "inputs": [
        {
          "indexed": false,
          "internalType": "address",
          "name": "account",
          "type": "address"
        }
      ],
      "name": "Unpaused",
      "type": "event"
    },
    {
      "inputs": [],
      "name": "GAME_EDGE_CEILING",
      "outputs": [
        {
          "internalType": "uint256",
          "name": "",
          "type": "uint256"
        }
      ],
      "stateMutability": "view",
      "type": "function"
    },
    {
      "inputs": [
        {
          "internalType": "uint256",
          "name": "",
          "type": "uint256"
        },
        {
          "internalType": "uint256",
          "name": "",
          "type": "uint256"
        }
      ],
      "name": "batchEntryMap",
      "outputs": [
        {
          "internalType": "uint256",
          "name": "entryId",
          "type": "uint256"
        },
        {
          "internalType": "address",
          "name": "player",
          "type": "address"
        },
        {
          "internalType": "bool",
          "name": "settled",
          "type": "bool"
        },
        {
          "internalType": "uint256",
          "name": "totalEntryAmount",
          "type": "uint256"
        },
        {
          "internalType": "uint256",
          "name": "totalWinAmount",
          "type": "uint256"
        }
      ],
      "stateMutability": "view",
      "type": "function"
    },
    {
      "inputs": [
        {
          "internalType": "uint256",
          "name": "",
          "type": "uint256"
        },
        {
          "internalType": "uint256",
          "name": "",
          "type": "uint256"
        }
      ],
      "name": "eliminators",
      "outputs": [
        {
          "internalType": "uint256",
          "name": "gameModeId",
          "type": "uint256"
        },
        {
          "internalType": "uint256",
          "name": "recordedEdgeFloor",
          "type": "uint256"
        },
        {
          "internalType": "bool",
          "name": "isEliminator",
          "type": "bool"
        }
      ],
      "stateMutability": "view",
      "type": "function"
    },
    {
      "inputs": [
        {
          "internalType": "uint256",
          "name": "",
          "type": "uint256"
        },
        {
          "internalType": "uint256",
          "name": "",
          "type": "uint256"
        }
      ],
      "name": "entryMap",
      "outputs": [
        {
          "internalType": "uint256",
          "name": "amount",
          "type": "uint256"
        },
        {
          "internalType": "uint256",
          "name": "gameModeId",
          "type": "uint256"
        },
        {
          "internalType": "uint256",
          "name": "pickedNumber",
          "type": "uint256"
        }
      ],
      "stateMutability": "view",
      "type": "function"
    },
    {
      "inputs": [],
      "name": "fareToken",
      "outputs": [
        {
          "internalType": "contract IFareToken",
          "name": "",
          "type": "address"
        }
      ],
      "stateMutability": "view",
      "type": "function"
    },
    {
      "inputs": [
        {
          "internalType": "uint256",
          "name": "",
          "type": "uint256"
        }
      ],
      "name": "gameModes",
      "outputs": [
        {
          "internalType": "uint256",
          "name": "id",
          "type": "uint256"
        },
        {
          "internalType": "uint256",
          "name": "cardinality",
          "type": "uint256"
        },
        {
          "internalType": "uint256",
          "name": "gameEdgeFloor",
          "type": "uint256"
        },
        {
          "internalType": "uint256",
          "name": "mintMultiplier",
          "type": "uint256"
        },
        {
          "internalType": "uint256",
          "name": "minAmount",
          "type": "uint256"
        },
        {
          "internalType": "uint256",
          "name": "maxAmount",
          "type": "uint256"
        },
        {
          "internalType": "uint256",
          "name": "entryLimit",
          "type": "uint256"
        },
        {
          "internalType": "bool",
          "name": "isActive",
          "type": "bool"
        }
      ],
      "stateMutability": "view",
      "type": "function"
    },
    {
      "inputs": [
        {
          "internalType": "uint256",
          "name": "roundId",
          "type": "uint256"
        }
      ],
      "name": "getBatchEntryCount",
      "outputs": [
        {
          "internalType": "uint256",
          "name": "count",
          "type": "uint256"
        }
      ],
      "stateMutability": "view",
      "type": "function"
    },
    {
      "inputs": [],
      "name": "getCurrentEntryId",
      "outputs": [
        {
          "internalType": "uint256",
          "name": "id",
          "type": "uint256"
        }
      ],
      "stateMutability": "view",
      "type": "function"
    },
    {
      "inputs": [],
      "name": "getCurrentGameModeId",
      "outputs": [
        {
          "internalType": "uint256",
          "name": "id",
          "type": "uint256"
        }
      ],
      "stateMutability": "view",
      "type": "function"
    },
    {
      "inputs": [],
      "name": "getCurrentRoundId",
      "outputs": [
        {
          "internalType": "uint256",
          "name": "id",
          "type": "uint256"
        }
      ],
      "stateMutability": "view",
      "type": "function"
    },
    {
      "inputs": [
        {
          "internalType": "uint256",
          "name": "entryId",
          "type": "uint256"
        }
      ],
      "name": "getEntryCount",
      "outputs": [
        {
          "internalType": "uint256",
          "name": "count",
          "type": "uint256"
        }
      ],
      "stateMutability": "view",
      "type": "function"
    },
    {
      "inputs": [
        {
          "internalType": "uint256",
          "name": "roundId",
          "type": "uint256"
        },
        {
          "internalType": "uint256",
          "name": "gameModeId",
          "type": "uint256"
        }
      ],
      "name": "getIsEliminator",
      "outputs": [
        {
          "internalType": "bool",
          "name": "isEliminator",
          "type": "bool"
        }
      ],
      "stateMutability": "view",
      "type": "function"
    },
    {
      "inputs": [],
      "name": "owner",
      "outputs": [
        {
          "internalType": "address",
          "name": "",
          "type": "address"
        }
      ],
      "stateMutability": "view",
      "type": "function"
    },
    {
      "inputs": [],
      "name": "paused",
      "outputs": [
        {
          "internalType": "bool",
          "name": "",
          "type": "bool"
        }
      ],
      "stateMutability": "view",
      "type": "function"
    },
    {
      "inputs": [
        {
          "components": [
            {
              "internalType": "uint256",
              "name": "amount",
              "type": "uint256"
            },
            {
              "internalType": "uint256",
              "name": "gameModeId",
              "type": "uint256"
            },
            {
              "internalType": "uint256",
              "name": "pickedNumber",
              "type": "uint256"
            }
          ],
          "internalType": "struct FareSpinGame.Entry[]",
          "name": "entries",
          "type": "tuple[]"
        }
      ],
      "name": "placeBatchEntry",
      "outputs": [],
      "stateMutability": "nonpayable",
      "type": "function"
    },
    {
      "inputs": [
        {
          "internalType": "bytes32",
          "name": "requestId",
          "type": "bytes32"
        },
        {
          "internalType": "uint256",
          "name": "randomness",
          "type": "uint256"
        }
      ],
      "name": "rawFulfillRandomness",
      "outputs": [],
      "stateMutability": "nonpayable",
      "type": "function"
    },
    {
      "inputs": [],
      "name": "renounceOwnership",
      "outputs": [],
      "stateMutability": "nonpayable",
      "type": "function"
    },
    {
      "inputs": [],
      "name": "requestRandomNumber",
      "outputs": [
        {
          "internalType": "bytes32",
          "name": "requestId",
          "type": "bytes32"
        }
      ],
      "stateMutability": "nonpayable",
      "type": "function"
    },
    {
      "inputs": [
        {
          "internalType": "uint256",
          "name": "",
          "type": "uint256"
        }
      ],
      "name": "rounds",
      "outputs": [
        {
          "internalType": "uint256",
          "name": "id",
          "type": "uint256"
        },
        {
          "internalType": "uint256",
          "name": "randomNum",
          "type": "uint256"
        },
        {
          "internalType": "uint256",
          "name": "randomEliminator",
          "type": "uint256"
        },
        {
          "internalType": "bytes32",
          "name": "vrfRequestId",
          "type": "bytes32"
        }
      ],
      "stateMutability": "view",
      "type": "function"
    },
    {
      "inputs": [
        {
          "internalType": "address",
          "name": "_fareTokenAddress",
          "type": "address"
        }
      ],
      "name": "setFareToken",
      "outputs": [],
      "stateMutability": "nonpayable",
      "type": "function"
    },
    {
      "inputs": [
        {
          "internalType": "uint256",
          "name": "gameModeId",
          "type": "uint256"
        },
        {
          "internalType": "uint256",
          "name": "_gameEdgeFloor",
          "type": "uint256"
        }
      ],
      "name": "setGameEdgeFloor",
      "outputs": [],
      "stateMutability": "nonpayable",
      "type": "function"
    },
    {
      "inputs": [
        {
          "internalType": "uint256",
          "name": "cardinality",
          "type": "uint256"
        },
        {
          "internalType": "uint256",
          "name": "gameEdgeFloor",
          "type": "uint256"
        },
        {
          "internalType": "uint256",
          "name": "mintMultiplier",
          "type": "uint256"
        },
        {
          "internalType": "uint256",
          "name": "minAmount",
          "type": "uint256"
        },
        {
          "internalType": "uint256",
          "name": "maxAmount",
          "type": "uint256"
        },
        {
          "internalType": "uint256",
          "name": "entryLimit",
          "type": "uint256"
        }
      ],
      "name": "setGameMode",
      "outputs": [],
      "stateMutability": "nonpayable",
      "type": "function"
    },
    {
      "inputs": [
        {
          "internalType": "uint256",
          "name": "gameModeId",
          "type": "uint256"
        },
        {
          "internalType": "uint256",
          "name": "entryLimit",
          "type": "uint256"
        }
      ],
      "name": "setGameModeEntryLimit",
      "outputs": [],
      "stateMutability": "nonpayable",
      "type": "function"
    },
    {
      "inputs": [
        {
          "internalType": "uint256",
          "name": "gameModeId",
          "type": "uint256"
        },
        {
          "internalType": "bool",
          "name": "isActive",
          "type": "bool"
        }
      ],
      "name": "setGameModeIsActive",
      "outputs": [],
      "stateMutability": "nonpayable",
      "type": "function"
    },
    {
      "inputs": [
        {
          "internalType": "uint256",
          "name": "gameModeId",
          "type": "uint256"
        },
        {
          "internalType": "uint256",
          "name": "minAmount",
          "type": "uint256"
        },
        {
          "internalType": "uint256",
          "name": "maxAmount",
          "type": "uint256"
        }
      ],
      "name": "setGameModeMinMax",
      "outputs": [],
      "stateMutability": "nonpayable",
      "type": "function"
    },
    {
      "inputs": [
        {
          "internalType": "address",
          "name": "_treasuryAddress",
          "type": "address"
        }
      ],
      "name": "setTreasuryAddress",
      "outputs": [],
      "stateMutability": "nonpayable",
      "type": "function"
    },
    {
      "inputs": [
        {
          "internalType": "uint256",
          "name": "percent",
          "type": "uint256"
        }
      ],
      "name": "setTreasuryMint",
      "outputs": [],
      "stateMutability": "nonpayable",
      "type": "function"
    },
    {
      "inputs": [
        {
          "internalType": "uint256",
          "name": "roundId",
          "type": "uint256"
        },
        {
          "internalType": "uint256",
          "name": "batchId",
          "type": "uint256"
        }
      ],
      "name": "settleBatchEntry",
      "outputs": [],
      "stateMutability": "nonpayable",
      "type": "function"
    },
    {
      "inputs": [
        {
          "internalType": "bytes32",
          "name": "vrfRequestId",
          "type": "bytes32"
        },
        {
          "internalType": "uint256",
          "name": "randomness",
          "type": "uint256"
        }
      ],
      "name": "testFulfillRandomness",
      "outputs": [],
      "stateMutability": "nonpayable",
      "type": "function"
    },
    {
      "inputs": [
        {
          "internalType": "address",
          "name": "newOwner",
          "type": "address"
        }
      ],
      "name": "transferOwnership",
      "outputs": [],
      "stateMutability": "nonpayable",
      "type": "function"
    },
    {
      "inputs": [],
      "name": "treasuryAddress",
      "outputs": [
        {
          "internalType": "address",
          "name": "",
          "type": "address"
        }
      ],
      "stateMutability": "view",
      "type": "function"
    },
    {
      "inputs": [],
      "name": "treasuryMint",
      "outputs": [
        {
          "internalType": "uint256",
          "name": "",
          "type": "uint256"
        }
      ],
      "stateMutability": "view",
      "type": "function"
    },
    {
      "inputs": [],
      "name": "vrfCoordinator",
      "outputs": [
        {
          "internalType": "address",
          "name": "",
          "type": "address"
        }
      ],
      "stateMutability": "view",
      "type": "function"
    },
    {
      "inputs": [
        {
          "internalType": "bytes32",
          "name": "",
          "type": "bytes32"
        }
      ],
      "name": "vrfMap",
      "outputs": [
        {
          "internalType": "uint256",
          "name": "",
          "type": "uint256"
        }
      ],
      "stateMutability": "view",
      "type": "function"
    }
  ],
  "bytecode": "0x60c060405260646004553480156200001657600080fd5b506040516200283338038062002833833981016040819052620000399162000127565b60016000819055805460ff1916905584846200005533620000b0565b6001600160a01b0391821660a0528116608052600980549682166001600160a01b03199788161790556003805497821697871697909717909655600a92909255600b5560058054919094169216919091179091555062000196565b600180546001600160a01b03838116610100818102610100600160a81b031985161790945560405193909204169182907f8be0079c531659141344cd1fd0a4f28419497f9722a3daafe3b4186f6b6457e090600090a35050565b80516001600160a01b03811681146200012257600080fd5b919050565b60008060008060008060c087890312156200014157600080fd5b6200014c876200010a565b95506200015c602088016200010a565b94506200016c604088016200010a565b935060608701519250608087015191506200018a60a088016200010a565b90509295509295509295565b60805160a051612669620001ca600039600081816112a70152611fbe01526000818161119b0152611f8f01526126696000f3fe608060405234801561001057600080fd5b50600436106102055760003560e01c8063719002651161011a578063a3e56fa8116100ad578063d26efe301161007c578063d26efe301461054a578063f2fde38b1461055d578063f647ca8414610570578063fb9ea8f4146105b9578063fd41631a146105c157600080fd5b8063a3e56fa8146104f1578063bb9c256714610504578063c5f956af14610517578063d243b38e1461052a57600080fd5b80638c4d6e0f116100e95780638c4d6e0f1461043f5780638c65c81f1461045f5780638da5cb5b146104b457806394985ddd146104de57600080fd5b806371900265146103f5578063812391f01461040457806381a38061146104245780638678a7b21461043757600080fd5b806357953b041161019d578063676f8cde1161016c578063676f8cde146103745780636ec6f7fa1461037c5780636fd4b574146103aa5780637059ef2b146103da578063715018a6146103ed57600080fd5b806357953b04146102b25780635c975abb146102c557806365a744db146102d05780636605bfda1461036157600080fd5b806333ea59c7116101d957806333ea59c7146102615780633dc6579914610274578063530759e9146102875780635727e25d146102aa57600080fd5b80620322351461020a578063130a1efa14610226578063257e66c41461023b5780632731a9881461024e575b600080fd5b61021360045481565b6040519081526020015b60405180910390f35b6102396102343660046121d6565b6105d4565b005b6102396102493660046121d6565b61065c565b61023961025c3660046121f8565b610ad2565b61023961026f366004612232565b610bc0565b6102396102823660046121d6565b610c47565b61029a6102953660046121d6565b610d1c565b604051901515815260200161021d565b610213610d5a565b6102396102c0366004612262565b610d6a565b60015460ff1661029a565b6103246102de3660046122a5565b600f602052600090815260409020805460018201546002830154600384015460048501546005860154600687015460079097015495969495939492939192909160ff1688565b604080519889526020890197909752958701949094526060860192909252608085015260a084015260c0830152151560e08201526101000161021d565b61023961036f3660046122be565b610f23565b610213610f75565b61038f61038a3660046121d6565b610f80565b6040805193845260208401929092529082015260600161021d565b6103bd6103b83660046121d6565b610fc2565b60408051938452602084019290925215159082015260600161021d565b6102396103e83660046122a5565b611007565b61023961103c565b610213670de0b6b3a764000081565b6102136104123660046122a5565b6000908152600d602052604090205490565b6102396104323660046122be565b611078565b6102136110ca565b61021361044d3660046122a5565b6000908152600e602052604090205490565b61049461046d3660046122a5565b600c6020526000908152604090208054600182015460028301546003909301549192909184565b60408051948552602085019390935291830152606082015260800161021d565b60015461010090046001600160a01b03165b6040516001600160a01b03909116815260200161021d565b6102396104ec3660046121d6565b61129c565b6009546104c6906001600160a01b031681565b6102396105123660046121d6565b61131e565b6005546104c6906001600160a01b031681565b6102136105383660046122a5565b60116020526000908152604090205481565b6003546104c6906001600160a01b031681565b61023961056b3660046122be565b6113fd565b61058361057e3660046121d6565b61149e565b604080519586526001600160a01b039094166020860152911515928401929092526060830191909152608082015260a00161021d565b6102136114fa565b6102396105cf366004612357565b611505565b6000600d60006105e360065490565b81526020810191909152604001600020541161063d5760405162461bcd60e51b8152602060048201526014602482015273273790383630bcb2b9399034b7103937bab7321760611b60448201526064015b60405180910390fd5b60008281526011602052604090208190556106588282611d68565b5050565b600260005414156106af5760405162461bcd60e51b815260206004820152601f60248201527f5265656e7472616e637947756172643a207265656e7472616e742063616c6c006044820152606401610634565b600260005560015460ff16156106d75760405162461bcd60e51b81526004016106349061242b565b6000828152600d602052604081208054839081106106f7576106f7612455565b906000526020600020906004020190508060010160149054906101000a900460ff161561075e5760405162461bcd60e51b8152602060048201526015602482015274115b9d1c9e48185b1c9958591e481cd95d1d1b1959605a1b6044820152606401610634565b8261076860065490565b116107ae5760405162461bcd60e51b8152602060048201526016602482015275149bdd5b99081b9bdd081e595d081c995cdbdb1d995960521b6044820152606401610634565b80546000908152600e6020908152604080832080548251818502810185019093528083529192909190849084015b8282101561082c57838290600052602060002090600302016040518060600160405290816000820154815260200160018201548152602001600282015481525050815260200190600101906107dc565b50505050905060008060005b83518110156109e4576108688785838151811061085757610857612455565b602002602001015160200151610d1c565b8015610872575082155b1561089b57600185015461089290889088906001600160a01b0316611eb2565b600192506109d2565b6000600f60008684815181106108b3576108b3612455565b60209081029190910181015181015182528181019290925260409081016000908120825161010081018452815481526001808301548287019081526002840154838701526003840154606084015260048401546080840152600584015460a0840152600684015460c084015260079093015460ff16151560e08301528d8452600c90955292909120909201549151909250600a141561095a5761095781600a611f12565b90505b85838151811061096c5761096c612455565b6020026020010151604001518260200151826109889190612481565b14156109cf576109c282606001518785815181106109a8576109a8612455565b602002602001015160000151611f2590919063ffffffff16565b6109cc90856124ab565b93505b50505b806109dc816124c3565b915050610838565b508015610a5d576003546001850154604051632bf545c760e11b81526001600160a01b039182166004820152602481018490529116906357ea8b8e90604401600060405180830381600087803b158015610a3d57600080fd5b505af1158015610a51573d6000803e3d6000fd5b50505050600384018190555b600184018054600160a01b60ff60a01b19821617909155845460038601546040805192835290151560208301526001600160a01b0390921691879189917fe325ef3a2c26455b6af9991acf0a2f9c35c7b11ae2b205419bf3e0fa152956a6910160405180910390a45050600160005550505050565b6001546001600160a01b03610100909104163314610b025760405162461bcd60e51b8152600401610634906124de565b600082118015610b125750600081115b8015610b1d57508082115b15610b6a5760405162461bcd60e51b815260206004820181905260248201527f6d696e416d6f756e742067726561746572207468616e206d6178416d6f756e746044820152606401610634565b6007548310610b8b5760405162461bcd60e51b815260040161063490612513565b6000838152600f60205260408082206004810185905560050183905551849160008051602061261483398151915291a2505050565b6001546001600160a01b03610100909104163314610bf05760405162461bcd60e51b8152600401610634906124de565b6007548210610c115760405162461bcd60e51b815260040161063490612513565b6000828152600f6020526040808220600701805460ff191684151517905551839160008051602061261483398151915291a25050565b6001546001600160a01b03610100909104163314610c775760405162461bcd60e51b8152600401610634906124de565b6007548210610c985760405162461bcd60e51b815260040161063490612513565b670de0b6b3a76400008110610cef5760405162461bcd60e51b815260206004820152601f60248201527f466c6f6f72206d757374206265206c657373207468616e206365696c696e67006044820152606401610634565b6000828152600f602052604080822060020183905551839160008051602061261483398151915291a25050565b6000828152601060205260408120805483908110610d3c57610d3c612455565b600091825260209091206002600390920201015460ff169392505050565b6000610d6560065490565b905090565b6001546001600160a01b03610100909104163314610d9a5760405162461bcd60e51b8152600401610634906124de565b85811115610df65760405162461bcd60e51b815260206004820152602360248201527f656e7472794c696d69742067726561746572207468616e2063617264696e616c60448201526269747960e81b6064820152608401610634565b600083118015610e065750600082115b8015610e1157508183115b15610e5e5760405162461bcd60e51b815260206004820181905260248201527f6d696e416d6f756e742067726561746572207468616e206d6178416d6f756e746044820152606401610634565b6000610e6960075490565b604080516101008101825282815260208082018b81528284018b8152606084018b8152608085018b815260a086018b815260c087018b8152600160e0890181815260008c8152600f9099529990972097518855945187870155925160028701559051600386015551600485015551600584015551600683015591516007918201805460ff1916911515919091179055805490910190559050604051819060008051602061261483398151915290600090a250505050505050565b6001546001600160a01b03610100909104163314610f535760405162461bcd60e51b8152600401610634906124de565b600580546001600160a01b0319166001600160a01b0392909216919091179055565b6000610d6560075490565b600e6020528160005260406000208181548110610f9c57600080fd5b600091825260209091206003909102018054600182015460029092015490935090915083565b60106020528160005260406000208181548110610fde57600080fd5b600091825260209091206003909102018054600182015460029092015490935090915060ff1683565b6001546001600160a01b036101009091041633146110375760405162461bcd60e51b8152600401610634906124de565b600455565b6001546001600160a01b0361010090910416331461106c5760405162461bcd60e51b8152600401610634906124de565b6110766000611f31565b565b6001546001600160a01b036101009091041633146110a85760405162461bcd60e51b8152600401610634906124de565b600380546001600160a01b0319166001600160a01b0392909216919091179055565b6001546000906001600160a01b036101009091041633146110fd5760405162461bcd60e51b8152600401610634906124de565b60015460ff16156111205760405162461bcd60e51b81526004016106349061242b565b6000600d600061112f60065490565b8152602081019190915260400160002054116111835760405162461bcd60e51b8152602060048201526013602482015272139bc8195b9d1c9a595cc81a5b881c9bdd5b99606a1b6044820152606401610634565b600b546040516370a0823160e01b81523060048201527f00000000000000000000000000000000000000000000000000000000000000006001600160a01b0316906370a082319060240160206040518083038186803b1580156111e557600080fd5b505afa1580156111f9573d6000803e3d6000fd5b505050506040513d601f19601f8201168201806040525081019061121d919061253e565b101561125d5760405162461bcd60e51b815260206004820152600f60248201526e4e6f7420656e6f756768204c494e4b60881b6044820152606401610634565b61126b600a54600b54611f8b565b60405190915081907f1f528edfe7e851f18127c23c0853d428822bcefe59219e6afb0c6f25ffe9d51090600090a290565b336001600160a01b037f000000000000000000000000000000000000000000000000000000000000000016146113145760405162461bcd60e51b815260206004820152601f60248201527f4f6e6c7920565246436f6f7264696e61746f722063616e2066756c66696c6c006044820152606401610634565b61065882826105d4565b6001546001600160a01b0361010090910416331461134e5760405162461bcd60e51b8152600401610634906124de565b600754821061136f5760405162461bcd60e51b815260040161063490612513565b6000828152600f60205260409020600101548111156113d05760405162461bcd60e51b815260206004820152601860248201527f656e7472794c696d6974203e2063617264696e616c69747900000000000000006044820152606401610634565b6000828152600f602052604080822060060183905551839160008051602061261483398151915291a25050565b6001546001600160a01b0361010090910416331461142d5760405162461bcd60e51b8152600401610634906124de565b6001600160a01b0381166114925760405162461bcd60e51b815260206004820152602660248201527f4f776e61626c653a206e6577206f776e657220697320746865207a65726f206160448201526564647265737360d01b6064820152608401610634565b61149b81611f31565b50565b600d60205281600052604060002081815481106114ba57600080fd5b600091825260209091206004909102018054600182015460028301546003909301549194506001600160a01b0381169350600160a01b900460ff16919085565b6000610d6560085490565b600260005414156115585760405162461bcd60e51b815260206004820152601f60248201527f5265656e7472616e637947756172643a207265656e7472616e742063616c6c006044820152606401610634565b600260005560015460ff16156115805760405162461bcd60e51b81526004016106349061242b565b600061158b60075490565b8251909150600061159b60065490565b905060006115a860085490565b6000838152600d6020526040812054919250808667ffffffffffffffff8111156115d4576115d46122e7565b6040519080825280602002602001820160405280156115fd578160200160208202803683370190505b50905060008767ffffffffffffffff81111561161b5761161b6122e7565b604051908082528060200260200182016040528015611644578160200160208202803683370190505b50905060005b87811015611ace576007548a828151811061166757611667612455565b602002602001015160200151106116905760405162461bcd60e51b815260040161063490612513565b6000600f60008c84815181106116a8576116a8612455565b602002602001015160200151815260200190815260200160002060405180610100016040529081600082015481526020016001820154815260200160028201548152602001600382015481526020016004820154815260200160058201548152602001600682015481526020016007820160009054906101000a900460ff16151515158152505090508a828151811061174357611743612455565b602002602001015160000151600014156117975760405162461bcd60e51b8152602060048201526015602482015274416d6f756e742063616e6e6f74206265207a65726f60581b6044820152606401610634565b8060e001516117e85760405162461bcd60e51b815260206004820152601760248201527f47616d65206d6f6465206973206e6f74206163746976650000000000000000006044820152606401610634565b80602001518b83815181106117ff576117ff612455565b602002602001015160400151106118505760405162461bcd60e51b815260206004820152601560248201527424b73b30b634b2103834b1b5b2b210373ab6b132b960591b6044820152606401610634565b60a081015115611939576118a78b838151811061186f5761186f612455565b6020026020010151600001518483600001518151811061189157611891612455565b602002602001015161211e90919063ffffffff16565b838260000151815181106118bd576118bd612455565b6020026020010181815250508060a00151838260000151815181106118e4576118e4612455565b6020026020010151106119395760405162461bcd60e51b815260206004820152601d60248201527f47616d65206d6f6465206d617820616d6f756e742065786365656465640000006044820152606401610634565b61195460018583600001518151811061189157611891612455565b8482600001518151811061196a5761196a612455565b6020026020010181815250508060c001518482600001518151811061199157611991612455565b602002602001015111156119e75760405162461bcd60e51b815260206004820152601e60248201527f47616d65206d6f646520656e747279206c696d697420657863656564656400006044820152606401610634565b611a178b83815181106119fc576119fc612455565b6020026020010151600001518661211e90919063ffffffff16565b9450600e600088815260200190815260200160002060405180606001604052808d8581518110611a4957611a49612455565b6020026020010151600001518152602001836000015181526020018d8581518110611a7657611a76612455565b6020908102919091018101516040908101519092528354600181810186556000958652948290208451600390920201908155908301519381019390935501516002909101555080611ac6816124c3565b91505061164a565b5060005b88811015611b84576000818152600f602052604090206004015415801590611b2557506000818152600f60205260409020600401548251839083908110611b1b57611b1b612455565b6020026020010151105b15611b725760405162461bcd60e51b815260206004820152601c60248201527f47616d65206d6f6465206d696e20616d6f756e74206e6f74206d6574000000006044820152606401610634565b80611b7c816124c3565b915050611ad2565b506000868152600d60209081526040808320815160a08101835289815233818501818152828501878152606084018b815260808501898152865460018181018955978b5298909920945160049889029095019485559151948401805491511515600160a01b026001600160a81b03199092166001600160a01b039687161791909117905551600283015594516003918201555491516303fc91f360e51b8152911692637f923e6092611c4c928891016001600160a01b03929092168252602082015260400190565b600060405180830381600087803b158015611c6657600080fd5b505af1158015611c7a573d6000803e3d6000fd5b50506003546005546004546001600160a01b0392831694506357ea8b8e9350911690611ca7908790611f12565b6040516001600160e01b031960e085901b1681526001600160a01b0390921660048301526024820152604401600060405180830381600087803b158015611ced57600080fd5b505af1158015611d01573d6000803e3d6000fd5b50505050611d13600880546001019055565b336001600160a01b031684877f62ade019eb1dc6078fcf187de00a2a210308a05abdfccae36bc47769c21bce1888604051611d5091815260200190565b60405180910390a45050600160005550505050505050565b6000611d7360065490565b905060006064836001604051602001611d9992919091825260ff16602082015260400190565b6040516020818303038152906040528051906020012060001c611dbc9190612481565b90506000670de0b6b3a7640000846002604051602001611de992919091825260ff16602082015260400190565b6040516020818303038152906040528051906020012060001c611e0c9190612481565b604080516080810182528581526020808201868152828401858152606084018b815260008a8152600c909452949092209251835551600183015551600282015590516003909101559050611e60818461212a565b611e6e600680546001019055565b6040805183815260208101839052869185917fafc2f66946790fcb766262ddc355d72764bd78a061f283ff3b754ca9ff8ca48d910160405180910390a35050505050565b60015460ff1615611ed55760405162461bcd60e51b81526004016106349061242b565b806001600160a01b031682847fcda4c190b089d533a03b1d151cb11df76a10885da5484e53706ea7a3e550671f60405160405180910390a4505050565b6000611f1e8284612557565b9392505050565b6000611f1e828461256b565b600180546001600160a01b03838116610100818102610100600160a81b031985161790945560405193909204169182907f8be0079c531659141344cd1fd0a4f28419497f9722a3daafe3b4186f6b6457e090600090a35050565b60007f00000000000000000000000000000000000000000000000000000000000000006001600160a01b0316634000aea07f000000000000000000000000000000000000000000000000000000000000000084866000604051602001611ffb929190918252602082015260400190565b6040516020818303038152906040526040518463ffffffff1660e01b81526004016120289392919061258a565b602060405180830381600087803b15801561204257600080fd5b505af1158015612056573d6000803e3d6000fd5b505050506040513d601f19601f8201168201806040525081019061207a91906125f6565b50600083815260026020818152604080842054815180840189905280830186905230606082015260808082018390528351808303909101815260a0909101909252815191830191909120938790529190526120d69060016124ab565b6000858152600260205260409020556121168482604080516020808201949094528082019290925280518083038201815260609092019052805191012090565b949350505050565b6000611f1e82846124ab565b600061213560075490565b905060005b818110156121c75760008381526010602090815260408083208151606081018352858152858552600f8085528386206002908101548387018181529287528b101594830194855283546001808201865594885295909620915160039095029091019384555190830155519101805460ff1916911515919091179055806121bf816124c3565b91505061213a565b50506000805250506010602052565b600080604083850312156121e957600080fd5b50508035926020909101359150565b60008060006060848603121561220d57600080fd5b505081359360208301359350604090920135919050565b801515811461149b57600080fd5b6000806040838503121561224557600080fd5b82359150602083013561225781612224565b809150509250929050565b60008060008060008060c0878903121561227b57600080fd5b505084359660208601359650604086013595606081013595506080810135945060a0013592509050565b6000602082840312156122b757600080fd5b5035919050565b6000602082840312156122d057600080fd5b81356001600160a01b0381168114611f1e57600080fd5b634e487b7160e01b600052604160045260246000fd5b6040516060810167ffffffffffffffff81118282101715612320576123206122e7565b60405290565b604051601f8201601f1916810167ffffffffffffffff8111828210171561234f5761234f6122e7565b604052919050565b6000602080838503121561236a57600080fd5b823567ffffffffffffffff8082111561238257600080fd5b818501915085601f83011261239657600080fd5b8135818111156123a8576123a86122e7565b6123b6848260051b01612326565b818152848101925060609182028401850191888311156123d557600080fd5b938501935b8285101561241f5780858a0312156123f25760008081fd5b6123fa6122fd565b85358152868601358782015260408087013590820152845293840193928501926123da565b50979650505050505050565b60208082526010908201526f14185d5cd8589b194e881c185d5cd95960821b604082015260600190565b634e487b7160e01b600052603260045260246000fd5b634e487b7160e01b600052601260045260246000fd5b6000826124905761249061246b565b500690565b634e487b7160e01b600052601160045260246000fd5b600082198211156124be576124be612495565b500190565b60006000198214156124d7576124d7612495565b5060010190565b6020808252818101527f4f776e61626c653a2063616c6c6572206973206e6f7420746865206f776e6572604082015260600190565b602080825260119082015270496e76616c69642067616d65206d6f646560781b604082015260600190565b60006020828403121561255057600080fd5b5051919050565b6000826125665761256661246b565b500490565b600081600019048311821515161561258557612585612495565b500290565b60018060a01b038416815260006020848184015260606040840152835180606085015260005b818110156125cc578581018301518582016080015282016125b0565b818111156125de576000608083870101525b50601f01601f19169290920160800195945050505050565b60006020828403121561260857600080fd5b8151611f1e8161222456fe685a34499e6506a5e0db8a8c8879745e1bb42da824a1c1f22d43c4aefcfd0bb3a264697066735822122054d92a5faf1cf4c0d1760871591b0f916c52ef0e5e51397429382d5e6363c6e164736f6c63430008090033",
  "linkReferences": {},
  "deployedLinkReferences": {}
}