{
  "_format": "hh-sol-artifact-1",
  "contractName": "FareToken",
  "sourceName": "contracts/FareToken.sol",
  "abi": [
    {
      "inputs": [
        {
          "internalType": "uint256",
          "name": "_mintLimit",
          "type": "uint256"
        },
        {
          "internalType": "uint256",
          "name": "_burnLimit",
          "type": "uint256"
        }
      ],
      "stateMutability": "nonpayable",
      "type": "constructor"
    },
    {
      "anonymous": false,
      "inputs": [
        {
          "indexed": true,
          "internalType": "address",
          "name": "owner",
          "type": "address"
        },
        {
          "indexed": true,
          "internalType": "address",
          "name": "spender",
          "type": "address"
        },
        {
          "indexed": false,
          "internalType": "uint256",
          "name": "value",
          "type": "uint256"
        }
      ],
      "name": "Approval",
      "type": "event"
    },
    {
      "anonymous": false,
      "inputs": [
        {
          "indexed": true,
          "internalType": "address",
          "name": "previousOwner",
          "type": "address"
        },
        {
          "indexed": true,
          "internalType": "address",
          "name": "newOwner",
          "type": "address"
        }
      ],
      "name": "OwnershipTransferred",
      "type": "event"
    },
    {
      "anonymous": false,
      "inputs": [
        {
          "indexed": true,
          "internalType": "address",
          "name": "from",
          "type": "address"
        },
        {
          "indexed": true,
          "internalType": "address",
          "name": "to",
          "type": "address"
        },
        {
          "indexed": false,
          "internalType": "uint256",
          "name": "value",
          "type": "uint256"
        }
      ],
      "name": "Transfer",
      "type": "event"
    },
    {
      "inputs": [],
      "name": "INITIAL_SUPPLY",
      "outputs": [
        {
          "internalType": "uint256",
          "name": "",
          "type": "uint256"
        }
      ],
      "stateMutability": "view",
      "type": "function"
    },
    {
      "inputs": [
        {
          "internalType": "address",
          "name": "owner",
          "type": "address"
        },
        {
          "internalType": "address",
          "name": "spender",
          "type": "address"
        }
      ],
      "name": "allowance",
      "outputs": [
        {
          "internalType": "uint256",
          "name": "",
          "type": "uint256"
        }
      ],
      "stateMutability": "view",
      "type": "function"
    },
    {
      "inputs": [
        {
          "internalType": "address",
          "name": "spender",
          "type": "address"
        },
        {
          "internalType": "uint256",
          "name": "amount",
          "type": "uint256"
        }
      ],
      "name": "approve",
      "outputs": [
        {
          "internalType": "bool",
          "name": "",
          "type": "bool"
        }
      ],
      "stateMutability": "nonpayable",
      "type": "function"
    },
    {
      "inputs": [
        {
          "internalType": "address",
          "name": "account",
          "type": "address"
        }
      ],
      "name": "balanceOf",
      "outputs": [
        {
          "internalType": "uint256",
          "name": "",
          "type": "uint256"
        }
      ],
      "stateMutability": "view",
      "type": "function"
    },
    {
      "inputs": [
        {
          "internalType": "address",
          "name": "player",
          "type": "address"
        },
        {
          "internalType": "uint256",
          "name": "amount",
          "type": "uint256"
        }
      ],
      "name": "burnFare",
      "outputs": [],
      "stateMutability": "nonpayable",
      "type": "function"
    },
    {
      "inputs": [],
      "name": "burnLimit",
      "outputs": [
        {
          "internalType": "uint256",
          "name": "",
          "type": "uint256"
        }
      ],
      "stateMutability": "view",
      "type": "function"
    },
    {
      "inputs": [],
      "name": "decimals",
      "outputs": [
        {
          "internalType": "uint8",
          "name": "",
          "type": "uint8"
        }
      ],
      "stateMutability": "view",
      "type": "function"
    },
    {
      "inputs": [
        {
          "internalType": "address",
          "name": "spender",
          "type": "address"
        },
        {
          "internalType": "uint256",
          "name": "subtractedValue",
          "type": "uint256"
        }
      ],
      "name": "decreaseAllowance",
      "outputs": [
        {
          "internalType": "bool",
          "name": "",
          "type": "bool"
        }
      ],
      "stateMutability": "nonpayable",
      "type": "function"
    },
    {
      "inputs": [
        {
          "internalType": "address",
          "name": "",
          "type": "address"
        }
      ],
      "name": "gameWhitelist",
      "outputs": [
        {
          "internalType": "bool",
          "name": "",
          "type": "bool"
        }
      ],
      "stateMutability": "view",
      "type": "function"
    },
    {
      "inputs": [
        {
          "internalType": "address",
          "name": "spender",
          "type": "address"
        },
        {
          "internalType": "uint256",
          "name": "addedValue",
          "type": "uint256"
        }
      ],
      "name": "increaseAllowance",
      "outputs": [
        {
          "internalType": "bool",
          "name": "",
          "type": "bool"
        }
      ],
      "stateMutability": "nonpayable",
      "type": "function"
    },
    {
      "inputs": [
        {
          "internalType": "address",
          "name": "player",
          "type": "address"
        },
        {
          "internalType": "uint256",
          "name": "amount",
          "type": "uint256"
        }
      ],
      "name": "mintFare",
      "outputs": [],
      "stateMutability": "nonpayable",
      "type": "function"
    },
    {
      "inputs": [],
      "name": "mintLimit",
      "outputs": [
        {
          "internalType": "uint256",
          "name": "",
          "type": "uint256"
        }
      ],
      "stateMutability": "view",
      "type": "function"
    },
    {
      "inputs": [],
      "name": "name",
      "outputs": [
        {
          "internalType": "string",
          "name": "",
          "type": "string"
        }
      ],
      "stateMutability": "view",
      "type": "function"
    },
    {
      "inputs": [],
      "name": "owner",
      "outputs": [
        {
          "internalType": "address",
          "name": "",
          "type": "address"
        }
      ],
      "stateMutability": "view",
      "type": "function"
    },
    {
      "inputs": [],
      "name": "renounceOwnership",
      "outputs": [],
      "stateMutability": "nonpayable",
      "type": "function"
    },
    {
      "inputs": [
        {
          "internalType": "uint256",
          "name": "_burnLimit",
          "type": "uint256"
        }
      ],
      "name": "setBurnLimit",
      "outputs": [],
      "stateMutability": "nonpayable",
      "type": "function"
    },
    {
      "inputs": [
        {
          "internalType": "uint256",
          "name": "_mintLimit",
          "type": "uint256"
        }
      ],
      "name": "setMintLimit",
      "outputs": [],
      "stateMutability": "nonpayable",
      "type": "function"
    },
    {
      "inputs": [
        {
          "internalType": "address",
          "name": "gameAddress",
          "type": "address"
        },
        {
          "internalType": "bool",
          "name": "isActive",
          "type": "bool"
        }
      ],
      "name": "setWhitelistAddress",
      "outputs": [],
      "stateMutability": "nonpayable",
      "type": "function"
    },
    {
      "inputs": [],
      "name": "symbol",
      "outputs": [
        {
          "internalType": "string",
          "name": "",
          "type": "string"
        }
      ],
      "stateMutability": "view",
      "type": "function"
    },
    {
      "inputs": [],
      "name": "totalSupply",
      "outputs": [
        {
          "internalType": "uint256",
          "name": "",
          "type": "uint256"
        }
      ],
      "stateMutability": "view",
      "type": "function"
    },
    {
      "inputs": [
        {
          "internalType": "address",
          "name": "to",
          "type": "address"
        },
        {
          "internalType": "uint256",
          "name": "amount",
          "type": "uint256"
        }
      ],
      "name": "transfer",
      "outputs": [
        {
          "internalType": "bool",
          "name": "",
          "type": "bool"
        }
      ],
      "stateMutability": "nonpayable",
      "type": "function"
    },
    {
      "inputs": [
        {
          "internalType": "address",
          "name": "from",
          "type": "address"
        },
        {
          "internalType": "address",
          "name": "to",
          "type": "address"
        },
        {
          "internalType": "uint256",
          "name": "amount",
          "type": "uint256"
        }
      ],
      "name": "transferFrom",
      "outputs": [
        {
          "internalType": "bool",
          "name": "",
          "type": "bool"
        }
      ],
      "stateMutability": "nonpayable",
      "type": "function"
    },
    {
      "inputs": [
        {
          "internalType": "address",
          "name": "newOwner",
          "type": "address"
        }
      ],
      "name": "transferOwnership",
      "outputs": [],
      "stateMutability": "nonpayable",
      "type": "function"
    }
  ],
  "bytecode": "0x6080604052600060065560006007553480156200001b57600080fd5b50604051620013c3380380620013c38339810160408190526200003e91620002d0565b604080518082018252600d81526c11985c9948141c9bdd1bd8dbdb609a1b6020808301918252835180850190945260048452634641524560e01b9084015281519192916200008f916003916200022a565b508051620000a59060049060208401906200022a565b505050620000c2620000bc620000ec60201b60201c565b620000f0565b60068290556007819055620000e4336ba18f07d736b90be55000000062000142565b505062000359565b3390565b600580546001600160a01b038381166001600160a01b0319831681179093556040519116919082907f8be0079c531659141344cd1fd0a4f28419497f9722a3daafe3b4186f6b6457e090600090a35050565b6001600160a01b0382166200019d5760405162461bcd60e51b815260206004820152601f60248201527f45524332303a206d696e7420746f20746865207a65726f206164647265737300604482015260640160405180910390fd5b8060026000828254620001b19190620002f5565b90915550506001600160a01b03821660009081526020819052604081208054839290620001e0908490620002f5565b90915550506040518181526001600160a01b038316906000907fddf252ad1be2c89b69c2b068fc378daa952ba7f163c4a11628f55a4df523b3ef9060200160405180910390a35050565b82805462000238906200031c565b90600052602060002090601f0160209004810192826200025c5760008555620002a7565b82601f106200027757805160ff1916838001178555620002a7565b82800160010185558215620002a7579182015b82811115620002a75782518255916020019190600101906200028a565b50620002b5929150620002b9565b5090565b5b80821115620002b55760008155600101620002ba565b60008060408385031215620002e457600080fd5b505080516020909101519092909150565b600082198211156200031757634e487b7160e01b600052601160045260246000fd5b500190565b600181811c908216806200033157607f821691505b602082108114156200035357634e487b7160e01b600052602260045260246000fd5b50919050565b61105a80620003696000396000f3fe608060405234801561001057600080fd5b506004361061014d5760003560e01c806357ea8b8e116100c3578063996517cf1161007c578063996517cf146102bb5780639e6a1d7d146102c4578063a457c2d7146102d7578063a9059cbb146102ea578063dd62ed3e146102fd578063f2fde38b1461033657600080fd5b806357ea8b8e1461024157806370a0823114610254578063715018a61461027d5780637f923e60146102855780638da5cb5b1461029857806395d89b41146102b357600080fd5b80632ff2e9dc116101155780632ff2e9dc146101c1578063313ce567146101d457806339509351146101e35780633f914aef146101f65780634f4056161461020b57806351769d291461022e57600080fd5b806306fdde0314610152578063095ea7b31461017057806318160ddd1461019357806323b872dd146101a55780632a9c72c8146101b8575b600080fd5b61015a610349565b6040516101679190610dee565b60405180910390f35b61018361017e366004610e5f565b6103db565b6040519015158152602001610167565b6002545b604051908152602001610167565b6101836101b3366004610e89565b6103f3565b61019760075481565b6101976ba18f07d736b90be55000000081565b60405160128152602001610167565b6101836101f1366004610e5f565b610417565b610209610204366004610ec5565b610456565b005b610183610219366004610f01565b60086020526000908152604090205460ff1681565b61020961023c366004610f23565b6104b4565b61020961024f366004610e5f565b6104e3565b610197610262366004610f01565b6001600160a01b031660009081526020819052604090205490565b610209610595565b610209610293366004610e5f565b6105cb565b6005546040516001600160a01b039091168152602001610167565b61015a610679565b61019760065481565b6102096102d2366004610f23565b610688565b6101836102e5366004610e5f565b6106b7565b6101836102f8366004610e5f565b610749565b61019761030b366004610f3c565b6001600160a01b03918216600090815260016020908152604080832093909416825291909152205490565b610209610344366004610f01565b610757565b60606003805461035890610f6f565b80601f016020809104026020016040519081016040528092919081815260200182805461038490610f6f565b80156103d15780601f106103a6576101008083540402835291602001916103d1565b820191906000526020600020905b8154815290600101906020018083116103b457829003601f168201915b5050505050905090565b6000336103e98185856107f2565b5060019392505050565b600033610401858285610917565b61040c8585856109a9565b506001949350505050565b3360008181526001602090815260408083206001600160a01b03871684529091528120549091906103e99082908690610451908790610fc0565b6107f2565b6005546001600160a01b031633146104895760405162461bcd60e51b815260040161048090610fd8565b60405180910390fd5b6001600160a01b03919091166000908152600860205260409020805460ff1916911515919091179055565b6005546001600160a01b031633146104de5760405162461bcd60e51b815260040161048090610fd8565b600755565b3360009081526008602052604090205460ff166105355760405162461bcd60e51b815260206004820152601060248201526f139bdd081bdb881dda1a5d195b1a5cdd60821b6044820152606401610480565b6006548111156105875760405162461bcd60e51b815260206004820152601960248201527f416d6f756e742065786365656473206d696e74206c696d6974000000000000006044820152606401610480565b6105918282610b77565b5050565b6005546001600160a01b031633146105bf5760405162461bcd60e51b815260040161048090610fd8565b6105c96000610c56565b565b3360009081526008602052604090205460ff1661061d5760405162461bcd60e51b815260206004820152601060248201526f139bdd081bdb881dda1a5d195b1a5cdd60821b6044820152606401610480565b60075481111561066f5760405162461bcd60e51b815260206004820152601960248201527f416d6f756e742065786365656473206275726e206c696d6974000000000000006044820152606401610480565b6105918282610ca8565b60606004805461035890610f6f565b6005546001600160a01b031633146106b25760405162461bcd60e51b815260040161048090610fd8565b600655565b3360008181526001602090815260408083206001600160a01b03871684529091528120549091908381101561073c5760405162461bcd60e51b815260206004820152602560248201527f45524332303a2064656372656173656420616c6c6f77616e63652062656c6f77604482015264207a65726f60d81b6064820152608401610480565b61040c82868684036107f2565b6000336103e98185856109a9565b6005546001600160a01b031633146107815760405162461bcd60e51b815260040161048090610fd8565b6001600160a01b0381166107e65760405162461bcd60e51b815260206004820152602660248201527f4f776e61626c653a206e6577206f776e657220697320746865207a65726f206160448201526564647265737360d01b6064820152608401610480565b6107ef81610c56565b50565b6001600160a01b0383166108545760405162461bcd60e51b8152602060048201526024808201527f45524332303a20617070726f76652066726f6d20746865207a65726f206164646044820152637265737360e01b6064820152608401610480565b6001600160a01b0382166108b55760405162461bcd60e51b815260206004820152602260248201527f45524332303a20617070726f766520746f20746865207a65726f206164647265604482015261737360f01b6064820152608401610480565b6001600160a01b0383811660008181526001602090815260408083209487168084529482529182902085905590518481527f8c5be1e5ebec7d5bd14f71427d1e84f3dd0314c0f7b2291e5b200ac8c7c3b92591015b60405180910390a3505050565b6001600160a01b0383811660009081526001602090815260408083209386168352929052205460001981146109a357818110156109965760405162461bcd60e51b815260206004820152601d60248201527f45524332303a20696e73756666696369656e7420616c6c6f77616e63650000006044820152606401610480565b6109a384848484036107f2565b50505050565b6001600160a01b038316610a0d5760405162461bcd60e51b815260206004820152602560248201527f45524332303a207472616e736665722066726f6d20746865207a65726f206164604482015264647265737360d81b6064820152608401610480565b6001600160a01b038216610a6f5760405162461bcd60e51b815260206004820152602360248201527f45524332303a207472616e7366657220746f20746865207a65726f206164647260448201526265737360e81b6064820152608401610480565b6001600160a01b03831660009081526020819052604090205481811015610ae75760405162461bcd60e51b815260206004820152602660248201527f45524332303a207472616e7366657220616d6f756e7420657863656564732062604482015265616c616e636560d01b6064820152608401610480565b6001600160a01b03808516600090815260208190526040808220858503905591851681529081208054849290610b1e908490610fc0565b92505081905550826001600160a01b0316846001600160a01b03167fddf252ad1be2c89b69c2b068fc378daa952ba7f163c4a11628f55a4df523b3ef84604051610b6a91815260200190565b60405180910390a36109a3565b6001600160a01b038216610bcd5760405162461bcd60e51b815260206004820152601f60248201527f45524332303a206d696e7420746f20746865207a65726f2061646472657373006044820152606401610480565b8060026000828254610bdf9190610fc0565b90915550506001600160a01b03821660009081526020819052604081208054839290610c0c908490610fc0565b90915550506040518181526001600160a01b038316906000907fddf252ad1be2c89b69c2b068fc378daa952ba7f163c4a11628f55a4df523b3ef9060200160405180910390a35050565b600580546001600160a01b038381166001600160a01b0319831681179093556040519116919082907f8be0079c531659141344cd1fd0a4f28419497f9722a3daafe3b4186f6b6457e090600090a35050565b6001600160a01b038216610d085760405162461bcd60e51b815260206004820152602160248201527f45524332303a206275726e2066726f6d20746865207a65726f206164647265736044820152607360f81b6064820152608401610480565b6001600160a01b03821660009081526020819052604090205481811015610d7c5760405162461bcd60e51b815260206004820152602260248201527f45524332303a206275726e20616d6f756e7420657863656564732062616c616e604482015261636560f01b6064820152608401610480565b6001600160a01b0383166000908152602081905260408120838303905560028054849290610dab90849061100d565b90915550506040518281526000906001600160a01b038516907fddf252ad1be2c89b69c2b068fc378daa952ba7f163c4a11628f55a4df523b3ef9060200161090a565b600060208083528351808285015260005b81811015610e1b57858101830151858201604001528201610dff565b81811115610e2d576000604083870101525b50601f01601f1916929092016040019392505050565b80356001600160a01b0381168114610e5a57600080fd5b919050565b60008060408385031215610e7257600080fd5b610e7b83610e43565b946020939093013593505050565b600080600060608486031215610e9e57600080fd5b610ea784610e43565b9250610eb560208501610e43565b9150604084013590509250925092565b60008060408385031215610ed857600080fd5b610ee183610e43565b915060208301358015158114610ef657600080fd5b809150509250929050565b600060208284031215610f1357600080fd5b610f1c82610e43565b9392505050565b600060208284031215610f3557600080fd5b5035919050565b60008060408385031215610f4f57600080fd5b610f5883610e43565b9150610f6660208401610e43565b90509250929050565b600181811c90821680610f8357607f821691505b60208210811415610fa457634e487b7160e01b600052602260045260246000fd5b50919050565b634e487b7160e01b600052601160045260246000fd5b60008219821115610fd357610fd3610faa565b500190565b6020808252818101527f4f776e61626c653a2063616c6c6572206973206e6f7420746865206f776e6572604082015260600190565b60008282101561101f5761101f610faa565b50039056fea2646970667358221220a2a83c70d2ea733d4b1968c19d1ffb396b0fe8e36dc2dd0828e6d8fb6c3edc3464736f6c63430008090033",
  "linkReferences": {},
  "deployedLinkReferences": {}
}