{
  "_format": "hh-sol-artifact-1",
  "contractName": "PearToken",
  "sourceName": "contracts/PearToken.sol",
  "abi": [
    {
      "inputs": [],
      "stateMutability": "nonpayable",
      "type": "constructor"
    },
    {
      "anonymous": false,
      "inputs": [
        {
          "indexed": true,
          "internalType": "address",
          "name": "owner",
          "type": "address"
        },
        {
          "indexed": true,
          "internalType": "address",
          "name": "spender",
          "type": "address"
        },
        {
          "indexed": false,
          "internalType": "uint256",
          "name": "value",
          "type": "uint256"
        }
      ],
      "name": "Approval",
      "type": "event"
    },
    {
      "anonymous": false,
      "inputs": [
        {
          "indexed": true,
          "internalType": "address",
          "name": "previousOwner",
          "type": "address"
        },
        {
          "indexed": true,
          "internalType": "address",
          "name": "newOwner",
          "type": "address"
        }
      ],
      "name": "OwnershipTransferred",
      "type": "event"
    },
    {
      "anonymous": false,
      "inputs": [
        {
          "indexed": true,
          "internalType": "address",
          "name": "playerAddress",
          "type": "address"
        },
        {
          "indexed": false,
          "internalType": "uint256",
          "name": "amount",
          "type": "uint256"
        }
      ],
      "name": "PearDeposited",
      "type": "event"
    },
    {
      "anonymous": false,
      "inputs": [
        {
          "indexed": true,
          "internalType": "address",
          "name": "playerAddress",
          "type": "address"
        },
        {
          "indexed": false,
          "internalType": "uint256",
          "name": "amount",
          "type": "uint256"
        }
      ],
      "name": "PlayerWithdrawal",
      "type": "event"
    },
    {
      "anonymous": false,
      "inputs": [
        {
          "indexed": true,
          "internalType": "address",
          "name": "playerAddress",
          "type": "address"
        },
        {
          "indexed": false,
          "internalType": "uint256",
          "name": "amount",
          "type": "uint256"
        },
        {
          "indexed": false,
          "internalType": "enum PearToken.WithdrawTo",
          "name": "to",
          "type": "uint8"
        }
      ],
      "name": "PrizeClaimed",
      "type": "event"
    },
    {
      "anonymous": false,
      "inputs": [
        {
          "indexed": true,
          "internalType": "address",
          "name": "from",
          "type": "address"
        },
        {
          "indexed": true,
          "internalType": "address",
          "name": "to",
          "type": "address"
        },
        {
          "indexed": false,
          "internalType": "uint256",
          "name": "value",
          "type": "uint256"
        }
      ],
      "name": "Transfer",
      "type": "event"
    },
    {
      "inputs": [],
      "name": "INITIAL_SUPPLY",
      "outputs": [
        {
          "internalType": "uint256",
          "name": "",
          "type": "uint256"
        }
      ],
      "stateMutability": "view",
      "type": "function"
    },
    {
      "inputs": [
        {
          "internalType": "address",
          "name": "player",
          "type": "address"
        },
        {
          "internalType": "uint256",
          "name": "entryAmount",
          "type": "uint256"
        }
      ],
      "name": "addEntryQueueBalance",
      "outputs": [],
      "stateMutability": "nonpayable",
      "type": "function"
    },
    {
      "inputs": [
        {
          "internalType": "address",
          "name": "owner",
          "type": "address"
        },
        {
          "internalType": "address",
          "name": "spender",
          "type": "address"
        }
      ],
      "name": "allowance",
      "outputs": [
        {
          "internalType": "uint256",
          "name": "",
          "type": "uint256"
        }
      ],
      "stateMutability": "view",
      "type": "function"
    },
    {
      "inputs": [
        {
          "internalType": "address",
          "name": "spender",
          "type": "address"
        },
        {
          "internalType": "uint256",
          "name": "amount",
          "type": "uint256"
        }
      ],
      "name": "approve",
      "outputs": [
        {
          "internalType": "bool",
          "name": "",
          "type": "bool"
        }
      ],
      "stateMutability": "nonpayable",
      "type": "function"
    },
    {
      "inputs": [
        {
          "internalType": "address",
          "name": "account",
          "type": "address"
        }
      ],
      "name": "balanceOf",
      "outputs": [
        {
          "internalType": "uint256",
          "name": "",
          "type": "uint256"
        }
      ],
      "stateMutability": "view",
      "type": "function"
    },
    {
      "inputs": [
        {
          "internalType": "uint256",
          "name": "deltaAmount",
          "type": "uint256"
        },
        {
          "internalType": "bool",
          "name": "isMint",
          "type": "bool"
        },
        {
          "internalType": "uint256",
          "name": "rakeAmount",
          "type": "uint256"
        },
        {
          "components": [
            {
              "internalType": "address",
              "name": "player",
              "type": "address"
            },
            {
              "internalType": "uint256",
              "name": "winAmount",
              "type": "uint256"
            },
            {
              "internalType": "uint256",
              "name": "entryAmount",
              "type": "uint256"
            }
          ],
          "internalType": "struct PearToken.PlayerSettle[]",
          "name": "settlements",
          "type": "tuple[]"
        }
      ],
      "name": "batchUpdatePlayerEntries",
      "outputs": [],
      "stateMutability": "nonpayable",
      "type": "function"
    },
    {
      "inputs": [
        {
          "internalType": "enum PearToken.WithdrawTo",
          "name": "to",
          "type": "uint8"
        }
      ],
      "name": "claimPrize",
      "outputs": [],
      "stateMutability": "nonpayable",
      "type": "function"
    },
    {
      "inputs": [],
      "name": "decimals",
      "outputs": [
        {
          "internalType": "uint8",
          "name": "",
          "type": "uint8"
        }
      ],
      "stateMutability": "view",
      "type": "function"
    },
    {
      "inputs": [
        {
          "internalType": "address",
          "name": "spender",
          "type": "address"
        },
        {
          "internalType": "uint256",
          "name": "subtractedValue",
          "type": "uint256"
        }
      ],
      "name": "decreaseAllowance",
      "outputs": [
        {
          "internalType": "bool",
          "name": "",
          "type": "bool"
        }
      ],
      "stateMutability": "nonpayable",
      "type": "function"
    },
    {
      "inputs": [
        {
          "internalType": "uint256",
          "name": "depositAmount",
          "type": "uint256"
        }
      ],
      "name": "depositIntoEscrow",
      "outputs": [],
      "stateMutability": "nonpayable",
      "type": "function"
    },
    {
      "inputs": [],
      "name": "getAllClaimPlayers",
      "outputs": [
        {
          "internalType": "address[]",
          "name": "",
          "type": "address[]"
        }
      ],
      "stateMutability": "view",
      "type": "function"
    },
    {
      "inputs": [
        {
          "internalType": "address",
          "name": "player",
          "type": "address"
        }
      ],
      "name": "getClaimsPrize",
      "outputs": [
        {
          "components": [
            {
              "internalType": "uint256",
              "name": "queueAmount",
              "type": "uint256"
            },
            {
              "internalType": "uint256",
              "name": "prizeAmount",
              "type": "uint256"
            },
            {
              "internalType": "uint256",
              "name": "depositAmount",
              "type": "uint256"
            },
            {
              "internalType": "uint256",
              "name": "interestAmount",
              "type": "uint256"
            },
            {
              "internalType": "bool",
              "name": "doesExist",
              "type": "bool"
            }
          ],
          "internalType": "struct PearToken.Prize",
          "name": "",
          "type": "tuple"
        }
      ],
      "stateMutability": "view",
      "type": "function"
    },
    {
      "inputs": [
        {
          "internalType": "address",
          "name": "spender",
          "type": "address"
        },
        {
          "internalType": "uint256",
          "name": "addedValue",
          "type": "uint256"
        }
      ],
      "name": "increaseAllowance",
      "outputs": [
        {
          "internalType": "bool",
          "name": "",
          "type": "bool"
        }
      ],
      "stateMutability": "nonpayable",
      "type": "function"
    },
    {
      "inputs": [],
      "name": "name",
      "outputs": [
        {
          "internalType": "string",
          "name": "",
          "type": "string"
        }
      ],
      "stateMutability": "view",
      "type": "function"
    },
    {
      "inputs": [],
      "name": "owner",
      "outputs": [
        {
          "internalType": "address",
          "name": "",
          "type": "address"
        }
      ],
      "stateMutability": "view",
      "type": "function"
    },
    {
      "inputs": [],
      "name": "pearTake",
      "outputs": [
        {
          "internalType": "uint256",
          "name": "",
          "type": "uint256"
        }
      ],
      "stateMutability": "view",
      "type": "function"
    },
    {
      "inputs": [],
      "name": "renounceOwnership",
      "outputs": [],
      "stateMutability": "nonpayable",
      "type": "function"
    },
    {
      "inputs": [],
      "name": "symbol",
      "outputs": [
        {
          "internalType": "string",
          "name": "",
          "type": "string"
        }
      ],
      "stateMutability": "view",
      "type": "function"
    },
    {
      "inputs": [],
      "name": "totalSupply",
      "outputs": [
        {
          "internalType": "uint256",
          "name": "",
          "type": "uint256"
        }
      ],
      "stateMutability": "view",
      "type": "function"
    },
    {
      "inputs": [
        {
          "internalType": "address",
          "name": "recipient",
          "type": "address"
        },
        {
          "internalType": "uint256",
          "name": "amount",
          "type": "uint256"
        }
      ],
      "name": "transfer",
      "outputs": [
        {
          "internalType": "bool",
          "name": "",
          "type": "bool"
        }
      ],
      "stateMutability": "nonpayable",
      "type": "function"
    },
    {
      "inputs": [
        {
          "internalType": "address",
          "name": "sender",
          "type": "address"
        },
        {
          "internalType": "address",
          "name": "recipient",
          "type": "address"
        },
        {
          "internalType": "uint256",
          "name": "amount",
          "type": "uint256"
        }
      ],
      "name": "transferFrom",
      "outputs": [
        {
          "internalType": "bool",
          "name": "",
          "type": "bool"
        }
      ],
      "stateMutability": "nonpayable",
      "type": "function"
    },
    {
      "inputs": [
        {
          "internalType": "address",
          "name": "newOwner",
          "type": "address"
        }
      ],
      "name": "transferOwnership",
      "outputs": [],
      "stateMutability": "nonpayable",
      "type": "function"
    },
    {
      "inputs": [
        {
          "internalType": "address",
          "name": "player",
          "type": "address"
        },
        {
          "internalType": "uint256",
          "name": "entryAmount",
          "type": "uint256"
        },
        {
          "internalType": "uint256",
          "name": "winAmount",
          "type": "uint256"
        },
        {
          "internalType": "uint256",
          "name": "isMint",
          "type": "uint256"
        }
      ],
      "name": "updateClaimsPrize",
      "outputs": [],
      "stateMutability": "nonpayable",
      "type": "function"
    },
    {
      "inputs": [
        {
          "internalType": "uint256",
          "name": "amount",
          "type": "uint256"
        }
      ],
      "name": "withdrawFromEscrow",
      "outputs": [],
      "stateMutability": "nonpayable",
      "type": "function"
    }
  ],
  "bytecode": "0x608060405260006009553480156200001657600080fd5b50604051806040016040528060048152602001632832b0b960e11b815250604051806040016040528060048152602001632822a0a960e11b815250816003908051906020019062000069929190620001fd565b5080516200007f906004906020840190620001fd565b5050506200009c62000096620000bf60201b60201c565b620000c3565b6001600655620000b9336ba18f07d736b90be55000000062000115565b62000307565b3390565b600580546001600160a01b038381166001600160a01b0319831681179093556040519116919082907f8be0079c531659141344cd1fd0a4f28419497f9722a3daafe3b4186f6b6457e090600090a35050565b6001600160a01b038216620001705760405162461bcd60e51b815260206004820152601f60248201527f45524332303a206d696e7420746f20746865207a65726f206164647265737300604482015260640160405180910390fd5b8060026000828254620001849190620002a3565b90915550506001600160a01b03821660009081526020819052604081208054839290620001b3908490620002a3565b90915550506040518181526001600160a01b038316906000907fddf252ad1be2c89b69c2b068fc378daa952ba7f163c4a11628f55a4df523b3ef9060200160405180910390a35050565b8280546200020b90620002ca565b90600052602060002090601f0160209004810192826200022f57600085556200027a565b82601f106200024a57805160ff19168380011785556200027a565b828001600101855582156200027a579182015b828111156200027a5782518255916020019190600101906200025d565b50620002889291506200028c565b5090565b5b808211156200028857600081556001016200028d565b60008219821115620002c557634e487b7160e01b600052601160045260246000fd5b500190565b600181811c90821680620002df57607f821691505b602082108114156200030157634e487b7160e01b600052602260045260246000fd5b50919050565b61203280620003176000396000f3fe608060405234801561001057600080fd5b50600436106101985760003560e01c8063715018a6116100e3578063be47afda1161008c578063ce55bbb711610066578063ce55bbb714610388578063dd62ed3e1461039b578063f2fde38b146103d457600080fd5b8063be47afda1461030b578063c80ac49c1461031e578063c864ce561461037557600080fd5b8063a457c2d7116100bd578063a457c2d7146102d2578063a68ccd7e146102e5578063a9059cbb146102f857600080fd5b8063715018a6146102a75780638da5cb5b146102af57806395d89b41146102ca57600080fd5b8063313ce567116101455780633e7adefa1161011f5780633e7adefa146102625780634fad3e2b1461026b57806370a082311461027e57600080fd5b8063313ce5671461022b5780633635f1d11461023a578063395093511461024f57600080fd5b806323b872dd1161017657806323b872dd146101f05780632dec2be3146102035780632ff2e9dc1461021857600080fd5b806306fdde031461019d578063095ea7b3146101bb57806318160ddd146101de575b600080fd5b6101a56103e7565b6040516101b29190611b61565b60405180910390f35b6101ce6101c9366004611bd2565b610479565b60405190151581526020016101b2565b6002545b6040519081526020016101b2565b6101ce6101fe366004611bfc565b61048f565b61020b610553565b6040516101b29190611c38565b6101e26ba18f07d736b90be55000000081565b604051601281526020016101b2565b61024d610248366004611c85565b6105b7565b005b6101ce61025d366004611bd2565b610708565b6101e260095481565b61024d610279366004611d3c565b610744565b6101e261028c366004611e3c565b6001600160a01b031660009081526020819052604090205490565b61024d6108a7565b6005546040516001600160a01b0390911681526020016101b2565b6101a561090d565b6101ce6102e0366004611bd2565b61091c565b61024d6102f3366004611bd2565b6109cd565b6101ce610306366004611bd2565b610be5565b61024d610319366004611e57565b610bf2565b61033161032c366004611e3c565b610f67565b6040516101b29190600060a0820190508251825260208301516020830152604083015160408301526060830151606083015260808301511515608083015292915050565b61024d610383366004611e70565b610ff8565b61024d610396366004611e57565b611328565b6101e26103a9366004611e91565b6001600160a01b03918216600090815260016020908152604080832093909416825291909152205490565b61024d6103e2366004611e3c565b611429565b6060600380546103f690611ec4565b80601f016020809104026020016040519081016040528092919081815260200182805461042290611ec4565b801561046f5780601f106104445761010080835404028352916020019161046f565b820191906000526020600020905b81548152906001019060200180831161045257829003601f168201915b5050505050905090565b600061048633848461150b565b50600192915050565b600061049c848484611664565b6001600160a01b03841660009081526001602090815260408083203384529091529020548281101561053b5760405162461bcd60e51b815260206004820152602860248201527f45524332303a207472616e7366657220616d6f756e742065786365656473206160448201527f6c6c6f77616e636500000000000000000000000000000000000000000000000060648201526084015b60405180910390fd5b610548853385840361150b565b506001949350505050565b6060600760010180548060200260200160405190810160405280929190818152602001828054801561046f57602002820191906000526020600020905b81546001600160a01b03168152600190910190602001808311610590575050505050905090565b6001600160a01b03841660009081526007602052604090206004015460ff166106225760405162461bcd60e51b815260206004820152601560248201527f506c6179657220646f6573206e6f7420657869737400000000000000000000006044820152606401610532565b6001600160a01b038416600090815260076020526040902054610645908461187b565b6001600160a01b03851660009081526007602052604090205560018114156106c7576000610673838561187b565b905061067f308261188e565b6001600160a01b0385166000908152600760205260409020600101546106a5908461196d565b6001600160a01b03861660009081526007602052604090206001015550610702565b60006106d4846032611979565b905060006106e2858361187b565b6009549091506106f2908361196d565b6009556106ff3082611985565b50505b50505050565b3360008181526001602090815260408083206001600160a01b0387168452909152812054909161048691859061073f908690611f15565b61150b565b60008151116107955760405162461bcd60e51b815260206004820152601b60248201527f4e6f20736574746c656d656e74732077657265207061737365642e00000000006044820152606401610532565b60005b81518110156108715760008282815181106107b5576107b5611f2d565b60209081029190910181015160408082015182516001600160a01b0316600090815260079094529220549092506107eb9161187b565b81516001600160a01b03166000908152600760209081526040909120919091558101511561085e5760208082015182516001600160a01b0316600090815260079092526040909120600101546108409161196d565b81516001600160a01b03166000908152600760205260409020600101555b508061086981611f43565b915050610798565b50821561088757610882308561188e565b610891565b6108913085611985565b60095461089e908361196d565b60095550505050565b6005546001600160a01b031633146109015760405162461bcd60e51b815260206004820181905260248201527f4f776e61626c653a2063616c6c6572206973206e6f7420746865206f776e65726044820152606401610532565b61090b6000611b02565b565b6060600480546103f690611ec4565b3360009081526001602090815260408083206001600160a01b0386168452909152812054828110156109b65760405162461bcd60e51b815260206004820152602560248201527f45524332303a2064656372656173656420616c6c6f77616e63652062656c6f7760448201527f207a65726f0000000000000000000000000000000000000000000000000000006064820152608401610532565b6109c3338585840361150b565b5060019392505050565b6001600160a01b03821660009081526007602052604090206004015460ff16610a385760405162461bcd60e51b815260206004820152601960248201527f506c61796572206d757374206465706f7369742066756e6473000000000000006044820152606401610532565b6001600160a01b03821660009081526007602052604090206001810154600290910154610a649161196d565b811115610ab35760405162461bcd60e51b815260206004820152601860248201527f45786365656473206465706f7369742062616c616e63652e00000000000000006044820152606401610532565b6001600160a01b038216600090815260076020526040902060020154811115610b77576001600160a01b038216600090815260076020526040812060020154610afd90839061187b565b6001600160a01b0384166000908152600760205260408120600281019190915560010154909150610b2e908261187b565b6001600160a01b0384166000908152600760205260409020600181019190915554610b59908361196d565b6001600160a01b038416600090815260076020526040902055505050565b6001600160a01b038216600090815260076020526040902060020154610b9d908261187b565b6001600160a01b0383166000908152600760205260409020600281019190915554610bc8908261196d565b6001600160a01b0383166000908152600760205260409020555050565b6000610486338484611664565b60026006541415610c455760405162461bcd60e51b815260206004820152601f60248201527f5265656e7472616e637947756172643a207265656e7472616e742063616c6c006044820152606401610532565b60026006553360009081526007602052604090206004015460ff16610cac5760405162461bcd60e51b815260206004820181905260248201527f506c6179657220646f6573206e6f7420657869737420696e20657363726f772e6044820152606401610532565b3360009081526007602052604081206001810154600290910154610ccf9161196d565b11610d1c5760405162461bcd60e51b815260206004820152601a60248201527f4e6f7468696e6720696e206465706f7369742062616c616e63650000000000006044820152606401610532565b33600090815260076020526040902060018101546002909101548291610d42919061196d565b1015610d905760405162461bcd60e51b815260206004820152601760248201527f45786365656473206465706f7369742062616c616e63650000000000000000006044820152606401610532565b33600090815260076020526040902060020154811115610e095733600090815260076020526040812060020154610dc890839061187b565b336000908152600760205260408120600281019190915560010154909150610df0908261187b565b3360009081526007602052604090206001015550610e3a565b33600090815260076020526040902060020154610e26908261187b565b336000908152600760205260409020600201555b60405163095ea7b360e01b815233600482015260248101829052309063095ea7b390604401602060405180830381600087803b158015610e7957600080fd5b505af1158015610e8d573d6000803e3d6000fd5b505050506040513d601f19601f82011682018060405250810190610eb19190611f5e565b5060405163a9059cbb60e01b815233600482015260248101829052309063a9059cbb90604401602060405180830381600087803b158015610ef157600080fd5b505af1158015610f05573d6000803e3d6000fd5b505050506040513d601f19601f82011682018060405250810190610f299190611f5e565b5060405181815233907fcb15aee0e66e2dd6413ec4a90b1cda19a3b024148655e9017356e0a82d7e855b9060200160405180910390a2506001600655565b610f9b6040518060a00160405280600081526020016000815260200160008152602001600081526020016000151581525090565b506001600160a01b0316600090815260076020908152604091829020825160a081018452815481526001820154928101929092526002810154928201929092526003820154606082015260049091015460ff161515608082015290565b6002600654141561104b5760405162461bcd60e51b815260206004820152601f60248201527f5265656e7472616e637947756172643a207265656e7472616e742063616c6c006044820152606401610532565b60026006553360009081526007602052604090206004015460ff166110b25760405162461bcd60e51b815260206004820181905260248201527f506c6179657220646f6573206e6f7420657869737420696e20657363726f772e6044820152606401610532565b336000908152600760205260409020600101546111115760405162461bcd60e51b815260206004820152601e60248201527f506c6179657220686173206e6f207072697a657320746f20636c61696d2e00006044820152606401610532565b3360009081526007602052604090206001908101549082600181111561113957611139611f7b565b14156111ba57336000908152600760205260408120600181019190915560020154611164908261196d565b33600081815260076020526040908190206002019290925590517f53e3c45643a014901c16ab423f86c7d01176630d62d4adef2c2396f539fc6567906111ad9084908690611f91565b60405180910390a261131f565b60008260018111156111ce576111ce611f7b565b141561131f5733600081815260076020526040808220600101919091555163095ea7b360e01b8152600481019190915260248101829052309063095ea7b390604401602060405180830381600087803b15801561122a57600080fd5b505af115801561123e573d6000803e3d6000fd5b505050506040513d601f19601f820116820180604052508101906112629190611f5e565b5060405163a9059cbb60e01b815233600482015260248101829052309063a9059cbb90604401602060405180830381600087803b1580156112a257600080fd5b505af11580156112b6573d6000803e3d6000fd5b505050506040513d601f19601f820116820180604052508101906112da9190611f5e565b50336001600160a01b03167f53e3c45643a014901c16ab423f86c7d01176630d62d4adef2c2396f539fc65678284604051611316929190611f91565b60405180910390a25b50506001600655565b611333333083611664565b3360009081526007602052604090206004015460ff166113b8576008805460018181019092557ff3f7a9fe364faab93b216da50a3214154f22a0a2b415b23a84c8169e8b636ee301805473ffffffffffffffffffffffffffffffffffffffff1916339081179091556000908152600760205260409020600401805460ff191690911790555b336000908152600760205260409020600201546113d5908261196d565b33600081815260076020526040908190206002019290925590517fe31560b5c7087756260bab257ddb02572dfe8cd6373a25c1fd673d0adb39b9d49061141e9084815260200190565b60405180910390a250565b6005546001600160a01b031633146114835760405162461bcd60e51b815260206004820181905260248201527f4f776e61626c653a2063616c6c6572206973206e6f7420746865206f776e65726044820152606401610532565b6001600160a01b0381166114ff5760405162461bcd60e51b815260206004820152602660248201527f4f776e61626c653a206e6577206f776e657220697320746865207a65726f206160448201527f64647265737300000000000000000000000000000000000000000000000000006064820152608401610532565b61150881611b02565b50565b6001600160a01b0383166115865760405162461bcd60e51b8152602060048201526024808201527f45524332303a20617070726f76652066726f6d20746865207a65726f2061646460448201527f72657373000000000000000000000000000000000000000000000000000000006064820152608401610532565b6001600160a01b0382166116025760405162461bcd60e51b815260206004820152602260248201527f45524332303a20617070726f766520746f20746865207a65726f20616464726560448201527f73730000000000000000000000000000000000000000000000000000000000006064820152608401610532565b6001600160a01b0383811660008181526001602090815260408083209487168084529482529182902085905590518481527f8c5be1e5ebec7d5bd14f71427d1e84f3dd0314c0f7b2291e5b200ac8c7c3b92591015b60405180910390a3505050565b6001600160a01b0383166116e05760405162461bcd60e51b815260206004820152602560248201527f45524332303a207472616e736665722066726f6d20746865207a65726f20616460448201527f64726573730000000000000000000000000000000000000000000000000000006064820152608401610532565b6001600160a01b03821661175c5760405162461bcd60e51b815260206004820152602360248201527f45524332303a207472616e7366657220746f20746865207a65726f206164647260448201527f65737300000000000000000000000000000000000000000000000000000000006064820152608401610532565b6001600160a01b038316600090815260208190526040902054818110156117eb5760405162461bcd60e51b815260206004820152602660248201527f45524332303a207472616e7366657220616d6f756e742065786365656473206260448201527f616c616e636500000000000000000000000000000000000000000000000000006064820152608401610532565b6001600160a01b03808516600090815260208190526040808220858503905591851681529081208054849290611822908490611f15565b92505081905550826001600160a01b0316846001600160a01b03167fddf252ad1be2c89b69c2b068fc378daa952ba7f163c4a11628f55a4df523b3ef8460405161186e91815260200190565b60405180910390a3610702565b60006118878284611fc3565b9392505050565b6001600160a01b0382166118e45760405162461bcd60e51b815260206004820152601f60248201527f45524332303a206d696e7420746f20746865207a65726f2061646472657373006044820152606401610532565b80600260008282546118f69190611f15565b90915550506001600160a01b03821660009081526020819052604081208054839290611923908490611f15565b90915550506040518181526001600160a01b038316906000907fddf252ad1be2c89b69c2b068fc378daa952ba7f163c4a11628f55a4df523b3ef9060200160405180910390a35050565b60006118878284611f15565b60006118878284611fda565b6001600160a01b038216611a015760405162461bcd60e51b815260206004820152602160248201527f45524332303a206275726e2066726f6d20746865207a65726f2061646472657360448201527f73000000000000000000000000000000000000000000000000000000000000006064820152608401610532565b6001600160a01b03821660009081526020819052604090205481811015611a905760405162461bcd60e51b815260206004820152602260248201527f45524332303a206275726e20616d6f756e7420657863656564732062616c616e60448201527f63650000000000000000000000000000000000000000000000000000000000006064820152608401610532565b6001600160a01b0383166000908152602081905260408120838303905560028054849290611abf908490611fc3565b90915550506040518281526000906001600160a01b038516907fddf252ad1be2c89b69c2b068fc378daa952ba7f163c4a11628f55a4df523b3ef90602001611657565b600580546001600160a01b0383811673ffffffffffffffffffffffffffffffffffffffff19831681179093556040519116919082907f8be0079c531659141344cd1fd0a4f28419497f9722a3daafe3b4186f6b6457e090600090a35050565b600060208083528351808285015260005b81811015611b8e57858101830151858201604001528201611b72565b81811115611ba0576000604083870101525b50601f01601f1916929092016040019392505050565b80356001600160a01b0381168114611bcd57600080fd5b919050565b60008060408385031215611be557600080fd5b611bee83611bb6565b946020939093013593505050565b600080600060608486031215611c1157600080fd5b611c1a84611bb6565b9250611c2860208501611bb6565b9150604084013590509250925092565b6020808252825182820181905260009190848201906040850190845b81811015611c795783516001600160a01b031683529284019291840191600101611c54565b50909695505050505050565b60008060008060808587031215611c9b57600080fd5b611ca485611bb6565b966020860135965060408601359560600135945092505050565b801515811461150857600080fd5b634e487b7160e01b600052604160045260246000fd5b6040516060810167ffffffffffffffff81118282101715611d0557611d05611ccc565b60405290565b604051601f8201601f1916810167ffffffffffffffff81118282101715611d3457611d34611ccc565b604052919050565b60008060008060808587031215611d5257600080fd5b84359350602080860135611d6581611cbe565b9350604086810135935060608088013567ffffffffffffffff80821115611d8b57600080fd5b818a0191508a601f830112611d9f57600080fd5b813581811115611db157611db1611ccc565b611dbf868260051b01611d0b565b818152868101925090840283018601908c821115611ddc57600080fd5b928601925b81841015611e2b5784848e031215611df95760008081fd5b611e01611ce2565b611e0a85611bb6565b81528488013588820152868501358782015283529284019291860191611de1565b999c989b5096995050505050505050565b600060208284031215611e4e57600080fd5b61188782611bb6565b600060208284031215611e6957600080fd5b5035919050565b600060208284031215611e8257600080fd5b81356002811061188757600080fd5b60008060408385031215611ea457600080fd5b611ead83611bb6565b9150611ebb60208401611bb6565b90509250929050565b600181811c90821680611ed857607f821691505b60208210811415611ef957634e487b7160e01b600052602260045260246000fd5b50919050565b634e487b7160e01b600052601160045260246000fd5b60008219821115611f2857611f28611eff565b500190565b634e487b7160e01b600052603260045260246000fd5b6000600019821415611f5757611f57611eff565b5060010190565b600060208284031215611f7057600080fd5b815161188781611cbe565b634e487b7160e01b600052602160045260246000fd5b8281526040810160028310611fb657634e487b7160e01b600052602160045260246000fd5b8260208301529392505050565b600082821015611fd557611fd5611eff565b500390565b600082611ff757634e487b7160e01b600052601260045260246000fd5b50049056fea26469706673582212202478f482d2386478f1bbde6ec445a496ce1019dc8e4210217007bf69cf22073864736f6c63430008090033",
  "linkReferences": {},
  "deployedLinkReferences": {}
}