{
	"_format": "hh-sol-artifact-1",
	"contractName": "PearGame",
	"sourceName": "contracts/PearGame.sol",
	"abi": [
		{
			"inputs": [
				{
					"internalType": "address",
					"name": "_pearTokenAddress",
					"type": "address"
				}
			],
			"stateMutability": "nonpayable",
			"type": "constructor"
		},
		{
			"anonymous": false,
			"inputs": [
				{
					"indexed": true,
					"internalType": "uint256",
					"name": "entryId",
					"type": "uint256"
				},
				{
					"indexed": true,
					"internalType": "address",
					"name": "player",
					"type": "address"
				},
				{
					"indexed": false,
					"internalType": "uint256",
					"name": "totalEntryAmount",
					"type": "uint256"
				},
				{
					"indexed": false,
					"internalType": "uint256",
					"name": "wagerCount",
					"type": "uint256"
				},
				{
					"indexed": false,
					"internalType": "uint256",
					"name": "idx",
					"type": "uint256"
				}
			],
			"name": "EntryBatchSubmitted",
			"type": "event"
		},
		{
			"anonymous": false,
			"inputs": [
				{
					"indexed": true,
					"internalType": "uint256",
					"name": "entryId",
					"type": "uint256"
				},
				{
					"indexed": true,
					"internalType": "address",
					"name": "player",
					"type": "address"
				},
				{
					"indexed": false,
					"internalType": "uint256",
					"name": "amount",
					"type": "uint256"
				}
			],
			"name": "EntryRefunded",
			"type": "event"
		},
		{
			"anonymous": false,
			"inputs": [
				{
					"indexed": true,
					"internalType": "uint256",
					"name": "entryId",
					"type": "uint256"
				},
				{
					"indexed": true,
					"internalType": "address",
					"name": "player",
					"type": "address"
				},
				{
					"indexed": false,
					"internalType": "uint256",
					"name": "amount",
					"type": "uint256"
				},
				{
					"indexed": false,
					"internalType": "uint256",
					"name": "result",
					"type": "uint256"
				},
				{
					"indexed": false,
					"internalType": "uint256",
					"name": "winAmount",
					"type": "uint256"
				},
				{
					"indexed": false,
					"internalType": "uint256",
					"name": "idx",
					"type": "uint256"
				}
			],
			"name": "EntrySettled",
			"type": "event"
		},
		{
			"anonymous": false,
			"inputs": [
				{
					"indexed": true,
					"internalType": "uint256",
					"name": "entryId",
					"type": "uint256"
				},
				{
					"indexed": true,
					"internalType": "address",
					"name": "player",
					"type": "address"
				},
				{
					"indexed": false,
					"internalType": "uint256",
					"name": "amount",
					"type": "uint256"
				},
				{
					"indexed": false,
					"internalType": "uint256",
					"name": "pickedNumber",
					"type": "uint256"
				},
				{
					"indexed": false,
					"internalType": "enum PearGame.GameMode",
					"name": "gameMode",
					"type": "uint8"
				},
				{
					"indexed": false,
					"internalType": "uint256",
					"name": "idx",
					"type": "uint256"
				}
			],
			"name": "EntrySubmitted",
			"type": "event"
		},
		{
			"anonymous": false,
			"inputs": [
				{
					"indexed": true,
					"internalType": "address",
					"name": "previousOwner",
					"type": "address"
				},
				{
					"indexed": true,
					"internalType": "address",
					"name": "newOwner",
					"type": "address"
				}
			],
			"name": "OwnershipTransferred",
			"type": "event"
		},
		{
			"anonymous": false,
			"inputs": [
				{
					"indexed": true,
					"internalType": "uint256",
					"name": "roundId",
					"type": "uint256"
				},
				{
					"indexed": false,
					"internalType": "uint256",
					"name": "randomness",
					"type": "uint256"
				},
				{
					"indexed": false,
					"internalType": "bytes32",
					"name": "requestId",
					"type": "bytes32"
				},
				{
					"indexed": false,
					"internalType": "uint256",
					"name": "randomNumStr",
					"type": "uint256"
				}
			],
			"name": "RandomNumberFetched",
			"type": "event"
		},
		{
			"anonymous": false,
			"inputs": [
				{
					"indexed": true,
					"internalType": "uint256",
					"name": "roundId",
					"type": "uint256"
				},
				{
					"indexed": false,
					"internalType": "uint256",
					"name": "amountMinted",
					"type": "uint256"
				},
				{
					"indexed": false,
					"internalType": "uint256",
					"name": "amountBurned",
					"type": "uint256"
				},
				{
					"indexed": false,
					"internalType": "uint256",
					"name": "pickedNumber",
					"type": "uint256"
				}
			],
			"name": "RoundConcluded",
			"type": "event"
		},
		{
			"inputs": [],
			"name": "PEAR_DECIMALS",
			"outputs": [
				{
					"internalType": "uint256",
					"name": "",
					"type": "uint256"
				}
			],
			"stateMutability": "view",
			"type": "function"
		},
		{
			"inputs": [],
			"name": "balance",
			"outputs": [
				{
					"internalType": "uint256",
					"name": "",
					"type": "uint256"
				}
			],
			"stateMutability": "view",
			"type": "function"
		},
		{
			"inputs": [
				{
					"internalType": "uint256",
					"name": "",
					"type": "uint256"
				},
				{
					"internalType": "uint256",
					"name": "",
					"type": "uint256"
				}
			],
			"name": "batchMap",
			"outputs": [
				{
					"internalType": "uint256",
					"name": "blockNum",
					"type": "uint256"
				},
				{
					"internalType": "address",
					"name": "player",
					"type": "address"
				},
				{
					"internalType": "bool",
					"name": "isSettled",
					"type": "bool"
				},
				{
					"internalType": "uint256",
					"name": "totalEntryAmount",
					"type": "uint256"
				},
				{
					"internalType": "uint256",
					"name": "totalWinAmount",
					"type": "uint256"
				},
				{
					"internalType": "uint256",
					"name": "wagerId",
					"type": "uint256"
				}
			],
			"stateMutability": "view",
			"type": "function"
		},
		{
			"inputs": [
				{
					"internalType": "uint256",
					"name": "",
					"type": "uint256"
				},
				{
					"internalType": "uint256",
					"name": "",
					"type": "uint256"
				}
			],
			"name": "batchWagerMap",
			"outputs": [
				{
					"internalType": "uint256",
					"name": "amount",
					"type": "uint256"
				},
				{
					"internalType": "enum PearGame.GameMode",
					"name": "gameMode",
					"type": "uint8"
				},
				{
					"internalType": "uint256",
					"name": "pickedNumber",
					"type": "uint256"
				},
				{
					"internalType": "uint256",
					"name": "winAmount",
					"type": "uint256"
				},
				{
					"internalType": "uint256",
					"name": "result",
					"type": "uint256"
				}
			],
			"stateMutability": "view",
			"type": "function"
		},
		{
			"inputs": [],
			"name": "currentRoundId",
			"outputs": [
				{
					"internalType": "uint256",
					"name": "",
					"type": "uint256"
				}
			],
			"stateMutability": "view",
			"type": "function"
		},
		{
			"inputs": [
				{
					"internalType": "uint256",
					"name": "",
					"type": "uint256"
				},
				{
					"internalType": "uint256",
					"name": "",
					"type": "uint256"
				}
			],
			"name": "entryMap",
			"outputs": [
				{
					"internalType": "uint256",
					"name": "amount",
					"type": "uint256"
				},
				{
					"internalType": "uint256",
					"name": "blockNum",
					"type": "uint256"
				},
				{
					"internalType": "address",
					"name": "player",
					"type": "address"
				},
				{
					"internalType": "uint256",
					"name": "pickedNumber",
					"type": "uint256"
				},
				{
					"internalType": "enum PearGame.GameMode",
					"name": "gameMode",
					"type": "uint8"
				},
				{
					"internalType": "bool",
					"name": "isSettled",
					"type": "bool"
				},
				{
					"internalType": "uint256",
					"name": "result",
					"type": "uint256"
				},
				{
					"internalType": "uint256",
					"name": "winAmount",
					"type": "uint256"
				}
			],
			"stateMutability": "view",
			"type": "function"
		},
		{
			"inputs": [],
			"name": "gameEdge",
			"outputs": [
				{
					"internalType": "uint256",
					"name": "",
					"type": "uint256"
				}
			],
			"stateMutability": "view",
			"type": "function"
		},
		{
			"inputs": [
				{
					"internalType": "uint256",
					"name": "roundId",
					"type": "uint256"
				}
			],
			"name": "getBatchEntries",
			"outputs": [
				{
					"components": [
						{
							"internalType": "uint256",
							"name": "blockNum",
							"type": "uint256"
						},
						{
							"internalType": "address",
							"name": "player",
							"type": "address"
						},
						{
							"internalType": "bool",
							"name": "isSettled",
							"type": "bool"
						},
						{
							"internalType": "uint256",
							"name": "totalEntryAmount",
							"type": "uint256"
						},
						{
							"internalType": "uint256",
							"name": "totalWinAmount",
							"type": "uint256"
						},
						{
							"internalType": "uint256",
							"name": "wagerId",
							"type": "uint256"
						}
					],
					"internalType": "struct PearGame.BatchEntry[]",
					"name": "",
					"type": "tuple[]"
				}
			],
			"stateMutability": "view",
			"type": "function"
		},
		{
			"inputs": [
				{
					"internalType": "uint256",
					"name": "wagerId",
					"type": "uint256"
				}
			],
			"name": "getBatchWagerEntries",
			"outputs": [
				{
					"components": [
						{
							"internalType": "uint256",
							"name": "amount",
							"type": "uint256"
						},
						{
							"internalType": "enum PearGame.GameMode",
							"name": "gameMode",
							"type": "uint8"
						},
						{
							"internalType": "uint256",
							"name": "pickedNumber",
							"type": "uint256"
						},
						{
							"internalType": "uint256",
							"name": "winAmount",
							"type": "uint256"
						},
						{
							"internalType": "uint256",
							"name": "result",
							"type": "uint256"
						}
					],
					"internalType": "struct PearGame.Wager[]",
					"name": "",
					"type": "tuple[]"
				}
			],
			"stateMutability": "view",
			"type": "function"
		},
		{
			"inputs": [],
			"name": "getRandomNumber",
			"outputs": [
				{
					"internalType": "bytes32",
					"name": "requestId",
					"type": "bytes32"
				}
			],
			"stateMutability": "nonpayable",
			"type": "function"
		},
		{
			"inputs": [
				{
					"internalType": "uint256",
					"name": "roundId",
					"type": "uint256"
				}
			],
			"name": "getRoundEntries",
			"outputs": [
				{
					"components": [
						{
							"internalType": "uint256",
							"name": "amount",
							"type": "uint256"
						},
						{
							"internalType": "uint256",
							"name": "blockNum",
							"type": "uint256"
						},
						{
							"internalType": "address",
							"name": "player",
							"type": "address"
						},
						{
							"internalType": "uint256",
							"name": "pickedNumber",
							"type": "uint256"
						},
						{
							"internalType": "enum PearGame.GameMode",
							"name": "gameMode",
							"type": "uint8"
						},
						{
							"internalType": "bool",
							"name": "isSettled",
							"type": "bool"
						},
						{
							"internalType": "uint256",
							"name": "result",
							"type": "uint256"
						},
						{
							"internalType": "uint256",
							"name": "winAmount",
							"type": "uint256"
						}
					],
					"internalType": "struct PearGame.PlayerEntry[]",
					"name": "",
					"type": "tuple[]"
				}
			],
			"stateMutability": "view",
			"type": "function"
		},
		{
			"inputs": [],
			"name": "maxPearAmount",
			"outputs": [
				{
					"internalType": "uint256",
					"name": "",
					"type": "uint256"
				}
			],
			"stateMutability": "view",
			"type": "function"
		},
		{
			"inputs": [],
			"name": "minPearAmount",
			"outputs": [
				{
					"internalType": "uint256",
					"name": "",
					"type": "uint256"
				}
			],
			"stateMutability": "view",
			"type": "function"
		},
		{
			"inputs": [],
			"name": "owner",
			"outputs": [
				{
					"internalType": "address",
					"name": "",
					"type": "address"
				}
			],
			"stateMutability": "view",
			"type": "function"
		},
		{
			"inputs": [],
			"name": "pearTokenAddress",
			"outputs": [
				{
					"internalType": "address",
					"name": "",
					"type": "address"
				}
			],
			"stateMutability": "view",
			"type": "function"
		},
		{
			"inputs": [
				{
					"components": [
						{
							"internalType": "uint256",
							"name": "amount",
							"type": "uint256"
						},
						{
							"internalType": "enum PearGame.GameMode",
							"name": "gameMode",
							"type": "uint8"
						},
						{
							"internalType": "uint256",
							"name": "pickedNumber",
							"type": "uint256"
						},
						{
							"internalType": "uint256",
							"name": "winAmount",
							"type": "uint256"
						},
						{
							"internalType": "uint256",
							"name": "result",
							"type": "uint256"
						}
					],
					"internalType": "struct PearGame.Wager[]",
					"name": "wagers",
					"type": "tuple[]"
				}
			],
			"name": "placeBets",
			"outputs": [],
			"stateMutability": "nonpayable",
			"type": "function"
		},
		{
			"inputs": [
				{
					"internalType": "uint256",
					"name": "",
					"type": "uint256"
				}
			],
			"name": "randomMap",
			"outputs": [
				{
					"internalType": "uint256",
					"name": "",
					"type": "uint256"
				}
			],
			"stateMutability": "view",
			"type": "function"
		},
		{
			"inputs": [
				{
					"internalType": "bytes32",
					"name": "requestId",
					"type": "bytes32"
				},
				{
					"internalType": "uint256",
					"name": "randomness",
					"type": "uint256"
				}
			],
			"name": "rawFulfillRandomness",
			"outputs": [],
			"stateMutability": "nonpayable",
			"type": "function"
		},
		{
			"inputs": [],
			"name": "renounceOwnership",
			"outputs": [],
			"stateMutability": "nonpayable",
			"type": "function"
		},
		{
			"inputs": [],
			"name": "runRandomBatchSettle",
			"outputs": [],
			"stateMutability": "nonpayable",
			"type": "function"
		},
		{
			"inputs": [],
			"name": "runRandomSettle",
			"outputs": [],
			"stateMutability": "nonpayable",
			"type": "function"
		},
		{
			"inputs": [
				{
					"internalType": "uint256",
					"name": "_gameEdge",
					"type": "uint256"
				}
			],
			"name": "setGameEdge",
			"outputs": [],
			"stateMutability": "nonpayable",
			"type": "function"
		},
		{
			"inputs": [
				{
					"internalType": "uint256",
					"name": "_maxPearAmount",
					"type": "uint256"
				}
			],
			"name": "setMaxPearAmount",
			"outputs": [],
			"stateMutability": "nonpayable",
			"type": "function"
		},
		{
			"inputs": [
				{
					"internalType": "uint256",
					"name": "_minPearAmount",
					"type": "uint256"
				}
			],
			"name": "setMinPearAmount",
			"outputs": [],
			"stateMutability": "nonpayable",
			"type": "function"
		},
		{
			"inputs": [
				{
					"internalType": "string",
					"name": "_str",
					"type": "string"
				}
			],
			"name": "strToUint",
			"outputs": [
				{
					"internalType": "uint256",
					"name": "res",
					"type": "uint256"
				}
			],
			"stateMutability": "pure",
			"type": "function"
		},
		{
			"inputs": [
				{
					"internalType": "uint256",
					"name": "amount",
					"type": "uint256"
				},
				{
					"internalType": "uint256",
					"name": "pickedNumber",
					"type": "uint256"
				},
				{
					"internalType": "enum PearGame.GameMode",
					"name": "gameMode",
					"type": "uint8"
				}
			],
			"name": "submitEntry",
			"outputs": [],
			"stateMutability": "nonpayable",
			"type": "function"
		},
		{
			"inputs": [],
			"name": "testRandom",
			"outputs": [],
			"stateMutability": "payable",
			"type": "function"
		},
		{
			"inputs": [
				{
					"internalType": "address",
					"name": "newOwner",
					"type": "address"
				}
			],
			"name": "transferOwnership",
			"outputs": [],
			"stateMutability": "nonpayable",
			"type": "function"
		},
		{
			"inputs": [
				{
					"internalType": "bytes32",
					"name": "",
					"type": "bytes32"
				}
			],
			"name": "vrfMap",
			"outputs": [
				{
					"internalType": "uint256",
					"name": "",
					"type": "uint256"
				}
			],
			"stateMutability": "view",
			"type": "function"
		},
		{
			"inputs": [],
			"name": "wagerId",
			"outputs": [
				{
					"internalType": "uint256",
					"name": "",
					"type": "uint256"
				}
			],
			"stateMutability": "view",
			"type": "function"
		}
	],
	"bytecode": "0x60c06040526064600455670de0b6b3a764000060055569d3c21bcecceda100000060065560006007556000600d553480156200003a57600080fd5b506040516200328c3803806200328c8339810160408190526200005d916200014a565b6001600055738c7382f9d8f56b33781fe506e897a4f1e2d1725573326c977e6efc84e512bb9c30f76e30c160ed06fb6200009733620000f8565b6001600160a01b0391821660a0528116608052600380546001600160a01b031916929091169190911790557f6e75b569a01ef56d18cab6a8e71e6600d6ce853834d4a5748b720d06f878b3a460085567016345785d8a00006009556200017c565b600180546001600160a01b038381166001600160a01b0319831681179093556040519116919082907f8be0079c531659141344cd1fd0a4f28419497f9722a3daafe3b4186f6b6457e090600090a35050565b6000602082840312156200015d57600080fd5b81516001600160a01b03811681146200017557600080fd5b9392505050565b60805160a0516130dc620001b06000396000818161100e015261246501526000818161149f015261243601526130dc6000f3fe6080604052600436106101cd5760003560e01c80639cbe5efd116100f7578063ce9ded2f11610095578063dbdff2c111610064578063dbdff2c11461057f578063f2fde38b14610594578063fa5fedbe146105b4578063fbddd14b146105ca57600080fd5b8063ce9ded2f146104c2578063d14ce2ac146104d7578063d243b38e14610532578063d7139df01461055f57600080fd5b8063c4142cb6116100d1578063c4142cb61461043c578063c4260e4b1461046d578063c5ef3ec51461048d578063c6073224146104ad57600080fd5b80639cbe5efd146103fb578063b52be27414610411578063b69ef8a81461042757600080fd5b806361e2b56c1161016f5780638a5dcbf61161013e5780638a5dcbf6146103635780638da5cb5b146103905780638f9e722b146103ae57806394985ddd146103db57600080fd5b806361e2b56c146102ef5780636ec6f7fa14610305578063715018a61461033957806375c54ea91461034e57600080fd5b80632ff6c607116101ab5780632ff6c6071461025557806342b3dfc21461028257806350456eeb146102af5780635d51f19e146102cf57600080fd5b8063033c6298146101d25780632034eadb1461020f57806324f40b9c14610233575b600080fd5b3480156101de57600080fd5b506003546101f2906001600160a01b031681565b6040516001600160a01b0390911681526020015b60405180910390f35b34801561021b57600080fd5b5061022560055481565b604051908152602001610206565b34801561023f57600080fd5b5061025361024e366004612913565b6105d2565b005b34801561026157600080fd5b50610275610270366004612a02565b610936565b6040516102069190612a1b565b34801561028e57600080fd5b506102a261029d366004612a02565b6109ef565b6040516102069190612ad6565b3480156102bb57600080fd5b506102536102ca366004612b6b565b610aee565b3480156102db57600080fd5b506102536102ea366004612a02565b610e04565b3480156102fb57600080fd5b5061022560065481565b34801561031157600080fd5b50610325610320366004612ba0565b610e63565b604051610206989796959493929190612bc2565b34801561034557600080fd5b50610253610ed5565b34801561035a57600080fd5b50610225601281565b34801561036f57600080fd5b5061038361037e366004612a02565b610f3b565b6040516102069190612c13565b34801561039c57600080fd5b506001546001600160a01b03166101f2565b3480156103ba57600080fd5b506102256103c9366004612a02565b600e6020526000908152604090205481565b3480156103e757600080fd5b506102536103f6366004612ba0565b611003565b34801561040757600080fd5b5061022560075481565b34801561041d57600080fd5b50610225600d5481565b34801561043357600080fd5b50610225611089565b34801561044857600080fd5b5061045c610457366004612ba0565b61110a565b604051610206959493929190612c7d565b34801561047957600080fd5b50610253610488366004612a02565b61115c565b34801561049957600080fd5b506102256104a8366004612cad565b6111bb565b3480156104b957600080fd5b506102536112b0565b3480156104ce57600080fd5b50610253611336565b3480156104e357600080fd5b506104f76104f2366004612ba0565b6113b9565b604080519687526001600160a01b039095166020870152921515938501939093526060840152608083019190915260a082015260c001610206565b34801561053e57600080fd5b5061022561054d366004612a02565b600f6020526000908152604090205481565b34801561056b57600080fd5b5061025361057a366004612a02565b61141c565b34801561058b57600080fd5b5061022561147b565b3480156105a057600080fd5b506102536105af366004612d42565b611575565b3480156105c057600080fd5b5061022560045481565b610253611654565b6002600054141561062a5760405162461bcd60e51b815260206004820152601f60248201527f5265656e7472616e637947756172643a207265656e7472616e742063616c6c0060448201526064015b60405180910390fd5b60026000908155815190805b828110156107935761066e84828151811061065357610653612d72565b6020026020010151600001518361165e90919063ffffffff16565b9150600c6000600d5481526020019081526020016000206040518060a001604052808684815181106106a2576106a2612d72565b60200260200101516000015181526020018684815181106106c5576106c5612d72565b60200260200101516020015160028111156106e2576106e2612a9e565b81526020018684815181106106f9576106f9612d72565b6020908102919091018101516040908101518352600083830181905292018290528354600181810186559483529181902083516005909302019182558201518184018054939492939192909160ff19169083600281111561075c5761075c612a9e565b021790555060408201516002820155606082015160038201556080909101516004909101558061078b81612d9e565b915050610636565b506007546000908152600b60209081526040808320815160c081018352438152338185018181528285018781526060840188815260808501898152600d5460a08701908152875460018181018a55988c5299909a20955160059099029095019788559151948701805491511515600160a01b027fffffffffffffffffffffff0000000000000000000000000000000000000000009092166001600160a01b0396871617919091179055516002860155905160038086019190915594516004948501559354915163534666bf60e11b815291169263a68ccd7e9261088c928691016001600160a01b03929092168252602082015260400190565b600060405180830381600087803b1580156108a657600080fd5b505af11580156108ba573d6000803e3d6000fd5b50506007546000818152600b60209081526040918290205482518781529182018890528183015290513394509192507fa6a04e296d0c4e5b67dfd909ee820311bbb7cf98a21785bbbfa25c01a02effe0919081900360600190a36001600d60008282546109279190612db9565b90915550506001600055505050565b6060600b6000838152602001908152602001600020805480602002602001604051908101604052809291908181526020016000905b828210156109e45760008481526020908190206040805160c08101825260058602909201805483526001808201546001600160a01b03811685870152600160a01b900460ff1615159284019290925260028101546060840152600381015460808401526004015460a0830152908352909201910161096b565b505050509050919050565b6060600a6000838152602001908152602001600020805480602002602001604051908101604052809291908181526020016000905b828210156109e4576000848152602090819020604080516101008101825260078602909201805483526001810154938301939093526002808401546001600160a01b031691830191909152600383015460608301526004830154919291608084019160ff90911690811115610a9b57610a9b612a9e565b6002811115610aac57610aac612a9e565b81526020016004820160019054906101000a900460ff161515151581526020016005820154815260200160068201548152505081526020019060010190610a24565b60026000541415610b415760405162461bcd60e51b815260206004820152601f60248201527f5265656e7472616e637947756172643a207265656e7472616e742063616c6c006044820152606401610621565b60026000556005548310801590610b5a57506006548311155b610ba65760405162461bcd60e51b815260206004820152601d60248201527f456e74727920616d6f756e74206e6f742077697468696e2072616e67650000006044820152606401610621565b6063821115610bf75760405162461bcd60e51b815260206004820152601a60248201527f5069636b6564204e756d626572206e6f7420696e2072616e67650000000000006044820152606401610621565b60035460405163534666bf60e11b8152336004820152602481018590526001600160a01b039091169063a68ccd7e90604401600060405180830381600087803b158015610c4357600080fd5b505af1158015610c57573d6000803e3d6000fd5b50505050600a60006007548152602001908152602001600020604051806101000160405280858152602001438152602001336001600160a01b03168152602001848152602001836002811115610caf57610caf612a9e565b8152600060208083018290526040808401839052606093840183905285546001808201885596845292829020855160079094020192835590840151828601558301516002808301805473ffffffffffffffffffffffffffffffffffffffff19166001600160a01b03909316929092179091559183015160038201556080830151600482018054949592949193909260ff1990921691908490811115610d5657610d56612a9e565b021790555060a08201516004820180549115156101000261ff001990921691909117905560c0820151600582015560e0909101516006909101556007546000908152600a6020526040812054610dad906001611673565b9050336001600160a01b03166007547f11b15917a5b444d3903bb77f4ed538330aa084dc63c2444e7a781586759a1d5d86868686604051610df19493929190612dd1565b60405180910390a3505060016000555050565b6001546001600160a01b03163314610e5e5760405162461bcd60e51b815260206004820181905260248201527f4f776e61626c653a2063616c6c6572206973206e6f7420746865206f776e65726044820152606401610621565b600455565b600a6020528160005260406000208181548110610e7f57600080fd5b600091825260209091206007909102018054600182015460028301546003840154600485015460058601546006909601549497509295506001600160a01b0390911693909260ff80841693610100900416919088565b6001546001600160a01b03163314610f2f5760405162461bcd60e51b815260206004820181905260248201527f4f776e61626c653a2063616c6c6572206973206e6f7420746865206f776e65726044820152606401610621565b610f39600061167f565b565b6060600c6000838152602001908152602001600020805480602002602001604051908101604052809291908181526020016000905b828210156109e457838290600052602060002090600502016040518060a0016040529081600082015481526020016001820160009054906101000a900460ff166002811115610fc157610fc1612a9e565b6002811115610fd257610fd2612a9e565b8152602001600282015481526020016003820154815260200160048201548152505081526020019060010190610f70565b336001600160a01b037f0000000000000000000000000000000000000000000000000000000000000000161461107b5760405162461bcd60e51b815260206004820152601f60248201527f4f6e6c7920565246436f6f7264696e61746f722063616e2066756c66696c6c006044820152606401610621565b61108582826116de565b5050565b6003546040516370a0823160e01b81523060048201526000916001600160a01b0316906370a082319060240160206040518083038186803b1580156110cd57600080fd5b505afa1580156110e1573d6000803e3d6000fd5b505050506040513d601f19601f820116820180604052508101906111059190612dfb565b905090565b600c602052816000526040600020818154811061112657600080fd5b60009182526020909120600590910201805460018201546002830154600384015460049094015492955060ff9091169350919085565b6001546001600160a01b031633146111b65760405162461bcd60e51b815260206004820181905260248201527f4f776e61626c653a2063616c6c6572206973206e6f7420746865206f776e65726044820152606401610621565b600555565b6000805b82518110156112aa57600060308483815181106111de576111de612d72565b01602001516111f0919060f81c612e14565b60ff16108061122757506009603084838151811061121057611210612d72565b0160200151611222919060f81c612e14565b60ff16115b156112355750600092915050565b60018184516112449190612e37565b61124e9190612e37565b61125990600a612f32565b603084838151811061126d5761126d612d72565b016020015161127f919060f81c612e14565b60ff1661128c9190612f3e565b6112969083612db9565b9150806112a281612d9e565b9150506111bf565b50919050565b6001546001600160a01b0316331461130a5760405162461bcd60e51b815260206004820181905260248201527f4f776e61626c653a2063616c6c6572206973206e6f7420746865206f776e65726044820152606401610621565b6000611314611768565b6007546000908152600e6020526040902081905590506113338161187b565b50565b6001546001600160a01b031633146113905760405162461bcd60e51b815260206004820181905260248201527f4f776e61626c653a2063616c6c6572206973206e6f7420746865206f776e65726044820152606401610621565b600061139a611768565b6007546000908152600e60205260409020819055905061133381611f56565b600b60205281600052604060002081815481106113d557600080fd5b6000918252602090912060059091020180546001820154600283015460038401546004909401549295506001600160a01b0382169450600160a01b90910460ff1692909186565b6001546001600160a01b031633146114765760405162461bcd60e51b815260206004820181905260248201527f4f776e61626c653a2063616c6c6572206973206e6f7420746865206f776e65726044820152606401610621565b600655565b6009546040516370a0823160e01b8152306004820152600091906001600160a01b037f000000000000000000000000000000000000000000000000000000000000000016906370a082319060240160206040518083038186803b1580156114e157600080fd5b505afa1580156114f5573d6000803e3d6000fd5b505050506040513d601f19601f820116820180604052508101906115199190612dfb565b10156115675760405162461bcd60e51b815260206004820152600f60248201527f4e6f7420656e6f756768204c494e4b00000000000000000000000000000000006044820152606401610621565b611105600854600954612432565b6001546001600160a01b031633146115cf5760405162461bcd60e51b815260206004820181905260248201527f4f776e61626c653a2063616c6c6572206973206e6f7420746865206f776e65726044820152606401610621565b6001600160a01b03811661164b5760405162461bcd60e51b815260206004820152602660248201527f4f776e61626c653a206e6577206f776e657220697320746865207a65726f206160448201527f64647265737300000000000000000000000000000000000000000000000000006064820152608401610621565b6113338161167f565b600061108561147b565b600061166a8284612db9565b90505b92915050565b600061166a8284612e37565b600180546001600160a01b0383811673ffffffffffffffffffffffffffffffffffffffff19831681179093556040519116919082907f8be0079c531659141344cd1fd0a4f28419497f9722a3daafe3b4186f6b6457e090600090a35050565b60006116e9826125c5565b905060006116fa82600060026126f7565b9050600061170b83600260116126f7565b90506000611718836111bb565b60075460408051888152602081018a9052908101839052919250907f36054b7a866df9f0fe68c2c7993bbbe53117ac830eb97b32ff6a1fb1a56f828d9060600160405180910390a2505050505050565b6040516bffffffffffffffffffffffff193360601b1660208201526000908190439042906034016040516020818303038152906040528051906020012060001c6117b29190612f73565b6040516bffffffffffffffffffffffff194160601b166020820152459042906034016040516020818303038152906040528051906020012060001c6117f79190612f73565b6118014442612db9565b61180b9190612db9565b6118159190612db9565b61181f9190612db9565b6118299190612db9565b60405160200161183b91815260200190565b60408051601f1981840301815291905280516020909101209050611860606482612f73565b61186b906064612f3e565b6118759082612e37565b91505090565b600260005414156118ce5760405162461bcd60e51b815260206004820152601f60248201527f5265656e7472616e637947756172643a207265656e7472616e742063616c6c006044820152606401610621565b600260009081556007548152600a60205260409020546119305760405162461bcd60e51b815260206004820152601560248201527f4e6f20656e747269657320746f20736574746c652e00000000000000000000006044820152606401610621565b6007546000908152600a602081905260408220549190819060019082906119589087906127f4565b905060008567ffffffffffffffff8111156119755761197561288f565b6040519080825280602002602001820160405280156119d357816020015b6119c0604051806060016040528060006001600160a01b0316815260200160008152602001600081525090565b8152602001906001900390816119935790505b5090506119e1600288612f87565b156119eb57600092505b60005b86811015611e2a576007546000908152600a60205260408120805483908110611a1957611a19612d72565b6000918252602082206007909102019150600482015460ff166002811115611a4357611a43612a9e565b1415611b5a576003810154600190611a5d90600290612f87565b15611a66575060005b8515158115151415611af7578154611a7f906002612f3e565b60068301819055600160058401558254611a9891612e37565b611aa29089612db9565b6040805160608101825260028501546001600160a01b0316815260068501546020820152845491810191909152855191995090859085908110611ae757611ae7612d72565b6020026020010181905250611b54565b8154611b039088612db9565b6040805160608101825260028501546001600160a01b0316815260068501546020820152845491810191909152855191985090859085908110611b4857611b48612d72565b60200260200101819052505b50611cb4565b6001600482015460ff166002811115611b7557611b75612a9e565b1415611ba5576003810154600090611b8e90600a6127f4565b905080851415611af7578154611a7f90600a612f3e565b6002600482015460ff166002811115611bc057611bc0612a9e565b1415611cb4578881600301541415611c57578054611bdf906064612f3e565b60068201819055600160058301558154611bf891612e37565b611c029088612db9565b6040805160608101825260028401546001600160a01b0316815260068401546020820152835491810191909152845191985090849084908110611c4757611c47612d72565b6020026020010181905250611cb4565b8054611c639087612db9565b6040805160608101825260028401546001600160a01b0316815260068401546020820152835491810191909152845191975090849084908110611ca857611ca8612d72565b60200260200101819052505b60048101805461ff001916610100179055600281015460075482546005840154600685015460408051938452602084019290925290820152606081018590526001600160a01b03909216917fc4b70598ffd9d208e727489ead3916a9dc3b65b6eca61ce1c05f1e9354e521479060800160405180910390a380600a600060075481526020019081526020016000208381548110611d5357611d53612d72565b60009182526020909120825460079092020190815560018083015481830155600280840154818401805473ffffffffffffffffffffffffffffffffffffffff19166001600160a01b0390921691909117905560038085015490840155600480850154908401805460ff90921693909260ff19909216918490811115611dda57611dda612a9e565b0217905550600482810154908201805461ff0019166101009283900460ff161515909202919091179055600580830154908201556006918201549101555080611e2281612d9e565b9150506119ee565b506000600181611e3b8760326127f4565b9050611e478782611673565b965086881115611e6657611e5b8888611673565b925060019150611e7f565b87871115611e7f57611e788789611673565b9250600091505b600354604051634fad3e2b60e01b81526001600160a01b0390911690634fad3e2b90611eb5908690869086908a90600401612f9b565b600060405180830381600087803b158015611ecf57600080fd5b505af1158015611ee3573d6000803e3d6000fd5b5050600754604080518c8152602081018c90529081018e90529092507f3491ec87f906ba953d57be56acdb84447ae6aa060871190cdf8f29c31f7b9dec915060600160405180910390a2600160076000828254611f409190612db9565b9091555050600160005550505050505050505050565b60026000541415611fa95760405162461bcd60e51b815260206004820152601f60248201527f5265656e7472616e637947756172643a207265656e7472616e742063616c6c006044820152606401610621565b600260009081556007548152600b602052604090205461200b5760405162461bcd60e51b815260206004820152601560248201527f4e6f20656e747269657320746f20736574746c652e00000000000000000000006044820152606401610621565b6007546000908152600b6020526040812054908060018161202d86600a6127f4565b905060008567ffffffffffffffff81111561204a5761204a61288f565b6040519080825280602002602001820160405280156120a857816020015b612095604051806060016040528060006001600160a01b0316815260200160008152602001600081525090565b8152602001906001900390816120685790505b5090506120b6600288612f87565b156120c057600092505b60005b86811015612362576007546000908152600b602052604081208054839081106120ee576120ee612d72565b600091825260208083206004600590930201918201548352600c9052604082209092509080805b83548110156122d657600084828154811061213257612132612d72565b906000526020600020906005020190508060000154846121529190612db9565b93506000600182015460ff16600281111561216f5761216f612a9e565b14156121e2576000600282600201546121889190612f87565b151590508a15158114156121cd5781546121a3906002612f3e565b6003830181905582546121b591612e37565b6121bf908e612db9565b600160048401559c506121dc565b81546121d9908d612db9565b9b505b506122b1565b60018082015460ff1660028111156121fc576121fc612a9e565b141561223e57600281015460009061221590600a6127f4565b905061222081612800565b6122298a612800565b808a14156121cd5781546121a390600a612f3e565b6002600182015460ff16600281111561225957612259612a9e565b14156122b1578d816002015414156122a2578054612278906064612f3e565b60038201819055815461228a91612e37565b612294908d612db9565b600160048301559b506122b1565b80546122ae908c612db9565b9a505b60038101546122c09084612db9565b92505080806122ce90612d9e565b915050612115565b506001840180547fffffffffffffffffffffff00ffffffffffffffffffffffffffffffffffffffff8116600160a01b17909155604080516060810182526001600160a01b039092168252602082018390528101839052865187908790811061234057612340612d72565b602002602001018190525050505050808061235a90612d9e565b9150506120c3565b5060006001816123738760326127f4565b905061237f8782611673565b96508688111561239e576123938888611673565b9250600191506123b7565b878711156123b7576123b08789611673565b9250600091505b600354604051634fad3e2b60e01b81526001600160a01b0390911690634fad3e2b906123ed908690869086908a90600401612f9b565b600060405180830381600087803b15801561240757600080fd5b505af115801561241b573d6000803e3d6000fd5b50505050600160076000828254611f409190612db9565b60007f00000000000000000000000000000000000000000000000000000000000000006001600160a01b0316634000aea07f0000000000000000000000000000000000000000000000000000000000000000848660006040516020016124a2929190918252602082015260400190565b6040516020818303038152906040526040518463ffffffff1660e01b81526004016124cf93929190613017565b602060405180830381600087803b1580156124e957600080fd5b505af11580156124fd573d6000803e3d6000fd5b505050506040513d601f19601f820116820180604052508101906125219190613084565b50600083815260026020818152604080842054815180840189905280830186905230606082015260808082018390528351808303909101815260a09091019092528151918301919091209387905291905261257d906001612db9565b6000858152600260205260409020556125bd8482604080516020808201949094528082019290925280518083038201815260609092019052805191012090565b949350505050565b60608161260557505060408051808201909152600181527f3000000000000000000000000000000000000000000000000000000000000000602082015290565b8160005b811561262f578061261981612d9e565b91506126289050600a83612f73565b9150612609565b60008167ffffffffffffffff81111561264a5761264a61288f565b6040519080825280601f01601f191660200182016040528015612674576020820181803683370190505b5090505b84156125bd57612689600183612e37565b9150612696600a86612f87565b6126a1906030612db9565b60f81b8183815181106126b6576126b6612d72565b60200101907effffffffffffffffffffffffffffffffffffffffffffffffffffffffffffff1916908160001a9053506126f0600a86612f73565b9450612678565b60608360006127068585612e37565b67ffffffffffffffff81111561271e5761271e61288f565b6040519080825280601f01601f191660200182016040528015612748576020820181803683370190505b509050845b848110156127ea5782818151811061276757612767612d72565b01602001517fff0000000000000000000000000000000000000000000000000000000000000016826127998884612e37565b815181106127a9576127a9612d72565b60200101907effffffffffffffffffffffffffffffffffffffffffffffffffffffffffffff1916908160001a905350806127e281612d9e565b91505061274d565b5095945050505050565b600061166a8284612f73565b6113338160405160240161281691815260200190565b60408051601f198184030181529190526020810180517bffffffffffffffffffffffffffffffffffffffffffffffffffffffff167ff5b1bba90000000000000000000000000000000000000000000000000000000017905280516a636f6e736f6c652e6c6f67602083016000808483855afa5050505050565b634e487b7160e01b600052604160045260246000fd5b60405160a0810167ffffffffffffffff811182821017156128c8576128c861288f565b60405290565b604051601f8201601f1916810167ffffffffffffffff811182821017156128f7576128f761288f565b604052919050565b80356003811061290e57600080fd5b919050565b6000602080838503121561292657600080fd5b823567ffffffffffffffff8082111561293e57600080fd5b818501915085601f83011261295257600080fd5b8135818111156129645761296461288f565b612972848260051b016128ce565b818152848101925060a091820284018501918883111561299157600080fd5b938501935b828510156129f65780858a0312156129ae5760008081fd5b6129b66128a5565b853581526129c58787016128ff565b8188015260408681013590820152606080870135908201526080808701359082015284529384019392850192612996565b50979650505050505050565b600060208284031215612a1457600080fd5b5035919050565b602080825282518282018190526000919060409081850190868401855b82811015612a9157815180518552868101516001600160a01b03168786015285810151151586860152606080820151908601526080808201519086015260a0908101519085015260c09093019290850190600101612a38565b5091979650505050505050565b634e487b7160e01b600052602160045260246000fd5b60038110612ad257634e487b7160e01b600052602160045260246000fd5b9052565b602080825282518282018190526000919060409081850190868401855b82811015612a91578151805185528681015187860152858101516001600160a01b03168686015260608082015190860152608080820151612b3682880182612ab4565b505060a08181015115159086015260c0808201519086015260e090810151908501526101009093019290850190600101612af3565b600080600060608486031215612b8057600080fd5b8335925060208401359150612b97604085016128ff565b90509250925092565b60008060408385031215612bb357600080fd5b50508035926020909101359150565b888152602081018890526001600160a01b0387166040820152606081018690526101008101612bf46080830187612ab4565b93151560a082015260c081019290925260e09091015295945050505050565b602080825282518282018190526000919060409081850190868401855b82811015612a915781518051855286810151612c4e88870182612ab4565b508086015185870152606080820151908601526080908101519085015260a09093019290850190600101612c30565b85815260a08101612c916020830187612ab4565b8460408301528360608301528260808301529695505050505050565b60006020808385031215612cc057600080fd5b823567ffffffffffffffff80821115612cd857600080fd5b818501915085601f830112612cec57600080fd5b813581811115612cfe57612cfe61288f565b612d10601f8201601f191685016128ce565b91508082528684828501011115612d2657600080fd5b8084840185840137600090820190930192909252509392505050565b600060208284031215612d5457600080fd5b81356001600160a01b0381168114612d6b57600080fd5b9392505050565b634e487b7160e01b600052603260045260246000fd5b634e487b7160e01b600052601160045260246000fd5b6000600019821415612db257612db2612d88565b5060010190565b60008219821115612dcc57612dcc612d88565b500190565b8481526020810184905260808101612dec6040830185612ab4565b82606083015295945050505050565b600060208284031215612e0d57600080fd5b5051919050565b600060ff821660ff841680821015612e2e57612e2e612d88565b90039392505050565b600082821015612e4957612e49612d88565b500390565b600181815b80851115612e89578160001904821115612e6f57612e6f612d88565b80851615612e7c57918102915b93841c9390800290612e53565b509250929050565b600082612ea05750600161166d565b81612ead5750600061166d565b8160018114612ec35760028114612ecd57612ee9565b600191505061166d565b60ff841115612ede57612ede612d88565b50506001821b61166d565b5060208310610133831016604e8410600b8410161715612f0c575081810a61166d565b612f168383612e4e565b8060001904821115612f2a57612f2a612d88565b029392505050565b600061166a8383612e91565b6000816000190483118215151615612f5857612f58612d88565b500290565b634e487b7160e01b600052601260045260246000fd5b600082612f8257612f82612f5d565b500490565b600082612f9657612f96612f5d565b500690565b60006080820186835260208615158185015260408681860152606060808187015283875180865260a088019150848901955060005b8181101561300657865180516001600160a01b031684528681015187850152850151858401529585019591830191600101612fd0565b50909b9a5050505050505050505050565b6001600160a01b038416815260006020848184015260606040840152835180606085015260005b8181101561305a5785810183015185820160800152820161303e565b8181111561306c576000608083870101525b50601f01601f19169290920160800195945050505050565b60006020828403121561309657600080fd5b81518015158114612d6b57600080fdfea26469706673582212209001573368aa1c5f64518db229286357fd05e1416a781c3d569983a77c630fb464736f6c63430008090033",
	"linkReferences": {},
	"deployedLinkReferences": {}
}