{
  "_format": "hh-sol-artifact-1",
  "contractName": "PearToken",
  "sourceName": "contracts/PearToken.sol",
  "abi": [
    {
      "inputs": [],
      "stateMutability": "nonpayable",
      "type": "constructor"
    },
    {
      "anonymous": false,
      "inputs": [
        {
          "indexed": true,
          "internalType": "address",
          "name": "owner",
          "type": "address"
        },
        {
          "indexed": true,
          "internalType": "address",
          "name": "spender",
          "type": "address"
        },
        {
          "indexed": false,
          "internalType": "uint256",
          "name": "value",
          "type": "uint256"
        }
      ],
      "name": "Approval",
      "type": "event"
    },
    {
      "anonymous": false,
      "inputs": [
        {
          "indexed": true,
          "internalType": "address",
          "name": "previousOwner",
          "type": "address"
        },
        {
          "indexed": true,
          "internalType": "address",
          "name": "newOwner",
          "type": "address"
        }
      ],
      "name": "OwnershipTransferred",
      "type": "event"
    },
    {
      "anonymous": false,
      "inputs": [
        {
          "indexed": true,
          "internalType": "address",
          "name": "playerAddress",
          "type": "address"
        },
        {
          "indexed": false,
          "internalType": "uint256",
          "name": "amount",
          "type": "uint256"
        }
      ],
      "name": "PearDeposited",
      "type": "event"
    },
    {
      "anonymous": false,
      "inputs": [
        {
          "indexed": true,
          "internalType": "address",
          "name": "playerAddress",
          "type": "address"
        },
        {
          "indexed": false,
          "internalType": "uint256",
          "name": "amount",
          "type": "uint256"
        }
      ],
      "name": "PlayerWithdrawal",
      "type": "event"
    },
    {
      "anonymous": false,
      "inputs": [
        {
          "indexed": true,
          "internalType": "address",
          "name": "playerAddress",
          "type": "address"
        },
        {
          "indexed": false,
          "internalType": "uint256",
          "name": "amount",
          "type": "uint256"
        },
        {
          "indexed": false,
          "internalType": "enum PearToken.WithdrawTo",
          "name": "to",
          "type": "uint8"
        }
      ],
      "name": "PrizeClaimed",
      "type": "event"
    },
    {
      "anonymous": false,
      "inputs": [
        {
          "indexed": true,
          "internalType": "address",
          "name": "from",
          "type": "address"
        },
        {
          "indexed": true,
          "internalType": "address",
          "name": "to",
          "type": "address"
        },
        {
          "indexed": false,
          "internalType": "uint256",
          "name": "value",
          "type": "uint256"
        }
      ],
      "name": "Transfer",
      "type": "event"
    },
    {
      "inputs": [],
      "name": "INITIAL_SUPPLY",
      "outputs": [
        {
          "internalType": "uint256",
          "name": "",
          "type": "uint256"
        }
      ],
      "stateMutability": "view",
      "type": "function"
    },
    {
      "inputs": [
        {
          "internalType": "address",
          "name": "player",
          "type": "address"
        },
        {
          "internalType": "uint256",
          "name": "entryAmount",
          "type": "uint256"
        }
      ],
      "name": "addEntryQueueBalance",
      "outputs": [],
      "stateMutability": "nonpayable",
      "type": "function"
    },
    {
      "inputs": [
        {
          "internalType": "address",
          "name": "owner",
          "type": "address"
        },
        {
          "internalType": "address",
          "name": "spender",
          "type": "address"
        }
      ],
      "name": "allowance",
      "outputs": [
        {
          "internalType": "uint256",
          "name": "",
          "type": "uint256"
        }
      ],
      "stateMutability": "view",
      "type": "function"
    },
    {
      "inputs": [
        {
          "internalType": "address",
          "name": "spender",
          "type": "address"
        },
        {
          "internalType": "uint256",
          "name": "amount",
          "type": "uint256"
        }
      ],
      "name": "approve",
      "outputs": [
        {
          "internalType": "bool",
          "name": "",
          "type": "bool"
        }
      ],
      "stateMutability": "nonpayable",
      "type": "function"
    },
    {
      "inputs": [
        {
          "internalType": "address",
          "name": "account",
          "type": "address"
        }
      ],
      "name": "balanceOf",
      "outputs": [
        {
          "internalType": "uint256",
          "name": "",
          "type": "uint256"
        }
      ],
      "stateMutability": "view",
      "type": "function"
    },
    {
      "inputs": [
        {
          "internalType": "uint256",
          "name": "deltaAmount",
          "type": "uint256"
        },
        {
          "internalType": "bool",
          "name": "isMint",
          "type": "bool"
        },
        {
          "internalType": "uint256",
          "name": "rakeAmount",
          "type": "uint256"
        },
        {
          "components": [
            {
              "internalType": "address",
              "name": "player",
              "type": "address"
            },
            {
              "internalType": "uint256",
              "name": "winAmount",
              "type": "uint256"
            },
            {
              "internalType": "uint256",
              "name": "entryAmount",
              "type": "uint256"
            }
          ],
          "internalType": "struct PearToken.PlayerSettle[]",
          "name": "settlements",
          "type": "tuple[]"
        }
      ],
      "name": "batchUpdatePlayerEntries",
      "outputs": [],
      "stateMutability": "nonpayable",
      "type": "function"
    },
    {
      "inputs": [
        {
          "internalType": "enum PearToken.WithdrawTo",
          "name": "to",
          "type": "uint8"
        }
      ],
      "name": "claimPrize",
      "outputs": [],
      "stateMutability": "nonpayable",
      "type": "function"
    },
    {
      "inputs": [],
      "name": "decimals",
      "outputs": [
        {
          "internalType": "uint8",
          "name": "",
          "type": "uint8"
        }
      ],
      "stateMutability": "view",
      "type": "function"
    },
    {
      "inputs": [
        {
          "internalType": "address",
          "name": "spender",
          "type": "address"
        },
        {
          "internalType": "uint256",
          "name": "subtractedValue",
          "type": "uint256"
        }
      ],
      "name": "decreaseAllowance",
      "outputs": [
        {
          "internalType": "bool",
          "name": "",
          "type": "bool"
        }
      ],
      "stateMutability": "nonpayable",
      "type": "function"
    },
    {
      "inputs": [
        {
          "internalType": "uint256",
          "name": "depositAmount",
          "type": "uint256"
        }
      ],
      "name": "depositIntoEscrow",
      "outputs": [],
      "stateMutability": "nonpayable",
      "type": "function"
    },
    {
      "inputs": [],
      "name": "getAllClaimPlayers",
      "outputs": [
        {
          "internalType": "address[]",
          "name": "",
          "type": "address[]"
        }
      ],
      "stateMutability": "view",
      "type": "function"
    },
    {
      "inputs": [
        {
          "internalType": "address",
          "name": "player",
          "type": "address"
        }
      ],
      "name": "getClaimsPrize",
      "outputs": [
        {
          "components": [
            {
              "internalType": "uint256",
              "name": "queueAmount",
              "type": "uint256"
            },
            {
              "internalType": "uint256",
              "name": "prizeAmount",
              "type": "uint256"
            },
            {
              "internalType": "uint256",
              "name": "depositAmount",
              "type": "uint256"
            },
            {
              "internalType": "uint256",
              "name": "interestAmount",
              "type": "uint256"
            },
            {
              "internalType": "bool",
              "name": "doesExist",
              "type": "bool"
            }
          ],
          "internalType": "struct PearToken.Prize",
          "name": "",
          "type": "tuple"
        }
      ],
      "stateMutability": "view",
      "type": "function"
    },
    {
      "inputs": [
        {
          "internalType": "address",
          "name": "spender",
          "type": "address"
        },
        {
          "internalType": "uint256",
          "name": "addedValue",
          "type": "uint256"
        }
      ],
      "name": "increaseAllowance",
      "outputs": [
        {
          "internalType": "bool",
          "name": "",
          "type": "bool"
        }
      ],
      "stateMutability": "nonpayable",
      "type": "function"
    },
    {
      "inputs": [],
      "name": "name",
      "outputs": [
        {
          "internalType": "string",
          "name": "",
          "type": "string"
        }
      ],
      "stateMutability": "view",
      "type": "function"
    },
    {
      "inputs": [],
      "name": "owner",
      "outputs": [
        {
          "internalType": "address",
          "name": "",
          "type": "address"
        }
      ],
      "stateMutability": "view",
      "type": "function"
    },
    {
      "inputs": [],
      "name": "pearTake",
      "outputs": [
        {
          "internalType": "uint256",
          "name": "",
          "type": "uint256"
        }
      ],
      "stateMutability": "view",
      "type": "function"
    },
    {
      "inputs": [],
      "name": "renounceOwnership",
      "outputs": [],
      "stateMutability": "nonpayable",
      "type": "function"
    },
    {
      "inputs": [],
      "name": "symbol",
      "outputs": [
        {
          "internalType": "string",
          "name": "",
          "type": "string"
        }
      ],
      "stateMutability": "view",
      "type": "function"
    },
    {
      "inputs": [],
      "name": "totalSupply",
      "outputs": [
        {
          "internalType": "uint256",
          "name": "",
          "type": "uint256"
        }
      ],
      "stateMutability": "view",
      "type": "function"
    },
    {
      "inputs": [
        {
          "internalType": "address",
          "name": "to",
          "type": "address"
        },
        {
          "internalType": "uint256",
          "name": "amount",
          "type": "uint256"
        }
      ],
      "name": "transfer",
      "outputs": [
        {
          "internalType": "bool",
          "name": "",
          "type": "bool"
        }
      ],
      "stateMutability": "nonpayable",
      "type": "function"
    },
    {
      "inputs": [
        {
          "internalType": "address",
          "name": "from",
          "type": "address"
        },
        {
          "internalType": "address",
          "name": "to",
          "type": "address"
        },
        {
          "internalType": "uint256",
          "name": "amount",
          "type": "uint256"
        }
      ],
      "name": "transferFrom",
      "outputs": [
        {
          "internalType": "bool",
          "name": "",
          "type": "bool"
        }
      ],
      "stateMutability": "nonpayable",
      "type": "function"
    },
    {
      "inputs": [
        {
          "internalType": "address",
          "name": "newOwner",
          "type": "address"
        }
      ],
      "name": "transferOwnership",
      "outputs": [],
      "stateMutability": "nonpayable",
      "type": "function"
    },
    {
      "inputs": [
        {
          "internalType": "address",
          "name": "player",
          "type": "address"
        },
        {
          "internalType": "uint256",
          "name": "entryAmount",
          "type": "uint256"
        },
        {
          "internalType": "uint256",
          "name": "winAmount",
          "type": "uint256"
        },
        {
          "internalType": "uint256",
          "name": "isMint",
          "type": "uint256"
        }
      ],
      "name": "updateClaimsPrize",
      "outputs": [],
      "stateMutability": "nonpayable",
      "type": "function"
    },
    {
      "inputs": [
        {
          "internalType": "uint256",
          "name": "amount",
          "type": "uint256"
        }
      ],
      "name": "withdrawFromEscrow",
      "outputs": [],
      "stateMutability": "nonpayable",
      "type": "function"
    }
  ],
  "bytecode": "0x608060405260006009553480156200001657600080fd5b50604051806040016040528060048152602001632832b0b960e11b815250604051806040016040528060048152602001632822a0a960e11b815250816003908051906020019062000069929190620001fd565b5080516200007f906004906020840190620001fd565b5050506200009c62000096620000bf60201b60201c565b620000c3565b6001600655620000b9336ba18f07d736b90be55000000062000115565b62000307565b3390565b600580546001600160a01b038381166001600160a01b0319831681179093556040519116919082907f8be0079c531659141344cd1fd0a4f28419497f9722a3daafe3b4186f6b6457e090600090a35050565b6001600160a01b038216620001705760405162461bcd60e51b815260206004820152601f60248201527f45524332303a206d696e7420746f20746865207a65726f206164647265737300604482015260640160405180910390fd5b8060026000828254620001849190620002a3565b90915550506001600160a01b03821660009081526020819052604081208054839290620001b3908490620002a3565b90915550506040518181526001600160a01b038316906000907fddf252ad1be2c89b69c2b068fc378daa952ba7f163c4a11628f55a4df523b3ef9060200160405180910390a35050565b8280546200020b90620002ca565b90600052602060002090601f0160209004810192826200022f57600085556200027a565b82601f106200024a57805160ff19168380011785556200027a565b828001600101855582156200027a579182015b828111156200027a5782518255916020019190600101906200025d565b50620002889291506200028c565b5090565b5b808211156200028857600081556001016200028d565b60008219821115620002c557634e487b7160e01b600052601160045260246000fd5b500190565b600181811c90821680620002df57607f821691505b602082108114156200030157634e487b7160e01b600052602260045260246000fd5b50919050565b61202280620003176000396000f3fe608060405234801561001057600080fd5b50600436106101985760003560e01c8063715018a6116100e3578063be47afda1161008c578063ce55bbb711610066578063ce55bbb714610388578063dd62ed3e1461039b578063f2fde38b146103d457600080fd5b8063be47afda1461030b578063c80ac49c1461031e578063c864ce561461037557600080fd5b8063a457c2d7116100bd578063a457c2d7146102d2578063a68ccd7e146102e5578063a9059cbb146102f857600080fd5b8063715018a6146102a75780638da5cb5b146102af57806395d89b41146102ca57600080fd5b8063313ce567116101455780633e7adefa1161011f5780633e7adefa146102625780634fad3e2b1461026b57806370a082311461027e57600080fd5b8063313ce5671461022b5780633635f1d11461023a578063395093511461024f57600080fd5b806323b872dd1161017657806323b872dd146101f05780632dec2be3146102035780632ff2e9dc1461021857600080fd5b806306fdde031461019d578063095ea7b3146101bb57806318160ddd146101de575b600080fd5b6101a56103e7565b6040516101b29190611b51565b60405180910390f35b6101ce6101c9366004611bc2565b610479565b60405190151581526020016101b2565b6002545b6040519081526020016101b2565b6101ce6101fe366004611bec565b610491565b61020b6104b5565b6040516101b29190611c28565b6101e26ba18f07d736b90be55000000081565b604051601281526020016101b2565b61024d610248366004611c75565b610519565b005b6101ce61025d366004611bc2565b61066f565b6101e260095481565b61024d610279366004611d2c565b6106ae565b6101e261028c366004611e2c565b6001600160a01b031660009081526020819052604090205490565b61024d610811565b6005546040516001600160a01b0390911681526020016101b2565b6101a5610877565b6101ce6102e0366004611bc2565b610886565b61024d6102f3366004611bc2565b610930565b6101ce610306366004611bc2565b610b48565b61024d610319366004611e47565b610b56565b61033161032c366004611e2c565b610ecb565b6040516101b29190600060a0820190508251825260208301516020830152604083015160408301526060830151606083015260808301511515608083015292915050565b61024d610383366004611e60565b610f5c565b61024d610396366004611e47565b61128c565b6101e26103a9366004611e81565b6001600160a01b03918216600090815260016020908152604080832093909416825291909152205490565b61024d6103e2366004611e2c565b61138d565b6060600380546103f690611eb4565b80601f016020809104026020016040519081016040528092919081815260200182805461042290611eb4565b801561046f5780601f106104445761010080835404028352916020019161046f565b820191906000526020600020905b81548152906001019060200180831161045257829003601f168201915b5050505050905090565b60003361048781858561146f565b5060019392505050565b60003361049f8582856115c8565b6104aa858585611654565b506001949350505050565b6060600760010180548060200260200160405190810160405280929190818152602001828054801561046f57602002820191906000526020600020905b81546001600160a01b031681526001909101906020018083116104f2575050505050905090565b6001600160a01b03841660009081526007602052604090206004015460ff166105895760405162461bcd60e51b815260206004820152601560248201527f506c6179657220646f6573206e6f74206578697374000000000000000000000060448201526064015b60405180910390fd5b6001600160a01b0384166000908152600760205260409020546105ac908461186b565b6001600160a01b038516600090815260076020526040902055600181141561062e5760006105da838561186b565b90506105e6308261187e565b6001600160a01b03851660009081526007602052604090206001015461060c908461195d565b6001600160a01b03861660009081526007602052604090206001015550610669565b600061063b846032611969565b90506000610649858361186b565b600954909150610659908361195d565b6009556106663082611975565b50505b50505050565b3360008181526001602090815260408083206001600160a01b038716845290915281205490919061048790829086906106a9908790611f05565b61146f565b60008151116106ff5760405162461bcd60e51b815260206004820152601b60248201527f4e6f20736574746c656d656e74732077657265207061737365642e00000000006044820152606401610580565b60005b81518110156107db57600082828151811061071f5761071f611f1d565b60209081029190910181015160408082015182516001600160a01b0316600090815260079094529220549092506107559161186b565b81516001600160a01b0316600090815260076020908152604090912091909155810151156107c85760208082015182516001600160a01b0316600090815260079092526040909120600101546107aa9161195d565b81516001600160a01b03166000908152600760205260409020600101555b50806107d381611f33565b915050610702565b5082156107f1576107ec308561187e565b6107fb565b6107fb3085611975565b600954610808908361195d565b60095550505050565b6005546001600160a01b0316331461086b5760405162461bcd60e51b815260206004820181905260248201527f4f776e61626c653a2063616c6c6572206973206e6f7420746865206f776e65726044820152606401610580565b6108756000611af2565b565b6060600480546103f690611eb4565b3360008181526001602090815260408083206001600160a01b0387168452909152812054909190838110156109235760405162461bcd60e51b815260206004820152602560248201527f45524332303a2064656372656173656420616c6c6f77616e63652062656c6f7760448201527f207a65726f0000000000000000000000000000000000000000000000000000006064820152608401610580565b6104aa828686840361146f565b6001600160a01b03821660009081526007602052604090206004015460ff1661099b5760405162461bcd60e51b815260206004820152601960248201527f506c61796572206d757374206465706f7369742066756e6473000000000000006044820152606401610580565b6001600160a01b038216600090815260076020526040902060018101546002909101546109c79161195d565b811115610a165760405162461bcd60e51b815260206004820152601860248201527f45786365656473206465706f7369742062616c616e63652e00000000000000006044820152606401610580565b6001600160a01b038216600090815260076020526040902060020154811115610ada576001600160a01b038216600090815260076020526040812060020154610a6090839061186b565b6001600160a01b0384166000908152600760205260408120600281019190915560010154909150610a91908261186b565b6001600160a01b0384166000908152600760205260409020600181019190915554610abc908361195d565b6001600160a01b038416600090815260076020526040902055505050565b6001600160a01b038216600090815260076020526040902060020154610b00908261186b565b6001600160a01b0383166000908152600760205260409020600281019190915554610b2b908261195d565b6001600160a01b0383166000908152600760205260409020555050565b600033610487818585611654565b60026006541415610ba95760405162461bcd60e51b815260206004820152601f60248201527f5265656e7472616e637947756172643a207265656e7472616e742063616c6c006044820152606401610580565b60026006553360009081526007602052604090206004015460ff16610c105760405162461bcd60e51b815260206004820181905260248201527f506c6179657220646f6573206e6f7420657869737420696e20657363726f772e6044820152606401610580565b3360009081526007602052604081206001810154600290910154610c339161195d565b11610c805760405162461bcd60e51b815260206004820152601a60248201527f4e6f7468696e6720696e206465706f7369742062616c616e63650000000000006044820152606401610580565b33600090815260076020526040902060018101546002909101548291610ca6919061195d565b1015610cf45760405162461bcd60e51b815260206004820152601760248201527f45786365656473206465706f7369742062616c616e63650000000000000000006044820152606401610580565b33600090815260076020526040902060020154811115610d6d5733600090815260076020526040812060020154610d2c90839061186b565b336000908152600760205260408120600281019190915560010154909150610d54908261186b565b3360009081526007602052604090206001015550610d9e565b33600090815260076020526040902060020154610d8a908261186b565b336000908152600760205260409020600201555b60405163095ea7b360e01b815233600482015260248101829052309063095ea7b390604401602060405180830381600087803b158015610ddd57600080fd5b505af1158015610df1573d6000803e3d6000fd5b505050506040513d601f19601f82011682018060405250810190610e159190611f4e565b5060405163a9059cbb60e01b815233600482015260248101829052309063a9059cbb90604401602060405180830381600087803b158015610e5557600080fd5b505af1158015610e69573d6000803e3d6000fd5b505050506040513d601f19601f82011682018060405250810190610e8d9190611f4e565b5060405181815233907fcb15aee0e66e2dd6413ec4a90b1cda19a3b024148655e9017356e0a82d7e855b9060200160405180910390a2506001600655565b610eff6040518060a00160405280600081526020016000815260200160008152602001600081526020016000151581525090565b506001600160a01b0316600090815260076020908152604091829020825160a081018452815481526001820154928101929092526002810154928201929092526003820154606082015260049091015460ff161515608082015290565b60026006541415610faf5760405162461bcd60e51b815260206004820152601f60248201527f5265656e7472616e637947756172643a207265656e7472616e742063616c6c006044820152606401610580565b60026006553360009081526007602052604090206004015460ff166110165760405162461bcd60e51b815260206004820181905260248201527f506c6179657220646f6573206e6f7420657869737420696e20657363726f772e6044820152606401610580565b336000908152600760205260409020600101546110755760405162461bcd60e51b815260206004820152601e60248201527f506c6179657220686173206e6f207072697a657320746f20636c61696d2e00006044820152606401610580565b3360009081526007602052604090206001908101549082600181111561109d5761109d611f6b565b141561111e573360009081526007602052604081206001810191909155600201546110c8908261195d565b33600081815260076020526040908190206002019290925590517f53e3c45643a014901c16ab423f86c7d01176630d62d4adef2c2396f539fc6567906111119084908690611f81565b60405180910390a2611283565b600082600181111561113257611132611f6b565b14156112835733600081815260076020526040808220600101919091555163095ea7b360e01b8152600481019190915260248101829052309063095ea7b390604401602060405180830381600087803b15801561118e57600080fd5b505af11580156111a2573d6000803e3d6000fd5b505050506040513d601f19601f820116820180604052508101906111c69190611f4e565b5060405163a9059cbb60e01b815233600482015260248101829052309063a9059cbb90604401602060405180830381600087803b15801561120657600080fd5b505af115801561121a573d6000803e3d6000fd5b505050506040513d601f19601f8201168201806040525081019061123e9190611f4e565b50336001600160a01b03167f53e3c45643a014901c16ab423f86c7d01176630d62d4adef2c2396f539fc6567828460405161127a929190611f81565b60405180910390a25b50506001600655565b611297333083611654565b3360009081526007602052604090206004015460ff1661131c576008805460018181019092557ff3f7a9fe364faab93b216da50a3214154f22a0a2b415b23a84c8169e8b636ee301805473ffffffffffffffffffffffffffffffffffffffff1916339081179091556000908152600760205260409020600401805460ff191690911790555b33600090815260076020526040902060020154611339908261195d565b33600081815260076020526040908190206002019290925590517fe31560b5c7087756260bab257ddb02572dfe8cd6373a25c1fd673d0adb39b9d4906113829084815260200190565b60405180910390a250565b6005546001600160a01b031633146113e75760405162461bcd60e51b815260206004820181905260248201527f4f776e61626c653a2063616c6c6572206973206e6f7420746865206f776e65726044820152606401610580565b6001600160a01b0381166114635760405162461bcd60e51b815260206004820152602660248201527f4f776e61626c653a206e6577206f776e657220697320746865207a65726f206160448201527f64647265737300000000000000000000000000000000000000000000000000006064820152608401610580565b61146c81611af2565b50565b6001600160a01b0383166114ea5760405162461bcd60e51b8152602060048201526024808201527f45524332303a20617070726f76652066726f6d20746865207a65726f2061646460448201527f72657373000000000000000000000000000000000000000000000000000000006064820152608401610580565b6001600160a01b0382166115665760405162461bcd60e51b815260206004820152602260248201527f45524332303a20617070726f766520746f20746865207a65726f20616464726560448201527f73730000000000000000000000000000000000000000000000000000000000006064820152608401610580565b6001600160a01b0383811660008181526001602090815260408083209487168084529482529182902085905590518481527f8c5be1e5ebec7d5bd14f71427d1e84f3dd0314c0f7b2291e5b200ac8c7c3b92591015b60405180910390a3505050565b6001600160a01b03838116600090815260016020908152604080832093861683529290522054600019811461066957818110156116475760405162461bcd60e51b815260206004820152601d60248201527f45524332303a20696e73756666696369656e7420616c6c6f77616e63650000006044820152606401610580565b610669848484840361146f565b6001600160a01b0383166116d05760405162461bcd60e51b815260206004820152602560248201527f45524332303a207472616e736665722066726f6d20746865207a65726f20616460448201527f64726573730000000000000000000000000000000000000000000000000000006064820152608401610580565b6001600160a01b03821661174c5760405162461bcd60e51b815260206004820152602360248201527f45524332303a207472616e7366657220746f20746865207a65726f206164647260448201527f65737300000000000000000000000000000000000000000000000000000000006064820152608401610580565b6001600160a01b038316600090815260208190526040902054818110156117db5760405162461bcd60e51b815260206004820152602660248201527f45524332303a207472616e7366657220616d6f756e742065786365656473206260448201527f616c616e636500000000000000000000000000000000000000000000000000006064820152608401610580565b6001600160a01b03808516600090815260208190526040808220858503905591851681529081208054849290611812908490611f05565b92505081905550826001600160a01b0316846001600160a01b03167fddf252ad1be2c89b69c2b068fc378daa952ba7f163c4a11628f55a4df523b3ef8460405161185e91815260200190565b60405180910390a3610669565b60006118778284611fb3565b9392505050565b6001600160a01b0382166118d45760405162461bcd60e51b815260206004820152601f60248201527f45524332303a206d696e7420746f20746865207a65726f2061646472657373006044820152606401610580565b80600260008282546118e69190611f05565b90915550506001600160a01b03821660009081526020819052604081208054839290611913908490611f05565b90915550506040518181526001600160a01b038316906000907fddf252ad1be2c89b69c2b068fc378daa952ba7f163c4a11628f55a4df523b3ef9060200160405180910390a35050565b60006118778284611f05565b60006118778284611fca565b6001600160a01b0382166119f15760405162461bcd60e51b815260206004820152602160248201527f45524332303a206275726e2066726f6d20746865207a65726f2061646472657360448201527f73000000000000000000000000000000000000000000000000000000000000006064820152608401610580565b6001600160a01b03821660009081526020819052604090205481811015611a805760405162461bcd60e51b815260206004820152602260248201527f45524332303a206275726e20616d6f756e7420657863656564732062616c616e60448201527f63650000000000000000000000000000000000000000000000000000000000006064820152608401610580565b6001600160a01b0383166000908152602081905260408120838303905560028054849290611aaf908490611fb3565b90915550506040518281526000906001600160a01b038516907fddf252ad1be2c89b69c2b068fc378daa952ba7f163c4a11628f55a4df523b3ef906020016115bb565b600580546001600160a01b0383811673ffffffffffffffffffffffffffffffffffffffff19831681179093556040519116919082907f8be0079c531659141344cd1fd0a4f28419497f9722a3daafe3b4186f6b6457e090600090a35050565b600060208083528351808285015260005b81811015611b7e57858101830151858201604001528201611b62565b81811115611b90576000604083870101525b50601f01601f1916929092016040019392505050565b80356001600160a01b0381168114611bbd57600080fd5b919050565b60008060408385031215611bd557600080fd5b611bde83611ba6565b946020939093013593505050565b600080600060608486031215611c0157600080fd5b611c0a84611ba6565b9250611c1860208501611ba6565b9150604084013590509250925092565b6020808252825182820181905260009190848201906040850190845b81811015611c695783516001600160a01b031683529284019291840191600101611c44565b50909695505050505050565b60008060008060808587031215611c8b57600080fd5b611c9485611ba6565b966020860135965060408601359560600135945092505050565b801515811461146c57600080fd5b634e487b7160e01b600052604160045260246000fd5b6040516060810167ffffffffffffffff81118282101715611cf557611cf5611cbc565b60405290565b604051601f8201601f1916810167ffffffffffffffff81118282101715611d2457611d24611cbc565b604052919050565b60008060008060808587031215611d4257600080fd5b84359350602080860135611d5581611cae565b9350604086810135935060608088013567ffffffffffffffff80821115611d7b57600080fd5b818a0191508a601f830112611d8f57600080fd5b813581811115611da157611da1611cbc565b611daf868260051b01611cfb565b818152868101925090840283018601908c821115611dcc57600080fd5b928601925b81841015611e1b5784848e031215611de95760008081fd5b611df1611cd2565b611dfa85611ba6565b81528488013588820152868501358782015283529284019291860191611dd1565b999c989b5096995050505050505050565b600060208284031215611e3e57600080fd5b61187782611ba6565b600060208284031215611e5957600080fd5b5035919050565b600060208284031215611e7257600080fd5b81356002811061187757600080fd5b60008060408385031215611e9457600080fd5b611e9d83611ba6565b9150611eab60208401611ba6565b90509250929050565b600181811c90821680611ec857607f821691505b60208210811415611ee957634e487b7160e01b600052602260045260246000fd5b50919050565b634e487b7160e01b600052601160045260246000fd5b60008219821115611f1857611f18611eef565b500190565b634e487b7160e01b600052603260045260246000fd5b6000600019821415611f4757611f47611eef565b5060010190565b600060208284031215611f6057600080fd5b815161187781611cae565b634e487b7160e01b600052602160045260246000fd5b8281526040810160028310611fa657634e487b7160e01b600052602160045260246000fd5b8260208301529392505050565b600082821015611fc557611fc5611eef565b500390565b600082611fe757634e487b7160e01b600052601260045260246000fd5b50049056fea26469706673582212206c3fd916aa3330137c229298964810c423c0d480f345e156c0fe2cc38f2454fa64736f6c63430008090033",
  "linkReferences": {},
  "deployedLinkReferences": {}
}