{
  "_format": "hh-sol-artifact-1",
  "contractName": "PearGame",
  "sourceName": "contracts/PearGame.sol",
  "abi": [
    {
      "inputs": [
        {
          "internalType": "address",
          "name": "_pearTokenAddress",
          "type": "address"
        }
      ],
      "stateMutability": "nonpayable",
      "type": "constructor"
    },
    {
      "anonymous": false,
      "inputs": [
        {
          "indexed": true,
          "internalType": "uint256",
          "name": "entryId",
          "type": "uint256"
        },
        {
          "indexed": true,
          "internalType": "address",
          "name": "player",
          "type": "address"
        },
        {
          "indexed": false,
          "internalType": "uint256",
          "name": "totalEntryAmount",
          "type": "uint256"
        },
        {
          "indexed": false,
          "internalType": "uint256",
          "name": "wagerCount",
          "type": "uint256"
        },
        {
          "indexed": false,
          "internalType": "uint256",
          "name": "idx",
          "type": "uint256"
        }
      ],
      "name": "EntryBatchSubmitted",
      "type": "event"
    },
    {
      "anonymous": false,
      "inputs": [
        {
          "indexed": true,
          "internalType": "uint256",
          "name": "entryId",
          "type": "uint256"
        },
        {
          "indexed": true,
          "internalType": "address",
          "name": "player",
          "type": "address"
        },
        {
          "indexed": false,
          "internalType": "uint256",
          "name": "amount",
          "type": "uint256"
        }
      ],
      "name": "EntryRefunded",
      "type": "event"
    },
    {
      "anonymous": false,
      "inputs": [
        {
          "indexed": true,
          "internalType": "uint256",
          "name": "entryId",
          "type": "uint256"
        },
        {
          "indexed": true,
          "internalType": "address",
          "name": "player",
          "type": "address"
        },
        {
          "indexed": false,
          "internalType": "uint256",
          "name": "amount",
          "type": "uint256"
        },
        {
          "indexed": false,
          "internalType": "uint256",
          "name": "result",
          "type": "uint256"
        },
        {
          "indexed": false,
          "internalType": "uint256",
          "name": "winAmount",
          "type": "uint256"
        },
        {
          "indexed": false,
          "internalType": "uint256",
          "name": "idx",
          "type": "uint256"
        }
      ],
      "name": "EntrySettled",
      "type": "event"
    },
    {
      "anonymous": false,
      "inputs": [
        {
          "indexed": true,
          "internalType": "uint256",
          "name": "entryId",
          "type": "uint256"
        },
        {
          "indexed": true,
          "internalType": "address",
          "name": "player",
          "type": "address"
        },
        {
          "indexed": false,
          "internalType": "uint256",
          "name": "amount",
          "type": "uint256"
        },
        {
          "indexed": false,
          "internalType": "uint256",
          "name": "pickedNumber",
          "type": "uint256"
        },
        {
          "indexed": false,
          "internalType": "enum PearGame.GameMode",
          "name": "gameMode",
          "type": "uint8"
        },
        {
          "indexed": false,
          "internalType": "uint256",
          "name": "idx",
          "type": "uint256"
        }
      ],
      "name": "EntrySubmitted",
      "type": "event"
    },
    {
      "anonymous": false,
      "inputs": [
        {
          "indexed": true,
          "internalType": "address",
          "name": "previousOwner",
          "type": "address"
        },
        {
          "indexed": true,
          "internalType": "address",
          "name": "newOwner",
          "type": "address"
        }
      ],
      "name": "OwnershipTransferred",
      "type": "event"
    },
    {
      "anonymous": false,
      "inputs": [
        {
          "indexed": true,
          "internalType": "uint256",
          "name": "roundId",
          "type": "uint256"
        },
        {
          "indexed": false,
          "internalType": "uint256",
          "name": "randomness",
          "type": "uint256"
        },
        {
          "indexed": false,
          "internalType": "bytes32",
          "name": "requestId",
          "type": "bytes32"
        },
        {
          "indexed": false,
          "internalType": "uint256",
          "name": "randomNumStr",
          "type": "uint256"
        }
      ],
      "name": "RandomNumberFetched",
      "type": "event"
    },
    {
      "anonymous": false,
      "inputs": [
        {
          "indexed": true,
          "internalType": "uint256",
          "name": "roundId",
          "type": "uint256"
        },
        {
          "indexed": false,
          "internalType": "uint256",
          "name": "amountMinted",
          "type": "uint256"
        },
        {
          "indexed": false,
          "internalType": "uint256",
          "name": "amountBurned",
          "type": "uint256"
        },
        {
          "indexed": false,
          "internalType": "uint256",
          "name": "pickedNumber",
          "type": "uint256"
        }
      ],
      "name": "RoundConcluded",
      "type": "event"
    },
    {
      "inputs": [],
      "name": "PEAR_DECIMALS",
      "outputs": [
        {
          "internalType": "uint256",
          "name": "",
          "type": "uint256"
        }
      ],
      "stateMutability": "view",
      "type": "function"
    },
    {
      "inputs": [],
      "name": "balance",
      "outputs": [
        {
          "internalType": "uint256",
          "name": "",
          "type": "uint256"
        }
      ],
      "stateMutability": "view",
      "type": "function"
    },
    {
      "inputs": [
        {
          "internalType": "uint256",
          "name": "",
          "type": "uint256"
        },
        {
          "internalType": "uint256",
          "name": "",
          "type": "uint256"
        }
      ],
      "name": "batchMap",
      "outputs": [
        {
          "internalType": "uint256",
          "name": "blockNum",
          "type": "uint256"
        },
        {
          "internalType": "address",
          "name": "player",
          "type": "address"
        },
        {
          "internalType": "bool",
          "name": "isSettled",
          "type": "bool"
        },
        {
          "internalType": "uint256",
          "name": "totalEntryAmount",
          "type": "uint256"
        },
        {
          "internalType": "uint256",
          "name": "totalWinAmount",
          "type": "uint256"
        },
        {
          "internalType": "uint256",
          "name": "wagerId",
          "type": "uint256"
        }
      ],
      "stateMutability": "view",
      "type": "function"
    },
    {
      "inputs": [
        {
          "internalType": "uint256",
          "name": "",
          "type": "uint256"
        },
        {
          "internalType": "uint256",
          "name": "",
          "type": "uint256"
        }
      ],
      "name": "batchWagerMap",
      "outputs": [
        {
          "internalType": "uint256",
          "name": "amount",
          "type": "uint256"
        },
        {
          "internalType": "enum PearGame.GameMode",
          "name": "gameMode",
          "type": "uint8"
        },
        {
          "internalType": "uint256",
          "name": "pickedNumber",
          "type": "uint256"
        },
        {
          "internalType": "uint256",
          "name": "winAmount",
          "type": "uint256"
        },
        {
          "internalType": "uint256",
          "name": "result",
          "type": "uint256"
        }
      ],
      "stateMutability": "view",
      "type": "function"
    },
    {
      "inputs": [],
      "name": "currentRoundId",
      "outputs": [
        {
          "internalType": "uint256",
          "name": "",
          "type": "uint256"
        }
      ],
      "stateMutability": "view",
      "type": "function"
    },
    {
      "inputs": [
        {
          "internalType": "uint256",
          "name": "",
          "type": "uint256"
        },
        {
          "internalType": "uint256",
          "name": "",
          "type": "uint256"
        }
      ],
      "name": "entryMap",
      "outputs": [
        {
          "internalType": "uint256",
          "name": "amount",
          "type": "uint256"
        },
        {
          "internalType": "uint256",
          "name": "blockNum",
          "type": "uint256"
        },
        {
          "internalType": "address",
          "name": "player",
          "type": "address"
        },
        {
          "internalType": "uint256",
          "name": "pickedNumber",
          "type": "uint256"
        },
        {
          "internalType": "enum PearGame.GameMode",
          "name": "gameMode",
          "type": "uint8"
        },
        {
          "internalType": "bool",
          "name": "isSettled",
          "type": "bool"
        },
        {
          "internalType": "uint256",
          "name": "result",
          "type": "uint256"
        },
        {
          "internalType": "uint256",
          "name": "winAmount",
          "type": "uint256"
        }
      ],
      "stateMutability": "view",
      "type": "function"
    },
    {
      "inputs": [],
      "name": "gameEdge",
      "outputs": [
        {
          "internalType": "uint256",
          "name": "",
          "type": "uint256"
        }
      ],
      "stateMutability": "view",
      "type": "function"
    },
    {
      "inputs": [
        {
          "internalType": "uint256",
          "name": "roundId",
          "type": "uint256"
        }
      ],
      "name": "getBatchEntries",
      "outputs": [
        {
          "components": [
            {
              "internalType": "uint256",
              "name": "blockNum",
              "type": "uint256"
            },
            {
              "internalType": "address",
              "name": "player",
              "type": "address"
            },
            {
              "internalType": "bool",
              "name": "isSettled",
              "type": "bool"
            },
            {
              "internalType": "uint256",
              "name": "totalEntryAmount",
              "type": "uint256"
            },
            {
              "internalType": "uint256",
              "name": "totalWinAmount",
              "type": "uint256"
            },
            {
              "internalType": "uint256",
              "name": "wagerId",
              "type": "uint256"
            }
          ],
          "internalType": "struct PearGame.BatchEntry[]",
          "name": "",
          "type": "tuple[]"
        }
      ],
      "stateMutability": "view",
      "type": "function"
    },
    {
      "inputs": [
        {
          "internalType": "uint256",
          "name": "wagerId",
          "type": "uint256"
        }
      ],
      "name": "getBatchWagerEntries",
      "outputs": [
        {
          "components": [
            {
              "internalType": "uint256",
              "name": "amount",
              "type": "uint256"
            },
            {
              "internalType": "enum PearGame.GameMode",
              "name": "gameMode",
              "type": "uint8"
            },
            {
              "internalType": "uint256",
              "name": "pickedNumber",
              "type": "uint256"
            },
            {
              "internalType": "uint256",
              "name": "winAmount",
              "type": "uint256"
            },
            {
              "internalType": "uint256",
              "name": "result",
              "type": "uint256"
            }
          ],
          "internalType": "struct PearGame.Wager[]",
          "name": "",
          "type": "tuple[]"
        }
      ],
      "stateMutability": "view",
      "type": "function"
    },
    {
      "inputs": [],
      "name": "getRandomNumber",
      "outputs": [
        {
          "internalType": "bytes32",
          "name": "requestId",
          "type": "bytes32"
        }
      ],
      "stateMutability": "nonpayable",
      "type": "function"
    },
    {
      "inputs": [
        {
          "internalType": "uint256",
          "name": "roundId",
          "type": "uint256"
        }
      ],
      "name": "getRoundEntries",
      "outputs": [
        {
          "components": [
            {
              "internalType": "uint256",
              "name": "amount",
              "type": "uint256"
            },
            {
              "internalType": "uint256",
              "name": "blockNum",
              "type": "uint256"
            },
            {
              "internalType": "address",
              "name": "player",
              "type": "address"
            },
            {
              "internalType": "uint256",
              "name": "pickedNumber",
              "type": "uint256"
            },
            {
              "internalType": "enum PearGame.GameMode",
              "name": "gameMode",
              "type": "uint8"
            },
            {
              "internalType": "bool",
              "name": "isSettled",
              "type": "bool"
            },
            {
              "internalType": "uint256",
              "name": "result",
              "type": "uint256"
            },
            {
              "internalType": "uint256",
              "name": "winAmount",
              "type": "uint256"
            }
          ],
          "internalType": "struct PearGame.PlayerEntry[]",
          "name": "",
          "type": "tuple[]"
        }
      ],
      "stateMutability": "view",
      "type": "function"
    },
    {
      "inputs": [],
      "name": "maxPearAmount",
      "outputs": [
        {
          "internalType": "uint256",
          "name": "",
          "type": "uint256"
        }
      ],
      "stateMutability": "view",
      "type": "function"
    },
    {
      "inputs": [],
      "name": "minPearAmount",
      "outputs": [
        {
          "internalType": "uint256",
          "name": "",
          "type": "uint256"
        }
      ],
      "stateMutability": "view",
      "type": "function"
    },
    {
      "inputs": [],
      "name": "owner",
      "outputs": [
        {
          "internalType": "address",
          "name": "",
          "type": "address"
        }
      ],
      "stateMutability": "view",
      "type": "function"
    },
    {
      "inputs": [],
      "name": "pearTokenAddress",
      "outputs": [
        {
          "internalType": "address",
          "name": "",
          "type": "address"
        }
      ],
      "stateMutability": "view",
      "type": "function"
    },
    {
      "inputs": [
        {
          "components": [
            {
              "internalType": "uint256",
              "name": "amount",
              "type": "uint256"
            },
            {
              "internalType": "enum PearGame.GameMode",
              "name": "gameMode",
              "type": "uint8"
            },
            {
              "internalType": "uint256",
              "name": "pickedNumber",
              "type": "uint256"
            },
            {
              "internalType": "uint256",
              "name": "winAmount",
              "type": "uint256"
            },
            {
              "internalType": "uint256",
              "name": "result",
              "type": "uint256"
            }
          ],
          "internalType": "struct PearGame.Wager[]",
          "name": "wagers",
          "type": "tuple[]"
        }
      ],
      "name": "placeBets",
      "outputs": [],
      "stateMutability": "nonpayable",
      "type": "function"
    },
    {
      "inputs": [
        {
          "internalType": "uint256",
          "name": "",
          "type": "uint256"
        }
      ],
      "name": "randomMap",
      "outputs": [
        {
          "internalType": "uint256",
          "name": "",
          "type": "uint256"
        }
      ],
      "stateMutability": "view",
      "type": "function"
    },
    {
      "inputs": [
        {
          "internalType": "bytes32",
          "name": "requestId",
          "type": "bytes32"
        },
        {
          "internalType": "uint256",
          "name": "randomness",
          "type": "uint256"
        }
      ],
      "name": "rawFulfillRandomness",
      "outputs": [],
      "stateMutability": "nonpayable",
      "type": "function"
    },
    {
      "inputs": [],
      "name": "renounceOwnership",
      "outputs": [],
      "stateMutability": "nonpayable",
      "type": "function"
    },
    {
      "inputs": [],
      "name": "runRandomBatchSettle",
      "outputs": [],
      "stateMutability": "nonpayable",
      "type": "function"
    },
    {
      "inputs": [],
      "name": "runRandomSettle",
      "outputs": [],
      "stateMutability": "nonpayable",
      "type": "function"
    },
    {
      "inputs": [
        {
          "internalType": "uint256",
          "name": "_gameEdge",
          "type": "uint256"
        }
      ],
      "name": "setGameEdge",
      "outputs": [],
      "stateMutability": "nonpayable",
      "type": "function"
    },
    {
      "inputs": [
        {
          "internalType": "uint256",
          "name": "_maxPearAmount",
          "type": "uint256"
        }
      ],
      "name": "setMaxPearAmount",
      "outputs": [],
      "stateMutability": "nonpayable",
      "type": "function"
    },
    {
      "inputs": [
        {
          "internalType": "uint256",
          "name": "_minPearAmount",
          "type": "uint256"
        }
      ],
      "name": "setMinPearAmount",
      "outputs": [],
      "stateMutability": "nonpayable",
      "type": "function"
    },
    {
      "inputs": [
        {
          "internalType": "string",
          "name": "_str",
          "type": "string"
        }
      ],
      "name": "strToUint",
      "outputs": [
        {
          "internalType": "uint256",
          "name": "res",
          "type": "uint256"
        }
      ],
      "stateMutability": "pure",
      "type": "function"
    },
    {
      "inputs": [
        {
          "internalType": "uint256",
          "name": "amount",
          "type": "uint256"
        },
        {
          "internalType": "uint256",
          "name": "pickedNumber",
          "type": "uint256"
        },
        {
          "internalType": "enum PearGame.GameMode",
          "name": "gameMode",
          "type": "uint8"
        }
      ],
      "name": "submitEntry",
      "outputs": [],
      "stateMutability": "nonpayable",
      "type": "function"
    },
    {
      "inputs": [],
      "name": "testRandom",
      "outputs": [],
      "stateMutability": "payable",
      "type": "function"
    },
    {
      "inputs": [
        {
          "internalType": "address",
          "name": "newOwner",
          "type": "address"
        }
      ],
      "name": "transferOwnership",
      "outputs": [],
      "stateMutability": "nonpayable",
      "type": "function"
    },
    {
      "inputs": [
        {
          "internalType": "bytes32",
          "name": "",
          "type": "bytes32"
        }
      ],
      "name": "vrfMap",
      "outputs": [
        {
          "internalType": "uint256",
          "name": "",
          "type": "uint256"
        }
      ],
      "stateMutability": "view",
      "type": "function"
    },
    {
      "inputs": [],
      "name": "wagerId",
      "outputs": [
        {
          "internalType": "uint256",
          "name": "",
          "type": "uint256"
        }
      ],
      "stateMutability": "view",
      "type": "function"
    }
  ],
  "bytecode": "0x60c06040526064600455670de0b6b3a764000060055569d3c21bcecceda100000060065560006007556000600d553480156200003a57600080fd5b5060405162003274380380620032748339810160408190526200005d916200014a565b6001600055738c7382f9d8f56b33781fe506e897a4f1e2d1725573326c977e6efc84e512bb9c30f76e30c160ed06fb6200009733620000f8565b6001600160a01b0391821660a0528116608052600380546001600160a01b031916929091169190911790557f6e75b569a01ef56d18cab6a8e71e6600d6ce853834d4a5748b720d06f878b3a460085567016345785d8a00006009556200017c565b600180546001600160a01b038381166001600160a01b0319831681179093556040519116919082907f8be0079c531659141344cd1fd0a4f28419497f9722a3daafe3b4186f6b6457e090600090a35050565b6000602082840312156200015d57600080fd5b81516001600160a01b03811681146200017557600080fd5b9392505050565b60805160a0516130c4620001b060003960008181610ff60152612441015260008181611487015261241201526130c46000f3fe6080604052600436106101cd5760003560e01c80639cbe5efd116100f7578063ce9ded2f11610095578063dbdff2c111610064578063dbdff2c11461057f578063f2fde38b14610594578063fa5fedbe146105b4578063fbddd14b146105ca57600080fd5b8063ce9ded2f146104c2578063d14ce2ac146104d7578063d243b38e14610532578063d7139df01461055f57600080fd5b8063c4142cb6116100d1578063c4142cb61461043c578063c4260e4b1461046d578063c5ef3ec51461048d578063c6073224146104ad57600080fd5b80639cbe5efd146103fb578063b52be27414610411578063b69ef8a81461042757600080fd5b806361e2b56c1161016f5780638a5dcbf61161013e5780638a5dcbf6146103635780638da5cb5b146103905780638f9e722b146103ae57806394985ddd146103db57600080fd5b806361e2b56c146102ef5780636ec6f7fa14610305578063715018a61461033957806375c54ea91461034e57600080fd5b80632ff6c607116101ab5780632ff6c6071461025557806342b3dfc21461028257806350456eeb146102af5780635d51f19e146102cf57600080fd5b8063033c6298146101d25780632034eadb1461020f57806324f40b9c14610233575b600080fd5b3480156101de57600080fd5b506003546101f2906001600160a01b031681565b6040516001600160a01b0390911681526020015b60405180910390f35b34801561021b57600080fd5b5061022560055481565b604051908152602001610206565b34801561023f57600080fd5b5061025361024e3660046128fb565b6105d2565b005b34801561026157600080fd5b506102756102703660046129ea565b610936565b6040516102069190612a03565b34801561028e57600080fd5b506102a261029d3660046129ea565b6109ef565b6040516102069190612abe565b3480156102bb57600080fd5b506102536102ca366004612b53565b610aee565b3480156102db57600080fd5b506102536102ea3660046129ea565b610dec565b3480156102fb57600080fd5b5061022560065481565b34801561031157600080fd5b50610325610320366004612b88565b610e4b565b604051610206989796959493929190612baa565b34801561034557600080fd5b50610253610ebd565b34801561035a57600080fd5b50610225601281565b34801561036f57600080fd5b5061038361037e3660046129ea565b610f23565b6040516102069190612bfb565b34801561039c57600080fd5b506001546001600160a01b03166101f2565b3480156103ba57600080fd5b506102256103c93660046129ea565b600e6020526000908152604090205481565b3480156103e757600080fd5b506102536103f6366004612b88565b610feb565b34801561040757600080fd5b5061022560075481565b34801561041d57600080fd5b50610225600d5481565b34801561043357600080fd5b50610225611071565b34801561044857600080fd5b5061045c610457366004612b88565b6110f2565b604051610206959493929190612c65565b34801561047957600080fd5b506102536104883660046129ea565b611144565b34801561049957600080fd5b506102256104a8366004612c95565b6111a3565b3480156104b957600080fd5b50610253611298565b3480156104ce57600080fd5b5061025361131e565b3480156104e357600080fd5b506104f76104f2366004612b88565b6113a1565b604080519687526001600160a01b039095166020870152921515938501939093526060840152608083019190915260a082015260c001610206565b34801561053e57600080fd5b5061022561054d3660046129ea565b600f6020526000908152604090205481565b34801561056b57600080fd5b5061025361057a3660046129ea565b611404565b34801561058b57600080fd5b50610225611463565b3480156105a057600080fd5b506102536105af366004612d2a565b61155d565b3480156105c057600080fd5b5061022560045481565b61025361163c565b6002600054141561062a5760405162461bcd60e51b815260206004820152601f60248201527f5265656e7472616e637947756172643a207265656e7472616e742063616c6c0060448201526064015b60405180910390fd5b60026000908155815190805b828110156107935761066e84828151811061065357610653612d5a565b6020026020010151600001518361164690919063ffffffff16565b9150600c6000600d5481526020019081526020016000206040518060a001604052808684815181106106a2576106a2612d5a565b60200260200101516000015181526020018684815181106106c5576106c5612d5a565b60200260200101516020015160028111156106e2576106e2612a86565b81526020018684815181106106f9576106f9612d5a565b6020908102919091018101516040908101518352600083830181905292018290528354600181810186559483529181902083516005909302019182558201518184018054939492939192909160ff19169083600281111561075c5761075c612a86565b021790555060408201516002820155606082015160038201556080909101516004909101558061078b81612d86565b915050610636565b506007546000908152600b60209081526040808320815160c081018352438152338185018181528285018781526060840188815260808501898152600d5460a08701908152875460018181018a55988c5299909a20955160059099029095019788559151948701805491511515600160a01b027fffffffffffffffffffffff0000000000000000000000000000000000000000009092166001600160a01b0396871617919091179055516002860155905160038086019190915594516004948501559354915163534666bf60e11b815291169263a68ccd7e9261088c928691016001600160a01b03929092168252602082015260400190565b600060405180830381600087803b1580156108a657600080fd5b505af11580156108ba573d6000803e3d6000fd5b50506007546000818152600b60209081526040918290205482518781529182018890528183015290513394509192507fa6a04e296d0c4e5b67dfd909ee820311bbb7cf98a21785bbbfa25c01a02effe0919081900360600190a36001600d60008282546109279190612da1565b90915550506001600055505050565b6060600b6000838152602001908152602001600020805480602002602001604051908101604052809291908181526020016000905b828210156109e45760008481526020908190206040805160c08101825260058602909201805483526001808201546001600160a01b03811685870152600160a01b900460ff1615159284019290925260028101546060840152600381015460808401526004015460a0830152908352909201910161096b565b505050509050919050565b6060600a6000838152602001908152602001600020805480602002602001604051908101604052809291908181526020016000905b828210156109e4576000848152602090819020604080516101008101825260078602909201805483526001810154938301939093526002808401546001600160a01b031691830191909152600383015460608301526004830154919291608084019160ff90911690811115610a9b57610a9b612a86565b6002811115610aac57610aac612a86565b81526020016004820160019054906101000a900460ff161515151581526020016005820154815260200160068201548152505081526020019060010190610a24565b60026000541415610b415760405162461bcd60e51b815260206004820152601f60248201527f5265656e7472616e637947756172643a207265656e7472616e742063616c6c006044820152606401610621565b60026000556005548310801590610b5a57506006548311155b610ba65760405162461bcd60e51b815260206004820152601d60248201527f456e74727920616d6f756e74206e6f742077697468696e2072616e67650000006044820152606401610621565b6063821115610bf75760405162461bcd60e51b815260206004820152601a60248201527f5069636b6564204e756d626572206e6f7420696e2072616e67650000000000006044820152606401610621565b60035460405163534666bf60e11b8152336004820152602481018590526001600160a01b039091169063a68ccd7e90604401600060405180830381600087803b158015610c4357600080fd5b505af1158015610c57573d6000803e3d6000fd5b50505050600a60006007548152602001908152602001600020604051806101000160405280858152602001438152602001336001600160a01b03168152602001848152602001836002811115610caf57610caf612a86565b8152600060208083018290526040808401839052606093840183905285546001808201885596845292829020855160079094020192835590840151828601558301516002808301805473ffffffffffffffffffffffffffffffffffffffff19166001600160a01b03909316929092179091559183015160038201556080830151600482018054949592949193909260ff1990921691908490811115610d5657610d56612a86565b021790555060a08201516004820180549115156101000261ff001990921691909117905560c0820151600582015560e0909101516006909101556007546000818152600a6020526040908190205490513392917f11b15917a5b444d3903bb77f4ed538330aa084dc63c2444e7a781586759a1d5d91610dda91889188918891612db9565b60405180910390a35050600160005550565b6001546001600160a01b03163314610e465760405162461bcd60e51b815260206004820181905260248201527f4f776e61626c653a2063616c6c6572206973206e6f7420746865206f776e65726044820152606401610621565b600455565b600a6020528160005260406000208181548110610e6757600080fd5b600091825260209091206007909102018054600182015460028301546003840154600485015460058601546006909601549497509295506001600160a01b0390911693909260ff80841693610100900416919088565b6001546001600160a01b03163314610f175760405162461bcd60e51b815260206004820181905260248201527f4f776e61626c653a2063616c6c6572206973206e6f7420746865206f776e65726044820152606401610621565b610f21600061165b565b565b6060600c6000838152602001908152602001600020805480602002602001604051908101604052809291908181526020016000905b828210156109e457838290600052602060002090600502016040518060a0016040529081600082015481526020016001820160009054906101000a900460ff166002811115610fa957610fa9612a86565b6002811115610fba57610fba612a86565b8152602001600282015481526020016003820154815260200160048201548152505081526020019060010190610f58565b336001600160a01b037f000000000000000000000000000000000000000000000000000000000000000016146110635760405162461bcd60e51b815260206004820152601f60248201527f4f6e6c7920565246436f6f7264696e61746f722063616e2066756c66696c6c006044820152606401610621565b61106d82826116ba565b5050565b6003546040516370a0823160e01b81523060048201526000916001600160a01b0316906370a082319060240160206040518083038186803b1580156110b557600080fd5b505afa1580156110c9573d6000803e3d6000fd5b505050506040513d601f19601f820116820180604052508101906110ed9190612de3565b905090565b600c602052816000526040600020818154811061110e57600080fd5b60009182526020909120600590910201805460018201546002830154600384015460049094015492955060ff9091169350919085565b6001546001600160a01b0316331461119e5760405162461bcd60e51b815260206004820181905260248201527f4f776e61626c653a2063616c6c6572206973206e6f7420746865206f776e65726044820152606401610621565b600555565b6000805b825181101561129257600060308483815181106111c6576111c6612d5a565b01602001516111d8919060f81c612dfc565b60ff16108061120f5750600960308483815181106111f8576111f8612d5a565b016020015161120a919060f81c612dfc565b60ff16115b1561121d5750600092915050565b600181845161122c9190612e1f565b6112369190612e1f565b61124190600a612f1a565b603084838151811061125557611255612d5a565b0160200151611267919060f81c612dfc565b60ff166112749190612f26565b61127e9083612da1565b91508061128a81612d86565b9150506111a7565b50919050565b6001546001600160a01b031633146112f25760405162461bcd60e51b815260206004820181905260248201527f4f776e61626c653a2063616c6c6572206973206e6f7420746865206f776e65726044820152606401610621565b60006112fc611744565b6007546000908152600e60205260409020819055905061131b81611857565b50565b6001546001600160a01b031633146113785760405162461bcd60e51b815260206004820181905260248201527f4f776e61626c653a2063616c6c6572206973206e6f7420746865206f776e65726044820152606401610621565b6000611382611744565b6007546000908152600e60205260409020819055905061131b81611f32565b600b60205281600052604060002081815481106113bd57600080fd5b6000918252602090912060059091020180546001820154600283015460038401546004909401549295506001600160a01b0382169450600160a01b90910460ff1692909186565b6001546001600160a01b0316331461145e5760405162461bcd60e51b815260206004820181905260248201527f4f776e61626c653a2063616c6c6572206973206e6f7420746865206f776e65726044820152606401610621565b600655565b6009546040516370a0823160e01b8152306004820152600091906001600160a01b037f000000000000000000000000000000000000000000000000000000000000000016906370a082319060240160206040518083038186803b1580156114c957600080fd5b505afa1580156114dd573d6000803e3d6000fd5b505050506040513d601f19601f820116820180604052508101906115019190612de3565b101561154f5760405162461bcd60e51b815260206004820152600f60248201527f4e6f7420656e6f756768204c494e4b00000000000000000000000000000000006044820152606401610621565b6110ed60085460095461240e565b6001546001600160a01b031633146115b75760405162461bcd60e51b815260206004820181905260248201527f4f776e61626c653a2063616c6c6572206973206e6f7420746865206f776e65726044820152606401610621565b6001600160a01b0381166116335760405162461bcd60e51b815260206004820152602660248201527f4f776e61626c653a206e6577206f776e657220697320746865207a65726f206160448201527f64647265737300000000000000000000000000000000000000000000000000006064820152608401610621565b61131b8161165b565b600061106d611463565b60006116528284612da1565b90505b92915050565b600180546001600160a01b0383811673ffffffffffffffffffffffffffffffffffffffff19831681179093556040519116919082907f8be0079c531659141344cd1fd0a4f28419497f9722a3daafe3b4186f6b6457e090600090a35050565b60006116c5826125a1565b905060006116d682600060026126d3565b905060006116e783600260116126d3565b905060006116f4836111a3565b60075460408051888152602081018a9052908101839052919250907f36054b7a866df9f0fe68c2c7993bbbe53117ac830eb97b32ff6a1fb1a56f828d9060600160405180910390a2505050505050565b6040516bffffffffffffffffffffffff193360601b1660208201526000908190439042906034016040516020818303038152906040528051906020012060001c61178e9190612f5b565b6040516bffffffffffffffffffffffff194160601b166020820152459042906034016040516020818303038152906040528051906020012060001c6117d39190612f5b565b6117dd4442612da1565b6117e79190612da1565b6117f19190612da1565b6117fb9190612da1565b6118059190612da1565b60405160200161181791815260200190565b60408051601f198184030181529190528051602090910120905061183c606482612f5b565b611847906064612f26565b6118519082612e1f565b91505090565b600260005414156118aa5760405162461bcd60e51b815260206004820152601f60248201527f5265656e7472616e637947756172643a207265656e7472616e742063616c6c006044820152606401610621565b600260009081556007548152600a602052604090205461190c5760405162461bcd60e51b815260206004820152601560248201527f4e6f20656e747269657320746f20736574746c652e00000000000000000000006044820152606401610621565b6007546000908152600a602081905260408220549190819060019082906119349087906127d0565b905060008567ffffffffffffffff81111561195157611951612877565b6040519080825280602002602001820160405280156119af57816020015b61199c604051806060016040528060006001600160a01b0316815260200160008152602001600081525090565b81526020019060019003908161196f5790505b5090506119bd600288612f6f565b156119c757600092505b60005b86811015611e06576007546000908152600a602052604081208054839081106119f5576119f5612d5a565b6000918252602082206007909102019150600482015460ff166002811115611a1f57611a1f612a86565b1415611b36576003810154600190611a3990600290612f6f565b15611a42575060005b8515158115151415611ad3578154611a5b906002612f26565b60068301819055600160058401558254611a7491612e1f565b611a7e9089612da1565b6040805160608101825260028501546001600160a01b0316815260068501546020820152845491810191909152855191995090859085908110611ac357611ac3612d5a565b6020026020010181905250611b30565b8154611adf9088612da1565b6040805160608101825260028501546001600160a01b0316815260068501546020820152845491810191909152855191985090859085908110611b2457611b24612d5a565b60200260200101819052505b50611c90565b6001600482015460ff166002811115611b5157611b51612a86565b1415611b81576003810154600090611b6a90600a6127d0565b905080851415611ad3578154611a5b90600a612f26565b6002600482015460ff166002811115611b9c57611b9c612a86565b1415611c90578881600301541415611c33578054611bbb906064612f26565b60068201819055600160058301558154611bd491612e1f565b611bde9088612da1565b6040805160608101825260028401546001600160a01b0316815260068401546020820152835491810191909152845191985090849084908110611c2357611c23612d5a565b6020026020010181905250611c90565b8054611c3f9087612da1565b6040805160608101825260028401546001600160a01b0316815260068401546020820152835491810191909152845191975090849084908110611c8457611c84612d5a565b60200260200101819052505b60048101805461ff001916610100179055600281015460075482546005840154600685015460408051938452602084019290925290820152606081018590526001600160a01b03909216917fc4b70598ffd9d208e727489ead3916a9dc3b65b6eca61ce1c05f1e9354e521479060800160405180910390a380600a600060075481526020019081526020016000208381548110611d2f57611d2f612d5a565b60009182526020909120825460079092020190815560018083015481830155600280840154818401805473ffffffffffffffffffffffffffffffffffffffff19166001600160a01b0390921691909117905560038085015490840155600480850154908401805460ff90921693909260ff19909216918490811115611db657611db6612a86565b0217905550600482810154908201805461ff0019166101009283900460ff161515909202919091179055600580830154908201556006918201549101555080611dfe81612d86565b9150506119ca565b506000600181611e178760326127d0565b9050611e2387826127dc565b965086881115611e4257611e3788886127dc565b925060019150611e5b565b87871115611e5b57611e5487896127dc565b9250600091505b600354604051634fad3e2b60e01b81526001600160a01b0390911690634fad3e2b90611e91908690869086908a90600401612f83565b600060405180830381600087803b158015611eab57600080fd5b505af1158015611ebf573d6000803e3d6000fd5b5050600754604080518c8152602081018c90529081018e90529092507f3491ec87f906ba953d57be56acdb84447ae6aa060871190cdf8f29c31f7b9dec915060600160405180910390a2600160076000828254611f1c9190612da1565b9091555050600160005550505050505050505050565b60026000541415611f855760405162461bcd60e51b815260206004820152601f60248201527f5265656e7472616e637947756172643a207265656e7472616e742063616c6c006044820152606401610621565b600260009081556007548152600b6020526040902054611fe75760405162461bcd60e51b815260206004820152601560248201527f4e6f20656e747269657320746f20736574746c652e00000000000000000000006044820152606401610621565b6007546000908152600b6020526040812054908060018161200986600a6127d0565b905060008567ffffffffffffffff81111561202657612026612877565b60405190808252806020026020018201604052801561208457816020015b612071604051806060016040528060006001600160a01b0316815260200160008152602001600081525090565b8152602001906001900390816120445790505b509050612092600288612f6f565b1561209c57600092505b60005b8681101561233e576007546000908152600b602052604081208054839081106120ca576120ca612d5a565b600091825260208083206004600590930201918201548352600c9052604082209092509080805b83548110156122b257600084828154811061210e5761210e612d5a565b9060005260206000209060050201905080600001548461212e9190612da1565b93506000600182015460ff16600281111561214b5761214b612a86565b14156121be576000600282600201546121649190612f6f565b151590508a15158114156121a957815461217f906002612f26565b60038301819055825461219191612e1f565b61219b908e612da1565b600160048401559c506121b8565b81546121b5908d612da1565b9b505b5061228d565b60018082015460ff1660028111156121d8576121d8612a86565b141561221a5760028101546000906121f190600a6127d0565b90506121fc816127e8565b6122058a6127e8565b808a14156121a957815461217f90600a612f26565b6002600182015460ff16600281111561223557612235612a86565b141561228d578d8160020154141561227e578054612254906064612f26565b60038201819055815461226691612e1f565b612270908d612da1565b600160048301559b5061228d565b805461228a908c612da1565b9a505b600381015461229c9084612da1565b92505080806122aa90612d86565b9150506120f1565b506001840180547fffffffffffffffffffffff00ffffffffffffffffffffffffffffffffffffffff8116600160a01b17909155604080516060810182526001600160a01b039092168252602082018390528101839052865187908790811061231c5761231c612d5a565b602002602001018190525050505050808061233690612d86565b91505061209f565b50600060018161234f8760326127d0565b905061235b87826127dc565b96508688111561237a5761236f88886127dc565b925060019150612393565b878711156123935761238c87896127dc565b9250600091505b600354604051634fad3e2b60e01b81526001600160a01b0390911690634fad3e2b906123c9908690869086908a90600401612f83565b600060405180830381600087803b1580156123e357600080fd5b505af11580156123f7573d6000803e3d6000fd5b50505050600160076000828254611f1c9190612da1565b60007f00000000000000000000000000000000000000000000000000000000000000006001600160a01b0316634000aea07f00000000000000000000000000000000000000000000000000000000000000008486600060405160200161247e929190918252602082015260400190565b6040516020818303038152906040526040518463ffffffff1660e01b81526004016124ab93929190612fff565b602060405180830381600087803b1580156124c557600080fd5b505af11580156124d9573d6000803e3d6000fd5b505050506040513d601f19601f820116820180604052508101906124fd919061306c565b50600083815260026020818152604080842054815180840189905280830186905230606082015260808082018390528351808303909101815260a090910190925281519183019190912093879052919052612559906001612da1565b6000858152600260205260409020556125998482604080516020808201949094528082019290925280518083038201815260609092019052805191012090565b949350505050565b6060816125e157505060408051808201909152600181527f3000000000000000000000000000000000000000000000000000000000000000602082015290565b8160005b811561260b57806125f581612d86565b91506126049050600a83612f5b565b91506125e5565b60008167ffffffffffffffff81111561262657612626612877565b6040519080825280601f01601f191660200182016040528015612650576020820181803683370190505b5090505b841561259957612665600183612e1f565b9150612672600a86612f6f565b61267d906030612da1565b60f81b81838151811061269257612692612d5a565b60200101907effffffffffffffffffffffffffffffffffffffffffffffffffffffffffffff1916908160001a9053506126cc600a86612f5b565b9450612654565b60608360006126e28585612e1f565b67ffffffffffffffff8111156126fa576126fa612877565b6040519080825280601f01601f191660200182016040528015612724576020820181803683370190505b509050845b848110156127c65782818151811061274357612743612d5a565b01602001517fff0000000000000000000000000000000000000000000000000000000000000016826127758884612e1f565b8151811061278557612785612d5a565b60200101907effffffffffffffffffffffffffffffffffffffffffffffffffffffffffffff1916908160001a905350806127be81612d86565b915050612729565b5095945050505050565b60006116528284612f5b565b60006116528284612e1f565b61131b816040516024016127fe91815260200190565b60408051601f198184030181529190526020810180517bffffffffffffffffffffffffffffffffffffffffffffffffffffffff167ff5b1bba90000000000000000000000000000000000000000000000000000000017905280516a636f6e736f6c652e6c6f67602083016000808483855afa5050505050565b634e487b7160e01b600052604160045260246000fd5b60405160a0810167ffffffffffffffff811182821017156128b0576128b0612877565b60405290565b604051601f8201601f1916810167ffffffffffffffff811182821017156128df576128df612877565b604052919050565b8035600381106128f657600080fd5b919050565b6000602080838503121561290e57600080fd5b823567ffffffffffffffff8082111561292657600080fd5b818501915085601f83011261293a57600080fd5b81358181111561294c5761294c612877565b61295a848260051b016128b6565b818152848101925060a091820284018501918883111561297957600080fd5b938501935b828510156129de5780858a0312156129965760008081fd5b61299e61288d565b853581526129ad8787016128e7565b818801526040868101359082015260608087013590820152608080870135908201528452938401939285019261297e565b50979650505050505050565b6000602082840312156129fc57600080fd5b5035919050565b602080825282518282018190526000919060409081850190868401855b82811015612a7957815180518552868101516001600160a01b03168786015285810151151586860152606080820151908601526080808201519086015260a0908101519085015260c09093019290850190600101612a20565b5091979650505050505050565b634e487b7160e01b600052602160045260246000fd5b60038110612aba57634e487b7160e01b600052602160045260246000fd5b9052565b602080825282518282018190526000919060409081850190868401855b82811015612a79578151805185528681015187860152858101516001600160a01b03168686015260608082015190860152608080820151612b1e82880182612a9c565b505060a08181015115159086015260c0808201519086015260e090810151908501526101009093019290850190600101612adb565b600080600060608486031215612b6857600080fd5b8335925060208401359150612b7f604085016128e7565b90509250925092565b60008060408385031215612b9b57600080fd5b50508035926020909101359150565b888152602081018890526001600160a01b0387166040820152606081018690526101008101612bdc6080830187612a9c565b93151560a082015260c081019290925260e09091015295945050505050565b602080825282518282018190526000919060409081850190868401855b82811015612a795781518051855286810151612c3688870182612a9c565b508086015185870152606080820151908601526080908101519085015260a09093019290850190600101612c18565b85815260a08101612c796020830187612a9c565b8460408301528360608301528260808301529695505050505050565b60006020808385031215612ca857600080fd5b823567ffffffffffffffff80821115612cc057600080fd5b818501915085601f830112612cd457600080fd5b813581811115612ce657612ce6612877565b612cf8601f8201601f191685016128b6565b91508082528684828501011115612d0e57600080fd5b8084840185840137600090820190930192909252509392505050565b600060208284031215612d3c57600080fd5b81356001600160a01b0381168114612d5357600080fd5b9392505050565b634e487b7160e01b600052603260045260246000fd5b634e487b7160e01b600052601160045260246000fd5b6000600019821415612d9a57612d9a612d70565b5060010190565b60008219821115612db457612db4612d70565b500190565b8481526020810184905260808101612dd46040830185612a9c565b82606083015295945050505050565b600060208284031215612df557600080fd5b5051919050565b600060ff821660ff841680821015612e1657612e16612d70565b90039392505050565b600082821015612e3157612e31612d70565b500390565b600181815b80851115612e71578160001904821115612e5757612e57612d70565b80851615612e6457918102915b93841c9390800290612e3b565b509250929050565b600082612e8857506001611655565b81612e9557506000611655565b8160018114612eab5760028114612eb557612ed1565b6001915050611655565b60ff841115612ec657612ec6612d70565b50506001821b611655565b5060208310610133831016604e8410600b8410161715612ef4575081810a611655565b612efe8383612e36565b8060001904821115612f1257612f12612d70565b029392505050565b60006116528383612e79565b6000816000190483118215151615612f4057612f40612d70565b500290565b634e487b7160e01b600052601260045260246000fd5b600082612f6a57612f6a612f45565b500490565b600082612f7e57612f7e612f45565b500690565b60006080820186835260208615158185015260408681860152606060808187015283875180865260a088019150848901955060005b81811015612fee57865180516001600160a01b031684528681015187850152850151858401529585019591830191600101612fb8565b50909b9a5050505050505050505050565b6001600160a01b038416815260006020848184015260606040840152835180606085015260005b8181101561304257858101830151858201608001528201613026565b81811115613054576000608083870101525b50601f01601f19169290920160800195945050505050565b60006020828403121561307e57600080fd5b81518015158114612d5357600080fdfea26469706673582212206caf74ac2a2a8ac7f8c350e87d1ac0f3c0c2128d0ddbbaabebbb30838c561bea64736f6c63430008090033",
  "linkReferences": {},
  "deployedLinkReferences": {}
}